:020000040000FA
:060000000213B1020832F8
:03001B0002085682
:03002B000211C5FA
:0300430002106147
:0300530002076F32
:03005B00020B9BFA
:03006B00020F86FB
:030073000208B2CE
:100083000207C6010101010503010F10FEFF6C1BEE
:100093006C1B6C1B6C1B221A1C1A6C1B6B30000034
:1000A3000000E32E000000000C0000000C0001FA29
:1000B3000A00000000000000000000000000000033
:1000C300000000000000000000000000000000002D
:1000D300000000000000000000000000000000001D
:1000E300000000000000000000000000000000000D
:1000F30000000000000000000000000000000000FD
:1001030000000000000000000000000000000000EC
:1001130000000000000000000000000000000000DC
:100123000000000000000000000000000000006468
:1001330000000000003A1D000000000000DC1D006C
:10014300000000000000004905FF010101009611B5
:100153000000000C12E80364006400B80102020509
:100163000107051E02051E020A03B80B803E0102A9
:1001730010011402020A0505050500280A0A0A0AE5
:10018300000630313233343536373839414243444F
:10019300454600286E756C6C20706F696E746572CD
:1001A30029003F3F3F000000803FF9021550B7434D
:1001B300BA510000204100E7DB2E0000A0401000F0
:1001C3000000080000000A0000001213EE6046124F
:1001D30013D0603DE9687008F618F618F618F62291
:1001E300748067F7120201090909748067F7221204
:1001F30013D0601D1213EE7005191919801A12120B
:100203004C701F121261C37003E66733191919404A
:10021300071818182208080874FFF618F618F618B5
:10022300F6221212616017121431702192F0121427
:100233003B7019501720F014080808090909E7F65C
:100243001819E7F61819E7F61819E7F62212143BFE
:1002530060E6E869701F0808E62480F608E436F6CD
:1002630018547FB47F0CE654806007F6E418F61840
:10027300F622181822E9C6CC08C6CD08C6CE08C691
:10028300CFC0E0E8C0E0EAC0E0EBC0E009E9F8096C
:10029300E7FA09E7FBE6F918E6F8C3EC98ED99EEFF
:1002A3009AEBC2E7F5F0EFC2E795F0500E600CEB66
:1002B300CFFBEACEFAE9CDF9E8CCF8EAA2E7D2E738
:1002C300FAEB33FB13F5F0EEA2E7D2E7FEEF33FFD1
:1002D300C5F013A2E730E601B313C5F0C3C0E0C015
:1002E300F07F00C39BFB605B9418600C401AD0E066
:1002F30023F9D0E0F80203D08AF0E9486003D2F092
:10030300E4AFF0FAF9F8803BEB30E40D89F0EA60F2
:1003130003D2F0E4AFF0F9CAF8EB30E30D88F0EF65
:100323006002D2F0AFF0E4CAC9F8EB54076014FBE3
:10033300C3EA13FAE913F9E813F8EF135002D2E012
:10034300FFDBEDD0E0C0E030E739C3E49FFFF5F019
:10035300EC98FC42F0ED99FD42F0EE9AFE42F0D0AB
:10036300E0F9D0E0F8E5F0607AE923F9EE20E7421E
:10037300D8028067C3EF33FFEC33FCED33FDEE337C
:10038300FE80EAEC28FCED39FDEE3AFED0E023F9DD
:10039300D0E0F84002801BC3EE13FEED13FDEC1317
:1003A300FCEF135002D2E0FF08B800067F7F74FF12
:1003B300802EEF3350178CF020F00260100CBC003D
:1003C3000C0DBD00080EBE000408E860DFE933E849
:1003D30013FFEE2313FE4F4D4C8008E95480FFE4D6
:1003E300FEFDFCEE33EF33F47004FCFD7E80D0E0C1
:1003F300FBD0E0FAD0E0F8D0E0CFC618CEC618CDD7
:10040300C618CCC6F9221213D07004181818221279
:1004130013EE700D74FFF61819F61819F61819F67D
:1004230022E7548066F612143B700F12143170F0F9
:1004330014F608F608F608F680D1121431700CF69B
:1004430008F608768008E6447F80EC121264700C8C
:1004530012124F60BFE65480F6E480BB12124F7055
:100463000519191980A5E869700C763F187680186C
:10047300F618F6E8F922E6CDC0E018ECC0E0E63362
:10048300CD33CDD313F6E719FCE7191933CC33C3B6
:10049300947F400ECD9D502408E65480F6E418F670
:1004A300800FF4043D14501408E6447FF618768058
:1004B300E418F618F6D0E0FCD0E0FD22CCD313CC40
:1004C300FD18E4C6CBC0E018E4C6CAC0E00808EDD6
:1004D30008C633E613F618E433C675F003C3CA97A8
:1004E300CA09CB97CB199C40047D08802EBD00031D
:1004F3000205B216B6FF050606081618C3CA33CAA4
:10050300CB33CB33CA27CA09CB37CB193CC37D08BE
:10051300803E187D0820E75CC633C6CA33CACB3396
:10052300CB33DDF1D5F0EB30E77BCA97CA09CB9724
:100533004ACB199C406F4B7025E620E0218066185A
:100543007D08C3CA97CA09CB97CB199CD3C633C6B8
:10055300CA33CACB33CB3350C9DDE7D5F0E1D3E49B
:10056300C636C608C636C608C636C608C636C61850
:1005730018188031C3CA97CA09CB97CB199CB340CB
:1005830097C633C6CA33CACB33CB33DD34D5F02E4B
:10059300C6A2E0C640C8CA27CA09CB37194A70BEEB
:1005A300CB3CB480B90808E63308E633601F18185B
:1005B30018D0E0FAD0E0FBD0E0FCD0E0FD22187DBB
:1005C30008CA27CA09CB37CB193CD3808013F61846
:1005D300E4B67F11F618B6FF0EF618C60470D208FB
:1005E30008768080CAF618F618F680C5001213D074
:1005F300604F1213EE6012E7548066F612124C70CD
:1006030011121431703B090909F4F618F618F6189B
:10061300F622121261701512143B08080860EAE60C
:10062300447FF618768018E4F618F62212143B601D
:10063300161214317012E4F608F608F608E6548030
:10064300F609090918181822EAC0E0EBC0E0ECC06B
:10065300E0EDC0E0E687F0A4FBACF008E687F0A489
:100663002CFCE435F0FA1809E687F0A42C4B600261
:100673007401CA35F0FCE433FB09E687F0D2F7A432
:100683002CCB35F0FC1908E687F0A42BCC35F0FB16
:10069300E433FD0819E687F0D2E7A42C4ACB35F002
:1006A300CD3400FC09E687F0D2E7A42DCC35F0FD6C
:1006B300E433FA0918E687F0D2F7A42CCD35F0CA53
:1006C3003400FC08E687F0D2E7D2F7A42ACC35F051
:1006D3007A7E20E70B0ACB33CBCD33CDCC33CC336F
:1006E300CB3350147004ED30E00ED2F1E4CD3DCDA8
:1006F300CC3CCC3B5005DA05C2F1EB547FC6330842
:10070300E63392F0FBE73309E733C39A502D2B709E
:10071300190C0D4C4D70151806E608C333700D20E7
:10072300F10AA2F013F6E418800B4024E4F630F04B
:1007330002768018F618F618F68024D33B1450106E
:1007430074FFA2F013F6187680E418F618F6800FFB
:10075300A2F013F618E63303F618ECF618EDF6D00C
:10076300E0FDD0E0FCD0E0FBD0E0FA22C0E074F280
:10077300120C6EA2AFE492E0FED2AFE5A7FAE5A1B8
:10078300FBEA5B541060081223A675A1EF802AEAE6
:10079300A2E0C0D0EBA2E092F01212EC158182F03D
:1007A3005017906198E0FA9015DFE0C39AA2D265E2
:1007B300D0335002EAF075A1FEEEA2E092AF7F01C2
:1007C300020D25C0E074F2120C6EA2AFE492E0FEBB
:1007D300D2AF9061A4E0FA759B00E5915A5408608A
:1007E300087591F71223E8802AE5915A541060089E
:1007F3007591EF1223EE801BEAA2E0C0D0E591A22F
:10080300E092F01212EC158182F05007E0C2E0F0A2
:100813001225269061A3E0FAE5E95A5404600E120A
:1008230024FC75E9FB906193E0A2E640F2808AC064
:10083300E074F2120C6EA2AFE492E0FED2AF9061CC
:10084300A5E0FAE5BF5A5404600675BFFB12253EC6
:100853000207BCC0E0C0D0E8C0E0E9C0E0EAC0E005
:10086300C082C083E5F9C0E090154AE024C9F5824F
:10087300E43414F583D0E0F0901549E0FA90154A7A
:10088300E06A7006E59590154CF090154AE004F087
:10089300C394804002E4F074C690154BF0D083D02B
:1008A30082D0E0FAD0E0F9D0E0F8D0D0D0E032C086
:1008B300E0C0D0EAC0E0C008C009C082C083901580
:1008C300CDE0FA9015CEE06A700A539AF77401905E
:1008D30015CF8025C2EA9015CDE0F50874012508EF
:1008E300F0E508244DF582E43415F583E0F5F9903D
:1008F30015CDE0C394804002E4F0D083D082D009C8
:10090300D008D0E0FA80A3C3E498F8E499F9120977
:100913004B8026C3E49AFAE49BFBE920E7E912093A
:100923004BE498F8E499F922C3E498F8E499F912AE
:10093300094BE498F8E499F9C3E49AFAE49BFB229F
:10094300EB20E7CFE920E7E0B90010BB0008E88A15
:10095300F084F8AAF022E4FBC8FA22EB70227B10A1
:10096300C833C8C933C9335007C39AC3DBF28006FF
:100973009A50012ADBEAC833F4C8C933F4C9FA220E
:1009830075F008E4C833C8C933C933C99AC99B5041
:1009930004C92AC93BD5F0ECFBC833F4C8E4C9FA4F
:1009A300221209E420F01430E72B74FFFCFBFA74E5
:1009B3007F8022E4FCFBFA7480801AB48008BC00B8
:1009C300F2BB00EF800F50EBF9E4C39AFAE49BFB10
:1009D300E49CFCE499C6CC18C6CB18C6CA18C6F961
:1009E30022E4C9C608CAC608CBC6D3330308CCC69B
:1009F3003392F0C3947F402E94184019C9B9070469
:100A0300CACBCC225025C309CA33CACB33CBCC3390
:100A1300CC33D9F422F4600DC9CCC313CB13CBCAA6
:100A230013CAD9F6CC22E4FCFBFA2214FCFBFA220B
:100A3300080808EAC0E0EBC0E086F0E7A4FA18096A
:100A430086F0E7A42AFA180986F0E7A42AFA180917
:100A530086F0E7A42AFA1986F0E7A4FBE5F02AFA60
:100A6300190886F0E7A42BFBE5F03AFA190886F09B
:100A7300E7A42BFBE5F03AFA18180986F0E7A4C5BA
:100A8300F02BFBE43AFA1908E7C5F0C6A426F6E50D
:100A9300F03BFBE43AFA1886F0E7A4F6E5F0082603
:100AA300F6E43B08F6E43A08F6D0E0FBD0E0FA229D
:100AB300080808E630E71112129F120ACB0808084B
:100AC300C64480C618181822181818E9799EC60853
:100AD300CAC608CBC608CCC6C370207996CACBCC8D
:100AE3007019798ECBCC70137986CC700EF9802A6D
:100AF300CA33CACB33CBCC33CC331930E7F2CCCBAC
:100B0300CA3350147004EA30E00DE4CA3ACACB3B4E
:100B1300CBCC3CCC500209C3E913C6CC182313C673
:100B2300CB18C6CA18C6F922E4CFC0E0E4CEC0E0B1
:100B3300E4CDC0E0E4CCC0E075F020C3E633F608B2
:100B4300E633F608E633F608E633F6181818EC33FE
:100B5300FCED33FDEE33FEEF33FFC3EC9709ED9766
:100B630009EE9709EF97191919400FFFEC97FC0944
:100B7300ED97FD09EE97FE191906D5F0BEECF709BE
:100B8300EDF709EEF709EFF7191919D0E0FCD0E0FA
:100B9300FDD0E0FED0E0FF22C0E074EB120C6EC289
:100BA300AFA2D850579081C078081213C1900500A6
:100BB30078081212D9900500C082901E607808123E
:100BC30013C19081C4780C1213C17808790C120AEE
:100BD30033758305D0827808121371401F9081D436
:100BE30078081213C190050078081213FD9004F9D8
:100BF3007461F0A374EAF0E49004F8F0D2AFC2D8C1
:100C03007F08020D252518C582C0E0E51934FFC50C
:100C130083C0E0E518C3958224F8F8E4C5A885836A
:100C230019858218C5A8E8CEF0A3E520F0A37808BB
:100C3300E608F0A3DEFAEFF0A3E58124FAF8E6086C
:100C4300F0A3E608F0A3E608F0A30808E608F0A37B
:100C5300E608F0A315811581D0E0FED0E0F81581F8
:100C630015811581E8C0E0EEC0E022C0D02518C58B
:100C730082C0E0E51934FFC583C0E0E518C395825F
:100C830024F310AF0885831985821880088583199A
:100C9300858218D2AFC8F0A3E9F0A3EAF0A3EBF082
:100CA300A37908E709F0A3D8FAECF0A3EDF0A3EEDB
:100CB300F0A3EFF0A3D0E0F0A3D0E0F0A3D0E0F0F6
:100CC300A3E520F0A3E5F0F0A322121426B9000354
:100CD300020D0FE490030178B4791B8002F0A3D8CE
:100CE300FCD9FA901DB4AA82AB8390008678487928
:100CF300028015E493A3AC82AD838A828B83F0A335
:100D0300AA82AB838C828D83D8E9D9E775825B7520
:100D130083EA740312112475825C758328740012AC
:100D23001124851983851882E0C0E0A3E0F9A3E0CC
:100D3300FAA3E0FBA37808E0F608A3DFFAE0FCA33C
:100D4300E0FDA3E0FEA3E0FFA3E0C0E0A3E0C0E07A
:100D5300A3E0F5D0A3E0F520A3E0A3F5F0E4C5A854
:100D6300858319858218C5A8D082D083D0E0F8D0B6
:100D7300E0321213D0601C1213EE601712143B7092
:100D8300071214317001D322C0D01214317006D06F
:100D9300D0B322C32233D0D0501430E0F6C3E79649
:100DA3000809E7960809E7960809E796B32220E0C1
:100DB300D5E6970809E6970809E6970809E697B381
:100DC30022D083D082ECC0E0EDC0E0E493A3FCE446
:100DD30093A3FDED4C600D120EA2EC24FFFCED3449
:100DE300FFFD80EFE493A3FCE493A3FDED4C600DC2
:100DF30012100CEC24FFFCED34FFFD80EFD0E0FD7E
:100E0300D0E0FCE493A3C0E0E493C0E0221213D04B
:100E1300601B1213EE601612143B7007121431603C
:100E23000CB322C0D01214317005D0D022C32233A8
:100E3300D0D0501330E0EBC3E7960809E7960809D2
:100E4300E7960809E7962220E0E4E6970809E69783
:100E53000809E6970809E69722D083D082E9C0E023
:100E6300E493A3C386F0C5F095F0F908E493A38651
:100E7300F0C5F095F0700BE493A3C3994005E90422
:100E83008002A3E475F002A42582F582E5F03583A0
:100E9300F583D0E0F9E493A3C0E0E493C0E022C07B
:100EA300E0C3E49396087401939618400FE49366A5
:100EB300700808740193661870007019A3A3C3E443
:100EC3009396087401939618A3A3400DD0E0D0E045
:100ED300D0E0020E00A3A3A3A3A3A3D0E02285190D
:100EE30083851882E0A3FEE0A3F5207808E0A3F64B
:100EF30008DFFAE0A3FFE0A3C0E0E0A3C0E0E0A3C3
:100F0300C0E0E0A3C0E0E0A3C0E0E4C5A885821888
:100F1300858319C5A8D083D08202112AD083D082B9
:100F2300C5F0E493A3C5F0C395F0F5F0E493A3C330
:100F330095F04005E5F0048001E475F002A42582F4
:100F4300F582E5F03583F583E493A3C0E0E493C031
:100F5300E0227404800474028000CCC0E0EDC0E0A1
:100F6300E518C39CCCAD1950011D10AF068C188D2C
:100F73001980068C188D19D2AF1210A7D0E0FDD0BE
:100F8300E0FC22C0E074F2120C6EA2AFE492E0FE29
:100F9300D2AFE589A2E64006E589A2E75003122213
:100FA300B6758900C2C5EEA2E092AF7F01020D259E
:100FB30074028000CCC0E0EDC0E0E518C39CCCAD6A
:100FC3001950011D10AF068C188D1980068C188DD1
:100FD30019D2AF121085D0E0FDD0E0FC221213D05D
:100FE30060251213EE602012143B700302143108C3
:100FF3000808E76670101819E766700A1819E7669B
:1010030070041819E76622F422C0E0C0F088F0E407
:10101300936670080874019366187000A8F0A3A380
:10102300700BD0F0D0E0D0E0D0E0020E00A3A3D04C
:10103300F0D0E022D083D082CCC0E0E493A360065A
:101043001210E71470FAE493A3600612120C1470E2
:10105300FAD0E0FCE493A3C0E0E493C0E022C0E054
:1010630074F2120C6EA2AFE492E0FED2AFC2C0E5FE
:10107300D1A2E450031222FEEEA2E092AF7F01025E
:101083000D25CAC0E0E493A3C582CCC582C583CD38
:10109300C583F0A3C582CCC582C583CDC583DAE5FC
:1010A300D0E0CA22CAC0E0E0A3C582CCC582C58312
:1010B300CDC583F0A3C582CCC582C583CDC583DAF4
:1010C300E6D0E0CA2270090808082260161818182A
:1010D300C6C333C608C633C608C633C608C633C636
:1010E300D5E0EA22C0E0E493A3D39C5010E493A399
:1010F300C39C400AD0E0D0E0D0E0021054A3A3A3E5
:10110300D0E022C5822518C582C583351910AF07E3
:10111300F5198582188007F519858218D2AFC58322
:1011230022C09FF59FE473D09F22D083D082C09FBB
:10113300E493C0E0740193C0E0740293F59F222509
:1011430018F58210AF08F518400215198008F51834
:1011530040021519D2AF851983227404800A7403DF
:101163008006740280027401C0E0F404121142D0BC
:10117300E012140C22C0D0251810AF08F518500245
:1011830005198008F51850020519D2AFD0D022BB3B
:101193000102E722C082C08389828A83BB0003E005
:1011A3008002E493D083D082226016080808C6C365
:1011B30013C618C613C618C613C618C613C6D5E079
:1011C300EA22C0E0C0D0EAC0E0E5A8D2AFC2C7A21D
:1011D300E792AFD0E0FAD0D0D0E032C3E0C696F6C3
:1011E30008A3E0C696F608A3E0C696F608A3E0C6F1
:1011F30096F622251810AF08F51840021519800835
:10120300F51840021519D2AF22C0E0E493A36C7025
:1012130009D0E0D0E0D0E0021054A3A3D0E022C371
:10122300E09608A3E09608A3E09608A3E096A2D26E
:1012330065D03322C3E7960809E7960809E79608BD
:1012430009E796A2D265D03322181818E608460893
:10125300700AE608C3337005E633F422082219192D
:1012630019E7094709700AE709C3337005E733F43F
:10127300220922E066701008A3E066700A08A3E062
:1012830066700408A3E06622C3E096F008A3E09624
:10129300F008A3E096F008A3E096F022181818E4EB
:1012A300C396F608E496F608E496F608E496F62262
:1012B300E627F60809E637F60809E637F60809E6E9
:1012C30037F622E026F608A3E036F608A3E036F662
:1012D30008A3E036F622E026F008A3E036F008A3E0
:1012E300E036F008A3E036F022C0E0E8C0E0E58194
:1012F30024FCF8E6A2E7D0E0F8D0E02270042260F4
:101303000D18C6C333C608C633C6D5E0F41822E6A3
:1013130057F60809E657F60809E657F60809E657A7
:10132300F622E056F608A3E056F608A3E056F608C0
:10133300A3E056F622E056F008A3E056F008A3E037
:1013430056F008A3E056F022E647F60809E647F60A
:101353000809E647F60809E647F622E046F008A33F
:10136300E046F008A3E046F008A3E046F022C3E01D
:101373009608A3E09608A3E09608A3E09622C6F495
:10138300C608C6F4C608C6F4C608C6F4C622600D6D
:1013930008C6A2E713C618C613C6D5E0F322C3E7EF
:1013A300960809E7960809E7960809E7962275D093
:1013B3000075814075180175190300020CCDE0F624
:1013C30008A3E0F608A3E0F608A3E0F622E6084641
:1013D30008C3134608336002E633F422600C08C6E0
:1013E300C313C618C613C6D5E0F422E7094709C3D9
:1013F300134709336002E733F422E6F008A3E6F06B
:1014030008A3E6F008A3E6F022CAC0E0E6F0A308CA
:10141300DAFAD0E0FA22C5822518C582C5833519C8
:10142300C5832274F855C74401F5C7790122E7C380
:101433003319471947194722E6C333184618461884
:1014430046222518F582E43519F58322C2AF75D6F5
:101453009F0200002212112D798D0112112DEF8DA3
:101463000112112D2C8E0112112D8F8E0112112DAF
:10147300E58F0112112D05900112112D67900112B4
:10148300112D01910112112D5A910112112DE99182
:101493000112112DA5920112112DE3920112112DAA
:1014A30052930112112DAC930112112DE4930112E9
:1014B300112D16950112112D50960112112DB19671
:1014C3000112112DFA960112112D22970112112DDD
:1014D300A5970112112D25980112112D989801122B
:1014E300112DA9980112112D1D990112112DB899D1
:1014F3000112112DFA990112112D809A0112112D49
:10150300BC9A0112112DCF9A0112112D1D9B0112AC
:10151300112D5E9B0112112DE39C0112112D789E5A
:101523000112112DAD9E0112112D4A9F0112112D91
:10153300899F0112112DC49F0112112DA8A0011220
:10154300112DE4A20112112DEEA20112112DF8A208
:101553000112112D02A30112112D1CA30112112D31
:1015630026A30112112D30A30112112D3AA301124A
:10157300112D5FA30112112DBCA30112112DE0A3A4
:101583000112112D04A40112112D63A40112112DB6
:10159300BAA40112112DD8A40112112D48A50112CC
:1015A300112D85A50112112DCCA50112112D34A6E3
:1015B3000112112DC3A60112112DFEA70112112D27
:1015C3004EA80112112D84A90112112DE8AA0112AE
:1015D300112D74AD0112112D46AF0112112DFDB065
:1015E3000112112D63B10112112D73B20112112DCC
:1015F30024B30112112D69B30112112D1AB4011272
:10160300112DA8B40112112DD0B40112112D92B5D0
:101613000112112D78B80112112D9DB80112112D4F
:10162300EFB80112112DEDB90112112D25BA0112D6
:10163300112D65BA0112112DC4BA0112112DE2BB8D
:101643000112112D42BC0112112D26BD0112112DC3
:1016530030BF0112112D52BF0112112DE5C001122D
:10166300112D2BC10112112DFFC10112112D92C297
:101673000112112DC1C20112112DECC20112112D43
:10168300D7C30112112D13C40112112D75C40112F8
:10169300112D03C50112112D06C50112112D75C59A
:1016A3000112112D46320012112D98320012112D04
:1016B300EF340012112D3B350012112D2E3600127E
:1016C300112D99360012112DDA360012112D3038F2
:1016D3000012112D533A0012112DEA3A0012112D66
:1016E3007E3B0012112D4D420012112DE1420012DA
:1016F300112D5E450012112D42460012112DE746B1
:101703000012112D00480012112D2A4B0012112D29
:10171300ED4C0012112D4D4D0012112D014E0012F2
:10172300112DAA4E0012112DD54E0012112D624F0C
:101733000012112D46500012112D1A510012112DB5
:10174300B8510012112DE5510012112D075200124C
:10175300112D23540012112DF5540012112D425551
:101763000012112DB3550012112D61560012112DC7
:1017730096560012112DE4560012112D1457001223
:10178300112D52570012112DB6570012112DBB57B0
:101793000012112D16580012112D3E580012112D52
:1017A30054590012112DB5590012112D185A001257
:1017B300112DAB5A0012112DE05C0012112DB95DF1
:1017C3000012112D495F0012112DD9600012112D45
:1017D30076610012112DB5620012112D4E630012B5
:1017E300112D96630012112D09650012112D1D652F
:1017F3000012112D2A650012112D45650012112DBD
:1018030051650012112D6F650012112D41670012F1
:10181300112D7A670012112D87670012112DD467DD
:101823000012112DC7680012112D0B690012112D22
:101833009D690012112DA26A0012112D6F6B001207
:10184300112DD96C0012112DDE6D0012112D746E45
:101853000012112DF76E0012112D0E6F0012112DB3
:10186300326F0012112D3C6F0012112D486F0012C0
:10187300112D666F0012112DAA6F0012112DFB6F2F
:101883000012112D58700012112DB9700012112D74
:10189300C0710012112DD0720012112D6F7300123E
:1018A300112D5C740012112DF3740012112D8A7521
:1018B3000012112D5A760012112D89760012112D66
:1018C300FB760012112DA9770012112DCF7700128C
:1018D300112DEE780012112D0D790012112D7C7946
:1018E3000012112DF5790012112D1B7A0012112D02
:1018F300477A0012112D927A0012112D167B0012D5
:10190300112DBD7C0012112DE67C0012112D6B7D73
:101913000012112DC57D0012112DEA7D0012112D2B
:10192300307E0012112D4D7E0012112DFB7E001210
:10193300112DC7FA0312112D12FB0312112D43C6E9
:101943000112112D7DC60112112D50C70112112D47
:1019530026C80112112D55C90112112DDECA01121B
:10196300112D5CCB0112112D22CC0112112D43CD6F
:101973000112112DB5CD0112112D17CE0112112D0A
:1019830079CE0112112D83CE0112112DC1CE011278
:10199300112D2ACF0112112DC9CF0112112D47D0BC
:1019A3000112112DFAD00112112D6CD10112112D3A
:1019B30092D10112112DC2D10112112DEFD10112B9
:1019C300112D95D20112112DA5D20112112DF8D28C
:1019D3000112112D04D30112112D10D30112112D57
:1019E30019D30112112D7CD30112112DDCD3011255
:1019F300112D2DD40112112D48D40112112D78D49B
:101A03000112112D99D40112112DA5D40112112DFA
:101A13002CD60112112D4AD60112112DB3D6011263
:101A2300112DC6D60112112DD7D60112112D6AD749
:101A33000112112D6DD80112112D63D90112112D2F
:101A4300E6D90112112DEFD90112112D52DA01122B
:101A5300112D69DA0112112DABDA0112112DF0DA11
:101A63000112112D1FDB0112112D56DB0112112D55
:101A730073DB0112112D97DB0112112DD8DB01123B
:101A8300112DCBDC0112112D11DD0112112D4CDDB5
:101A93000112112DABDD0112112DD3DD0112112D18
:101AA3000CDE0112112D1ADE0112112D7BDE011243
:101AB300112DB8DE0112112DFADE0112112D2BDFCB
:101AC3000112112D5FDF0112112D6ADF0112112D99
:101AD30088DF0112112D51E00112112D5BE001127B
:101AE300112D9AE00112112DB0E00112112D1AE10E
:101AF3000112112D2EE10112112D26E20112112DD9
:101B030039E20112112D4EE20112112DEEE2011202
:101B1300112D52E30112112D19E40112112D24E4A8
:101B23000112112D43E50112112D5FE50112112D53
:101B3300B7E50112112DEEE50112112D08E6011290
:101B4300112D7CE60112112D0DE70112112D55E720
:101B53000112112D7AE90112112DE4E90112112D5F
:101B63004FEA0112112D95EC0112112DA5EC011272
:101B7300112DA8EC0112112DB4EC0112112DC8EC9A
:101B83000112112DD0EC0112112D15ED0112112DA1
:101B9300C3ED0112112D33EE0112112D97EE011237
:101BA300112D30EF0112112DCAEF0112112DF8EF93
:101BB3000112112D97F00112112DA3F00112112D15
:101BC300D2F00112112DD5F00112112D4CF1011299
:101BD300112D3CF20112112D14F30112112D9EF35C
:101BE3000112112DBFF40112112D71F50112112DE6
:101BF300AAF50112112DDBF50112112DE4F50112E5
:101C0300112D20F60112112D07F70112112D83F763
:101C13000112112D13F80112112DDDF80112112DEE
:101C230061F90112112D97F90112112DE0F9011239
:101C3300112D09BC0312112D2EBD0312112D49BD07
:101C43000312112DA6BE0312112DE2BF0312112D93
:101C53003FC00312112D818C0312112D938C03129B
:101C6300112D078D0312112D3D8D0312112D948D0E
:101C73000312112D7B8F0312112D59910312112D74
:101C830084940312112DBE940312112DD8940312C0
:101C9300112D47950312112D83950312112DB39521
:101CA3000312112DF6950312112D00800312112D2D
:101CB30016800312112D23800312112D3C80031271
:101CC300112D69800312112D75800312112D8C8043
:101CD3000312112DB1800312112DF7800312112D60
:101CE300A3810312112D4F820312112DCE820312F1
:101CF300112D20840312112D05870312112D29891B
:101D03000312112DF48A0312112D69F10312112DFF
:101D130087F10312112DD2F10312112D1CF20312BC
:101D2300112DBFF20312112D13F70312112DCAEF58
:101D33000312112D10F10312112DCAB50312112D27
:101D430047B60312112D70B60312112D96B6031266
:101D5300112DA9B60312112D13B70312112D43B779
:101D63000312112DE4B80312112DABB90312112D77
:101D7300FDB90312112D94880112112D75BA0312A6
:101D8300112DD8BA0312112D03BB0312112D90BBD1
:101D93000312112DEABB0312112D51EC0312112D65
:101DA3006DEC0312112D19ED0312112DB8ED031271
:101DB300112DE7ED0312112DFBD90312112D65DA55
:101DC3000312112DC9DA0312112DD4DA0312112DC6
:101DD300F9DA0312112D52960312112D559603129F
:101DE300112D01970312112D2C970312112DA39777
:101DF3000312112DA08C0112112DE7970312112D3F
:101E03002E980312112D5C980312112D7C99031245
:101E1300112DB3990312112DD4990312112D299A5F
:101E23000312112DFA9A0312112D229B0312112D65
:101E3300559C0312112DF89C0312112DFE9D0312C4
:101E4300112D279E0312112D5A9E0312112DCAAE76
:101E53000312112D10AF0312112D80AF0312112D98
:101E6300A8AF0312112D6AB00312112D73B0031220
:101E7300112DC9B00312112DF4B00312112D52B15B
:101E83000312112DF1B10312112D30B20312112DD2
:101E930084B20312112DE7B20312112D0FB30312F3
:101EA300112D8BB30312112DD8B30312112D17B4B7
:101EB3000312112D4BB40312112D5DB40312112D16
:101EC3006FB40312112D8EB40312112D61B50312D9
:101ED300112DA1B50312112D12F50312112D6DFB56
:101EE3000312112D56E80312112DBAE80312112D16
:101EF300DEE80312112DE4E90312112DE29F021211
:101F0300112D0BA10212112D47A10212112D05A3B0
:101F13000212112D3FA30212112DB5A50212112D8C
:101F2300FCA50212112DA3A70212112D42A8021221
:101F3300112DA4A80212112D51A90212112D91A93C
:101F43000212112DD1A90212112D61AB0212112D12
:101F5300D3AC0212112D1FAF0212112D4DAF02127D
:101F6300112D83AF0212112D8CAF0212112DF1AF7F
:101F73000212112D73B00212112DB5B30212112DDD
:101F830067FC0312112D7DFC0312112D7DCC03126E
:101F9300112D95CC0312112D3DCD0312112D7ECDA4
:101FA3000312112D9BCD0312112DBECD0312112D42
:101FB30005CE0312112D3ECE0312112D72CE031244
:101FC300112D00D00312112D357F0012112D6B7FBF
:101FD3000012112D887F0012112DCD7F0012112DBB
:101FE300D97F0012112DE37F0012112D1CE902127B
:101FF300112D6BE90212112D79E90212112D86EAD6
:102003000212112D14EB0212112D5EEB0212112D8F
:10201300AFEB0212112D0CEC0212112D20EC021267
:10202300112DFDED0212112D83EE0212112DADEED5
:102033000212112D9EF00212112DB9F00212112D70
:10204300FAF00212112D36F10212112D8FF1021244
:10205300112DADF10212112D11F20212112DA4F363
:102063000212112DD9F30212112D04F40212112DB3
:102073000FF40212112D58F40212112DFDF4021265
:10208300112D22F50212112D2CF50212112D2FF50F
:102093000212112DA4F50212112DC1F50212112DF8
:1020A300D4F50212112D3BF60212112D6EF6021217
:1020B300112D6BFA0312112D83FA0312112DE1A6D0
:1020C3000312112D31A70312112DF7A80312112D9D
:1020D300C1AA0312112D09AB0312112D49AC03122E
:1020E300112D98AD0312112DBAAD0312112D0EAEA1
:1020F3000312112D96AE0312112DBEC70212112D1C
:10210300F2C70212112DD5C80212112D63C9021292
:10211300112DC6C90212112D08CA0212112D7FCA30
:102123000212112D16CB0212112D98CB0212112D72
:10213300D4CB0212112D98CF0212112D4ED10212BF
:10214300112D74D10212112D36D20212112D39D252
:102153000212112DFAD20212112D2FD40212112DB7
:1021630052D50212112DCDD50212112DFCD6021219
:10217300112DD4D70212112D66D80212112D3AB4A3
:102183000212112DF9B40212112D69B50212112D8B
:1021930078B50212112DFCB50212112D65B602128B
:1021A300112D67B70212112D90B70212112D41B8EC
:1021B3000212112D84B80212112DE1B80212112D51
:1021C300CBBB0212112D5DBC0212112DC2BC021237
:1021D300112D61BE0212112D17BF0212112DB6BFB0
:1021E3000212112D12C00212112D7AC00212112DEA
:1021F30094C10212112D37C30212112D69C40212A8
:10220300112D06C50212112D76C50212112D76C6A7
:102213000212112DF47F0012112DF77F0012112DE0
:10222300FAD60312112DC0D70312112DEFD70312C3
:10223300112D9ED80312112D04D90312112D75D916
:102243000312112DDDEA0312112D4EEC0312112D91
:1022530010FF0212112D21FF0212112DC7FF0212CE
:10226300112D24EE0312112D32EE0312112D87FCD2
:102273000312112D44F90312112D54F90312112DD8
:102283006CF90312112DD4F90312112DEBFE011277
:10229300112D74FF0112112DE6FF0112112D0BF404
:1022A3000312112D36F40312112D9BF40312112D79
:1022B300AAF40312112DE8F40312112DAAD3031269
:1022C300112DB8D30312112D38D40312112DFFD4BD
:1022D3000312112DB5D60312112D86F60212112DFC
:1022E30000F70212112DB5F70212112D05F8021293
:1022F300112D06F90212112D97FA0212112DF1FA7E
:102303000212112D4BFB0212112D9DFB0212112DF6
:1023130034FC0212112DCBFC0212112DF4FC02121B
:10232300112D7EFD0212112D9FFD0212112D11FEA2
:102333000212112D30FE0212112DB2FE0212112DC6
:10234300BFFE0212112D26FA0112112D79FA011284
:10235300112D8DFC0112112DC5FC0112112DEAFC6A
:102363000112112D03FD0112112D1CFD0112112D5E
:102373001DFE0112112DACFE0112112D3BE60312BD
:10238300112D7EE60312112D8FE60312112DC2E6E5
:102393000312112DF8E60312112D2EE70312112D4E
:1023A300A7E70312112DE4E70312112DEEDC03124C
:1023B300112D16DD0312112D53DD0312112D62DDD4
:1023C3000312112D81DD0312112DEBDD0312112DEB
:1023D300F4DD0312112D55DE0312112D79DE0312E4
:1023E300112D3CDF0312112D49DF0312112D5ADF8A
:1023F3000312112DFCFB0312112D19FC0312112DD5
:10240300E1C80312112D46CA0312112D53CA031238
:10241300112D69CA0312112D86CA0312112D9DCAEB
:102423000312112DB2CA0312112D36CB0312112D33
:1024330015CC0312112D5ECC0312112D6ECC031299
:10244300112DA9F80312112DCEF80312112DF7F84F
:102453000312112D1FF90312112D1EE40312112D66
:1024630045E40312112D63E40312112DD0E403128A
:10247300112DF2E10312112D0BE20312112D17E2BC
:102483000312112D2BE20312112D4FE20312112D12
:102493005BE20312112D6AE20312112D7DE2031296
:1024A300112D94E20312112DCEE20312112D00E33C
:1024B3000312112D4FE30312112D9BE30312112D70
:1024C300B3E30312112DBDE30312112DCEE3031267
:1024D300112D13E40312112D1CFB0312112DA79EC2
:1024E3000312112DD39E0312112DEF9E0312112DF2
:1024F300029F0312112D189F0312112D829F0312A5
:10250300112DB59F0312112D1AA30312112D43A4EC
:102513000312112D73A40312112DDCA40312112D28
:10252300C0A50312112DE8A50312112DFDA5031259
:10253300112D0DA60312112D4EA60312112DA3A6C4
:102543000312112DB3A60312112DD4F20312112D70
:10255300EFF20312112D18F30312112D32F30312AC
:10256300112D57F30312112D76F30312112D8FF34F
:102573000312112DBEF30312112DD9F30312112DE2
:10258300B8FB0312112D18D00312112D1FD0031203
:10259300112D2CD10312112D5ED10312112D84D1D3
:1025A3000312112DB7D10312112DC9D10312112D0D
:1025B30004D20312112D74D20312112DB1D20312BE
:1025C300112DFED20312112D2CD30312112D4CD336
:1025D3000312112D88DF0312112DC4DF0312112DF5
:1025E300C7E00312112DEFE10312112D13F60312AD
:1025F300112D71F60312112DB0F60312112DF1F600
:102603000312112D10C50312112D2FC50312112D05
:1026130078C50312112D94C50312112DC5C50312DC
:10262300112DDCC50312112DE9C50312112D06C6A8
:102633000312112DF3C60312112D2AC70312112DF4
:1026430034C70312112D41C80312112D4CC80312B4
:10265300112D5EC80312112D67C80312112D71C805
:102663000312112DA3C00312112D90C40312112DB7
:102673009EC40312112D38FC0312112D0AF8031204
:10268300112D33F80312112DE1FF0212112DDEF982
:102693000312112D07FA0312112D1AD90212112D4B
:1026A300F2DD0212112DA4870112112D14870112DC
:1026B300112D63860112112D89850112112D3B8580
:1026C3000112112D18850112112DDB840112112D18
:1026D300A0840112112D988C0112112DEF8B011280
:1026E300112D7C840112112D61840112112D808B17
:1026F3000112112DED8A0112112DF0830112112DFA
:102703001E830112112D91820112112D25820112B6
:10271300112D06820112112DF4810112112DB79F83
:102723000212112D999F0212112DAA9E0212112D30
:102733000E9E0212112D9C9C0212112D199A021247
:10274300112DA8990212112D7E960212112D569663
:102753000212112DF9950212112DE1950212112D7C
:102763002C950212112DCD940212112D22930212D7
:10277300112DC6920212112DC3920212112DE38A5A
:102783000112112DD18A0112112DA48A0112112DCA
:10279300D0910212112DB0910212112D009102124B
:1027A300112D828F0212112D72890112112D498F61
:1027B3000212112D1A8F0212112D178F0212112DD1
:1027C300098F0212112DF58E0212112D4D8901125E
:1027D300112DFB880112112DC7970312112DE88EBD
:1027E3000212112D008E0212112D8C8D0212112D49
:1027F300528D0212112DFA8C0212112DC98C021264
:10280300112DF9890212112DED890212112D608902
:102813000212112DAE880212112D4D860212112DB6
:10282300B6830212112D80830212112D2682021209
:10283300112DD9810212112D12810212112D008046
:102843000212112D67800212112DD7880112112D4A
:102853003A800212112D38BA0300000080FBE473A2
:102863000000000000000000000000000000000065
:10287300000000F8000000000000003330000000FA
:1028830000100C06100C0600000000000000000001
:1028930040C07840C0784000043F04043F04040073
:1028A300007088FC08300000001820FF211E000083
:1028B300F008F000E018000000211C031E211E0098
:1028C30000F00888700000001E212324192721101E
:1028D30010160E00000000000000000000000000C1
:1028E300000000E018040200000000071820400068
:1028F30000020418E0000000004020180700000058
:10290300404080F0804040000202010F01020200BB
:10291300000000F0000000000101011F010101009F
:10292300000000000000000080B070000000000004
:10293300000000000000000000010101010101018D
:102943000000000000000000003030000000000024
:1029530000000000806018040060180601000000F9
:1029630000E010080810E000000F102020100F00F6
:10297300001010F8000000000020203F202000007D
:1029830000700808088870000030282422213000D5
:1029930000300888884830000018202020110E00DD
:1029A3000000C02010F8000000070424243F240086
:1029B30000F80888880808000019212020110E005B
:1029C30000E0108888180000000F112020110E006D
:1029D30000380808C83808000000003F0000000065
:1029E3000070880808887000001C222121221C0026
:1029F30000E010080810E0000000312222110F004F
:102A0300000000C0C00000000000003030000000E3
:102A13000000008000000000000080600000000053
:102A2300000080402010080000010204081020006C
:102A330040404040404040000404040404040400B7
:102A4300000810204080000000201008040201004C
:102A5300007048080808F00000000030360100004C
:102A6300C030C828E810E0000718272423140B00FF
:102A73000000C038E0000000203C23020227382079
:102A830008F8888888700000203F202020110E005D
:102A9300C030080808083800071820202010080054
:102AA30008F808080810E000203F202020100F003D
:102AB30008F88888E8081000203F20202320180009
:102AC30008F88888E8081000203F20000300000071
:102AD300C03008080838000007182020221E020012
:102AE30008F808000008F808203F210101213F20D1
:102AF300000808F8080800000020203F20200000FC
:102B030000000808F8080800C08080807F000000EB
:102B130008F888C028180800203F20012638200024
:102B230008F8080000000000203F2020202030008B
:102B330008F8F800F8F80800203F003F003F2000A5
:102B430008F830C00008F808203F200007183F00AD
:102B5300E01008080810E0000F10202020100F00DC
:102B630008F808080808F000203F210101010000CF
:102B7300E01008080810E0000F18242438504F0014
:102B830008F8888888887000203F2000030C3020D4
:102B930000708808080838000038202121221C0012
:102BA300180808F8080818000000203F200000005B
:102BB30008F808000008F808001F202020201F0044
:102BC3000878880000C83808000007380E010000A4
:102BD300F80800F80008F800033C0700073C03006E
:102BE300081868808068180820302C03032C3020D4
:102BF3000838C800C83808000000203F2000000043
:102C030010080808C838080020382621202018009A
:102C1300000000FE020202000000007F404040006E
:102C2300000C30C000000000000000010638C000A6
:102C330000020202FE000000004040407F0000004E
:102C43000000040202020400000000000000000073
:102C53000000000000000000808080808080808071
:102C63000002020400000000000000000000000059
:102C730000008080808000000019242222223F204F
:102C830008F8008080000000003F112020110E0092
:102C93000000008080800000000E11202020110021
:102CA300000000808088F800000E112020103F20D3
:102CB3000000808080800000001F22222222130057
:102CC300008080F0888888180020203F20200000A2
:102CD3000000808080808000006B94949493600057
:102CE30008F8008080800000203F210000203F2062
:102CF30000809898000000000020203F2020000062
:102D0300000000809898000000C08080807F000051
:102D130008F8000080808000203F24022D3020002E
:102D2300000808F8000000000020203F20200000D9
:102D33008080808080808000203F20003F20003FF3
:102D43008080008080800000203F210000203F2001
:102D53000000808080800000001F202020201F00B2
:102D6300808000808000000080FFA12020110E00E1
:102D73000000008080808000000E112020A0FF80D2
:102D8300808080008080800020203F21200001007F
:102D930000008080808080000033242424241900D4
:102DA300008080E0808000000000001F20200000E1
:102DB3008080000000808000001F202020103F2022
:102DC300808080000080808000010E3008060100B2
:102DD30080800080008080800F300C030C300F0057
:102DE30000808000808080000020312E0E31200082
:102DF300808080000080808080818E7018060100B2
:102E030000808080808080000021302C22213000CF
:102E130000000000807C020200000000003F4040F0
:102E230000000000FF00000000000000FF000000A1
:102E33000002027C800000000040403F00000000D0
:102E4300000601010202040400000000000000006B
:102E530000013636010100010201000103010001F6
:102E63000401060605020000070100340801000FF3
:102E7300090401010D0100FF0E0800001702000004
:102E8300190100FF1A0100011B0100FE1C010008CB
:102E93001D0200001F0100012001000121020000AA
:102EA3002301000F2402000026010001270100086E
:102EB300280200FF2A0100072B0102402C01000019
:102EC3002D0100012E0100012F0100FF30010B1C19
:102ED300310800003A0100083B01000F2F010000F8
:102EE300010371030103010301030103010322032E
:102EF30002030103100300030003000300030003A4
:102F0300000300034203000324030603000300033A
:102F130004031203250323032503230304030403E8
:102F2300000300030003440300030003230300031F
:102F33006503210035038103000305030003000338
:102F430000030302710230016002110270020102E8
:102F5300020202028002100261023A00410063028F
:102F6300730272026202430200021302380000027B
:102F73000002040212020002000200020002040224
:102F83000402370037003C02440200023900000209
:102F9300000265020002350281020002050282027C
:102FA300830200020101710101010101110101010B
:102FB3003101010101018001100161013B00140095
:102FC30063017301720162014301000113010601F0
:102FD3003D0135000401120100010001000100015F
:102FE30004010401330133013C0144013201360081
:102FF30000010001650100013500810100010501A7
:1030030082018301000103047104020460041104BA
:1030130070040204020401040204100461040004A5
:103023001404630473047204620443040004130469
:103033000604000400040404120400040004000451
:103043000004510464000004000400044404000468
:1030530000040004000465040004350481046400D2
:1030630005040004830400040300710030016000C0
:103073001100700031022003500480001000610031
:10308300000014006300730072006200430000003C
:1030930013000600000000000400120000000000FE
:1030A3000000000004000400370037003C02440025
:1030B30000000000000000006500000035008100F2
:1030C3000000050000008300000036000100060038
:1030D30000000F00000000000000000000000000DE
:1030E30003FFFF00000403FFFF0000FFFF0FF401D5
:1030F3000005C4040320000100000B0000000000D1
:1031030000000003010F0000BA2113005A2101003F
:10311300BA21020012210300182104001E21050018
:1031230024210600302111004E21140054211500E2
:103133004221FFFF000001EC160616170810170BBB
:10314300281710561602F21605041707F8160CCEA8
:10315300160DE016FF00007C1AAC1A821A881AA614
:103163001A9A1A941AB21AB81ABE1ACA1A8E1A7668
:103173001A701A00160F00000B150B020002220F23
:10318300320000066C1B7E1B841B461A8A1B401AE6
:103193004C1ACC1BEA1BF01BD21BDE1BD81B80195D
:1031A3007A19B619BC19B019681900034948424D78
:1031B3001817250502000119161816161523030002
:1031C3000C0E020B040B0A0708000F3030161819F7
:1031D30020231A1C1E30303017181921301B1D1FD5
:1031E3003000383C3E363B3B352B432CC01B901BF9
:1031F300961BA21B9C1BA01AC41AE41BD01AD61A36
:103203000204020101010109028C1992198619C2F3
:10321300190005150D091008040000000000000046
:10322300BE040A9819AA195000040038000E002899
:10323300000309010C100A0309000008FF1E1E32D7
:10324300040805C082C083E99003CDF0E4900382B3
:10325300F01225D49003E1E4F0A3F09003CEF0A3A1
:10326300F01218D212284A1215AE1225DA90034230
:10327300E4F0A3F09003F3E07002A3E0600990038D
:10328300F312679E122861903242E493FA79021294
:1032930026460257AF74F2120C08EAFEEBFF748065
:1032A3005FF9E47001E960619003CDE0F9121E7EDD
:1032B3008A088B09EA7001EB60467B0080010BEB07
:1032C30075F003A42439F8E5F03431F98882898351
:1032D300E493FA74FF6A6021850882850983E06AB2
:1032E30070DCAA08AB0988828983A3E493C0E074E5
:1032F3000193F583D082122861AA08AB09121E72CA
:10330300EEFA74806FFB0234D874205FF9E4700125
:10331300E9601D1217A68A088B09EA7001EB600A9F
:103323001216E0AA08AB09121E72EEFA742080D4BA
:10333300EE54207003023409750C00125415700109
:10334300EB700B7C027D007A207B001278417C00BD
:1033530079047A007B001217708A088B09800D7438
:103363000188828983F0850A08850B09E5087002C4
:10337300E509606D7C007904AA08AB091217708A0D
:103383000A8B0B750C01E508240412789324FFF0D3
:10339300A3E034FF127AF97002A3E070C9E50824B0
:1033A30009F8E5093400F9850882850983A3A3A3F5
:1033B300A3A3A3A3A3A3A3E0640170A385088285A9
:1033C3000983A3A3A3A3A3A3E05404709274068860
:1033D300828983F07AB78508828509831236238030
:1033E300851217407C0079017A007B00121770EA7E
:1033F3007001EB7009E50C70057A201234E4742037
:103403006EFAEF023308EE541060071215E47410DD
:1034130080EEEE5440600712163E744080E2EE5494
:10342300806007121500748080D674015FF9E47020
:1034330001E9601A9003F5E07002A3E060099003CC
:10344300F512679E122861EEFA74010233077408BD
:103453005FF9E47001E9602D1215BA90126BE06414
:1034630001701B90126CE06015FC75F0E8A4CCAA07
:10347300F075F003A42AFD7A007B08127841EEFA76
:10348300740802330774105FF9E47001E960129065
:1034930003DFE06005E4F01215BAEEFA74100233AC
:1034A3000774025FF9E47001E9600A1218CCEEFABE
:1034B300740202330774045FF9E47001E9601212C5
:1034C3006B411269977901124638EEFA740402339C
:1034D300077A007B00800574031211787F06020EC1
:1034E300E17B009003CDE0F9121FB02274F7120CB8
:1034F3000874E11211F6EAFEEBFFEE7001EF6033A0
:10350300851882851983AC82AD831217D074061295
:103513001445E0601E7417121445E0FD7401121483
:1035230045E0FCEEFAEFFB7900122724E960047909
:10353300A48002790002590474F5120C08EAFEEB28
:10354300FF8E828F83A3A3A3A3A3A3E05440601899
:103553001271AB60067AFF7BFF806A8E828F8312C3
:103563005CD7FAA3E0FB805390036DE0A2E15048DF
:10357300126ED7241CF8EB1254007508FE7509FF70
:1035830078081211651241D4120F5979008C828D7B
:1035930083126DCBA3A3A3E0F5088C828D83126BFA
:1035A3002EA3A3E0FDAC088A828B8312647F1215DD
:1035B300C0740412117880031217F474FE6A700346
:1035C30074FF6B604312679A126CC8121872E98E0B
:1035D300828F83600612361CE4800512361C740148
:1035E300F07CB07D168E828F8312647F122640E9B1
:1035F300F5087017EE7001EF60097901EEFAEFFB41
:1036030012174CA90802703A7508CDAA088E828F4A
:1036130083123623E960DD80EAE0240D125F332252
:10362300E0240C12594FF91216BC2274F6120C083E
:10363300E9FEEAFF7A0F7B00121E6CEA7001EB6071
:1036430019740C8A828B83F0EEA3A3F0EF8A828B2A
:1036530083A3F012698879008028EEF91217768A1D
:10366300088B09A808A909E87001E96013740688A2
:10367300828983127AFEE0F9121650EEF91217527C
:103683007910026795EAFCEBFD7A017B009003CD8C
:10369300E0F9121FA422C082C0837900EA241DF539
:1036A30082EB1241DA12647F90036DE0A2E18A8219
:1036B3008B83E0500E12103701010AC33600D73650
:1036C300098011121037010304C3360207C3360AF7
:1036D300C336D7360257AF74EE120C08EAFEEBFF7F
:1036E3008C088D09890E7412121445E0F510A3E0BD
:1036F300F511851082F583E4F0A3F012380CEE2463
:103703001DF8EF3400F9880C890D88821238256082
:103713001F850A82850B83123AE47014850A828519
:103723000B83125A8F851082851183126997800348
:10373300750E00850C82850D83125CD7120F1F0155
:1037430009AB375A37723780378B37AB37B537AB5F
:1037530037CF37E837FB377810121165AC08AD095E
:10376300EEFAEFFB1215CC7402121178023804AC96
:1037730008AD09EEFAEFFB1215D2023807A90EEED7
:10378300FAEFFB12188A8079127C7A64027019E5C9
:103793000E700A1238197003A3E0697067EEFAEF2E
:1037A300FBA90E1218428059750E0079011225E605
:1037B30080521238197003A3E06970EC127C7A64AA
:1037C3000270E5EEFAEFFB12182A80389003F7E057
:1037D3007002A3E0602EEEFAEFFB9003F712679EF0
:1037E300122861801F1238197003A3E06970B9EEC3
:1037F300FAEFFB121896800CEEFAEFFBA90E1218E3
:10380300A2E9F50EA90E0253F1EE2409F8EF3400F4
:10381300F9880A890B22850A82850B83127033E0AB
:103823006822F583125CDBF9121854E92274ED1255
:103833000C0874DE1211F68A088B09EA2402F510CB
:10384300EB1260AFF91217768A0A8B0BAE0AAF0B35
:10385300EE7001EF7003023917E508240C126CA314
:10386300123A4224061241CC850882850983A38536
:103873008208858309E064F16017E064CD6012E09B
:10388300641A600DE064E96008E064E160030239F2
:10389300A1850E82850F83A3E05408F9E47001E942
:1038A300607F7405850A82850B83F09003FBE070CB
:1038B30002A3E060099003FB12679E122861900344
:1038C300FDE07002A3E0603390036DE0A2E1502BB2
:1038D3008E828F831271A5A3A3A3A3A3A3A31259BB
:1038E3000E1241E6EA7001EB6011850882850983B7
:1038F300E0F99003FD12679E122861850A82850B09
:1039030083E0640270037406F0851082851183E0FE
:10391300F912175212174074221211787F0B020EFC
:10392300E1790012174CE9607590036DE0A2E14064
:10393300030238AE1275717002A3E070030238AE51
:103943007403121445127558850882850983E0644F
:10395300E9701A123A4A121169850882850983E0CF
:10396300F5127812121169124AE7121178740C12C7
:10397300144512647F12679A126CC87900740E1290
:103983001445125CB1740C121445124216700302F2
:1039930038AE850E82850F83125CBB0238AD850875
:1039A30082850983E0C0E07402121445D0E0F0126E
:1039B30076EFEE240B127C7D851882851983AA820B
:1039C300AB837005121536800312184E740212145D
:1039D30045E064E97014123A4A1211697512E978E4
:1039E30012121169124AE712117890036DE0A2E1F5
:1039F30040030238FE850A82850B83E06402702748
:103A0300850E82850F83E05404601C1271AB701322
:103A130012679A74FFF0A3F07405850A82850B83FD
:103A230002390B740380F3850882850983E064E916
:103A330060030238FEEEFAEFFB1218A80238FEEE1E
:103A4300240912784AEE22126EDC751201781222D2
:103A530074F5120C088A088B09750A00EA24091206
:103A63005A82FEE9FF8E828F83123AE47003750A4D
:103A7300018E828F8312638D7003A3E06B7006E562
:103A83000AD2E1F50AE5082402FEE5093400FFE560
:103A93000A60138E828F83E07006E50AD2E5800404
:103AA300E50AD2E6F50A121872E964017006E50A1E
:103AB300D2E0F50A8E828F83E06017E508241DF5B6
:103AC30082E509340012382564016006E50AC2E084
:103AD300F50AE50AA2E14004D2E7F50AA90A027051
:103AE3003A1271B6640222C082C08379018A828B42
:103AF30083A3A3E0C394024001198A828B83A3A307
:103B0300A3A3E0C39402400279008A828B83A3A318
:103B1300A3A3A3A3A3A3A3125CB174F86C7003744F
:103B2300FF6D601E74F96C700374FF6D601474FA9A
:103B33006C700374FF6D600A74FB6C700374FF6D2B
:103B4300700279008A828B83A3A3A3E0FC900370A5
:103B5300E06C60027900903241E493C39480501882
:103B6300E493C333C0E0EA2411F582EB127C80FABC
:103B7300D0E0C39A500279000257AF74E8120C08E0
:103B830074DC1211F6EAFEEBFF7403121445126A99
:103B93009A7514007515007405121445AC82AD8333
:103BA3008E828F83A3A3A3126CB412647F1217D0E7
:103BB300E9600F7405121445AA82AB831216DAE981
:103BC300700879011225E60241C2EE241B125A89BC
:103BD3007412121445126997740B121445E0602392
:103BE300741C121445E0FD7406121445E0FC8E8229
:103BF3008F83A3A312647F7901122724E9600479D8
:103C03000280C17405121445AA82AB831216D4E94B
:103C1300F508740B121445E0702990036AE06023E1
:103C2300742255086422601B74425508644270CFA5
:103C33007422121445125CD7FA74066A600574077D
:103C43006A70BCE9A2E650127405121445AA82AB4D
:103C5300831216C2E97003023BC5EE2412F516EF78
:103C63003400F517EE242A123A45242C1241D712B8
:103C730047F9E0687003A3E069701C7509007809CF
:103C83001211697809121169EE242E1241DE1241D4
:103C9300F2124AF7121178740B121445E070030202
:103CA3003D3C1241F21241E68A0A8B0BA80AA90B8A
:103CB300E87001E97003023DE074061214451241F5
:103CC300EDFAA3E03400FB740D2AF582E43BF5839F
:103CD300E0FAE82404F50AE912784DE82403F582B2
:103CE300E9127C806A600DEAF09081D4780C12139B
:103CF300C1124237790474061214451241EDFCA334
:103D0300E034008C82F583A3AA82AB83121E608AFF
:103D13000C8B0D8C0E8D0F850A82850B8378101208
:103D230013C17810790C1213A150030241C2908180
:103D3300C0780C1212C6124237EE24241241CCEE84
:103D43002430F50CEF126CA7EE242F12784A90035F
:103D53006DE0A2E15003023E79900382E0FA74041D
:103D63006A600874096A60030241C2E508A2E5407B
:103D730003023E2612421EC0E07401121445D0E035
:103D8300124B21C0E07402121445D0E0F0741612F5
:103D93001445E0640170207410121445124202703D
:103DA30003A3E0697011740E121445123AE470070C
:103DB3007416121445E4F0850E82850F83120F5595
:103DC3007404121445AC82AD837409121445AA829B
:103DD300AB8312153C74041211780241C29003C7DD
:103DE300E064016003023D3C7422121445125CD767
:103DF30064067009E508A2E65003023D3C74121202
:103E03001445E064FF7004A3E064FF70030241C241
:103E1300EEFCEFFD7405121445AA82AB831216E67D
:103E23000241C2A2E640030241C2742212144512A7
:103E3300420E701E741C121445E0640260030241BA
:103E4300C27405121445AA82AB8379001218420288
:103E530041C274076A60030241C2741C121445E034
:103E6300640460030241C27405121445AA82AB8341
:103E73001218360241C27416121445E0601D8E8278
:103E83008F83A3A3124B1314126281A3124B13C08B
:103E9300E07416121445D0E0F07006E508C2E7F5A9
:103EA30008900382E0FA74046A600574096A706119
:103EB300740E12144512638D7003A3E06B60171226
:103EC3001872E96402600F740A121445E054036423
:103ED3000160030241C27407121445E0701B1242D1
:103EE3001EC0E07401121445D0E0124B21C0E074EF
:103EF30002121445D0E0023DB97422121445124255
:103F03000E7003023E3774076A60030241C2023E29
:103F13005D75090074615508700302402DE508A220
:103F2300E05070851682851783125CB174051214F4
:103F330045AA82AB83121644E97055121800E9F5BD
:103F4300097416121445E0700F74101214451242CE
:103F5300027003A3E069603BA90985168285178374
:103F6300125CB17405121445AA82AB8312164AE996
:103F73006013740E1214451270B31214451269972C
:103F8300751404800EE508C2E5F508750900800381
:103F930053089FE508A2E5503C12421EC0E074019D
:103FA300121445D0E0124B21C0E07402121445D024
:103FB300E0F0850E82850F83120F557404121445A9
:103FC300AC82AD837409121445AA82AB8312153CEB
:103FD3007404121178E508A2E640030240FA740360
:103FE30012144585820A85830B780A121165A90983
:103FF300851682851783125CB17407121445AA8251
:10400300AB831216C87402121178E9F50970030222
:1040130040FA7422121445125CD764016003024013
:10402300FA74104514F5140240FA7407121445E0AB
:104033006401703B7422121445125CD76405702F1F
:104043007403121445858208858309780812116563
:104053007900851682851783125CB17407121445A3
:10406300AA82AB831216C874021211780241C27479
:1040730016121445E070127422121445125CD764B0
:10408300036003023E130241C2121746E9600302B2
:1040930041C2740E1214451270B31214451269977B
:1040A3007809121169741E121445AC82AD83740F22
:1040B30012144512647F740A121445E0F91216862D
:1040C3007401121178E9600F7514208E828F83A317
:1040D300A3125CD7543FF079007410121445125C9C
:1040E300B1740E121445124216600674204514F57D
:1040F30014121800E9F5097403121445E064FE7004
:1041030004A3E064FF7003750900E508A2E7400318
:104113000241C2E50970030241C28E828F83A3A3C9
:10412300A3A3E0FA7B00121EF08A0A8B0BEA70014C
:10413300EB70030241C28E828F83A3A3E0F50CA32D
:10414300E0F50D750E00780C1211618E828F83A33A
:10415300A3A3A3E0FC7D001251031211787407128C
:104163001445E0851882851983F07401121445E41F
:10417300F0A312616985820C85830D780C12116599
:104183007814121165E509F5087808121169851686
:1041930082851783120F598E828F83A3A3A3A3E073
:1041A300F9740A121445125CB1AA0AAB0B1217BEBA
:1041B3007407121178E96007AA0AAB0B121EF67492
:1041C300241211787F10020EE1F50EEF3400F50F83
:1041D30022EE240EF582EF1278BE22F582EF126BE7
:1041E30069F9221259491218F6221274A62A228555
:1041F3000A82850B83125AA585168285178322129C
:104203005DAF851682851783E06822125CDBFA7442
:10421300046A221259491215C6E922EE242E126BA2
:104223006685188285198312422E22F0850A8285BB
:104233000B83E022850A82850B83E50CF0A3E50D51
:10424300F0A3E50EF0A3E50FF02274F2120C08EAD6
:10425300FEEBFF8C088D0912380C8882F5831264FB
:104263007F90126BE06011900373E06A7003A3E028
:104273006B70051215BA805379001216628A828B0D
:1042830083E5827002E583603AA3A3A3A3A3A3E01B
:104293005418602FE508241BF582E5091241DA1250
:1042A3000F59E5082412F582E5091241DA120F5974
:1042B300EE24181241DE1242D11216927404121126
:1042C30078800879001242D11215DE0234DF850AA4
:1042D30082850B83125AA5EE240B1259422274EEE7
:1042E300120C0874EA1211F68A0C8B0DEA2402F5FB
:1042F3000EEB1241CF0A0AFB12277E8A088B09AE06
:1043030008AF09750901850C82850D83A3E0F508C3
:10431300750A01AC0EAD0F851882851983AA82AB8D
:10432300831225FE7408121445126A9A740A121431
:10433300457402F07413121445E4F0E50C240AF5F5
:104343000CE50D126CA7901DB6E07010EE7001EF36
:10435300700AE50870067509C30244B7900382E04A
:10436300640860067509C20244B3850C82850D8317
:10437300E0A2E1500EA2E35005750A04800C750A11
:10438300038007A2E35003750A02EE7001EF606435
:104393008E828F83A3A3A3A3E0FA74046A600574D7
:1043A300036A700C7404650A601C7403650A601662
:1043B30074026A600574016A70207402650A6006FB
:1043C3007401650A700F8E828F83124DFB121445A0
:1043D300126997801F74026A600574016A700A8EFD
:1043E300828F83124F58122861AA0EAB0F1226EE4A
:1043F3007E007F007408121445E064FE7004A3E09D
:1044030064FF7038121D76E97032E5086017900377
:10441300BFE06402700F901DBD124DFB121445E8FE
:10442300F0A3E98016850C82850D83E05402F9120E
:1044330015F07408121445EAF0A3EBF07408121493
:1044430045124557700374FF6B70057509C780608B
:10445300E508F50B780B121169850C82850D83E055
:10446300F9AC0EAD0F1215547401121178E97040B6
:10447300A90AAC0EAD0F74081214451246318A1006
:104483008B11AE10AF11EE7001EF601C7402650862
:10449300700BEE2405127C7D54FB4408F0740A1261
:1044A3001445E4F0F50980087408121445126A9A59
:1044B300E508700F851882851983AA82AB831226BB
:1044C300228010FCA90A851882851983AA82AB83EE
:1044D300121830E9FAEE7001EF603EEE2405F8EFB2
:1044E3003400F9E508601288828983E0D2E6F0742B
:1044F3000265087004E0D2E5F0850C82850D83E047
:10450300A2E6500888828983E0D2E7F08E828F8307
:10451300A3A3A3A3A3A3E004F0E5097003EA602F18
:10452300FC7D007A017B101225E0EE7001EF60073D
:10453300AA0EAB0F1226EE740812144512455770DB
:104543000374FF6B600990035A12679E122861740B
:10455300160253EE12594974FE6A2274F6120C08BD
:1045630074F71211F68A088B09900382E0FA740338
:104573006A600D74016A600874096A600302462E5A
:104583008508828B83A3AE82AF83E0600302461368
:104593007C007D007A027B001225E0E508240212EC
:1045A300540712702F126997795312261679001245
:1045B3004638900382E06409600990038012647FA7
:1045C3001218F074011267CB7404900382F0740123
:1045D300121445AA82AB83794A122610740112146D
:1045E30045AC82AD837A787B031225FE7900740192
:1045F300121445AC82AD8390037612463190036D5D
:10460300E0A2E35004D2F08002C2F01267B3801834
:10461300FC7D007A037B101225E08E828F83E0F904
:10462300124638E4900382F012172202679012595F
:10463300491227A82290038012594912154E22C00D
:1046430082C083900342E07002A3E0704190038232
:10465300E012103700030164460573460682469153
:104663004690034AE07002A3E0607690034A806BB1
:10467300900346E07002A3E06067900346805C907D
:104683000348E07002A3E06058900348804D900314
:1046930042E07002A3E06009124B10FC74016C70DD
:1046A3002379009003CE800909EA1272C3EB124109
:1046B300DA1256DF7001EB70EF9003CE12647F12B3
:1046C3001542801D74026C70051218C0801390038C
:1046D300F9E07002A3E060099003F912679E1228C3
:1046E300610257AF74F4120C0874FB1211F68A08B6
:1046F3008B097A0F7B00121E6C8A0A8B0BAE0AAFF2
:104703000BEE7001EF70030247F474028E828F8305
:104713001270407950122610850882850983A3857B
:104723008208858309E060030247DD9003801278E5
:1047330062700374FF69602F74FE68700374FF690D
:104743006025851882851983E0687003A3E069609A
:104753001674EA850882850983124CD57A807B0317
:10476300795012261680738518828519831247F9AA
:104773001269977A737B037953122610900373128D
:1047830069917A767B03794B1226107A757B0379CC
:10479300E1122610900387E0C3940F502290037513
:1047A300E0C0E07402121445D0E0F0740412144522
:1047B3007401F07402121445AA82AB8312263A756F
:1047C3000A00780A121169780A121169901EB2E080
:1047D300F91251A9124AF7121178850882850983C3
:1047E300124AD3F07403900382F0EEFAEFFB1269DE
:1047F300887405026326125DAF9003802274EC1265
:104803000C0874ED1211F68A828B83A3124AD8EA3C
:104813002408125A82FEE9FF851882851983AC8227
:10482300AD838E828F83124B00A3A3A3A312647F55
:10483300121734851882851983E070768E828F83F0
:10484300E0C3940B406C850882850983A3A3A3A3CB
:10485300A3A3A3A3E064027059900382E0FAE508DE
:104863002410F510E5093400F511E5082409126C4C
:10487300A374026A604174066A603C900342E0706C
:1048830002A3E06007124B106401605474086A606D
:104893000574046A701C7402121445E0F97407125B
:1048A3001445AC82AD83850C82850D8312647F121F
:1048B300173A7413027425900342E07002A3E07068
:1048C3001F750A00780A121169780A121169851096
:1048D30082851183124ACA12540F124AF7121178B1
:1048E3009003CE1278E89003CE12741DE508240DD0
:1048F300F50EE5091241CF80318E828F83E0F8A354
:10490300124ACAE0687003A3E06970128E828F8333
:10491300A3A3E0FA850E82850F83E06A606B8E0A9B
:104923008F0BEE1272C3EF1278E5EE7001EF70C9D0
:104933007A187B00121EF08A128B13AE12AF13EE9D
:104943007001EF70030248B57C18127A3D126A9128
:10495300EE240C1241D774FFF0E508240B12789370
:10496300124AC1127AF8C4124AC1A3A3F09003CE2B
:10497300E07002A3E070059003CE800AE50A12728C
:10498300C3E50B1241DA1276F57401121445124A8B
:10499300E2A3F07402121445124AE2F0850E8285F6
:1049A3000F83124AD3A3124B21124AB812628C24EA
:1049B3000DFAEF3400FB7402121445E06401600E3B
:1049C3007407121445AC82AD831225FE80097C085E
:1049D3007D0079FF121E5A7412121445E0C0E0EEF6
:1049E30024151241D7D0E0124B18FC901EB2E0C33D
:1049F3009C40030248B5127870E5091241DAA3E03E
:104A03005480F9E47001E9700990118CE07003029D
:104A130048B57D00EE240CF8EF3400F9EE240BFAD0
:104A2300EF3400FB9003BFE06402701D8A828B8326
:104A3300E0F50AC39C500D7405121445E0C39405B8
:104A4300401B801AE50A6C70157405121445E0C00A
:104A5300E088828983E0FCD0E0C39C50010D74049C
:104A6300121445E06020ED601D85088285098312DC
:104A7300704CECF0A3ED124B188A828B83F0740513
:104A8300121445125CCC7406121445E0600D7401D7
:104A93008E828F83A3A3A3A3A3A3F074041214454C
:104AA300E070030248B574018E828F83A3A3A3A38E
:104AB300A3F00248B5F8A3E0F98E828F8322540F46
:104AC3008E828F83A3A322E0F9850C82850D832236
:104AD300125033A322A3A3E0F508A3E0F5092212A1
:104AE30050338021850C82850D83124B00125AA10D
:104AF3008A828B83125949121806740222E0F98ABA
:104B0300828B838002A3A3A3A3A3A3A32290034224
:104B1300125F43E022F0851082851183E022F08545
:104B23000C82850D83E02274F6120C0874C91211ED
:104B3300F6900382E064086062900393E0F824A691
:104B4300F582E4341EF583E0FA900364F0E824ACC4
:104B5300F582E4341EF583E0FB900362F07508FFF1
:104B63007509FFEA78081212FFE508F4FCE509F479
:104B7300FD3395E0FE90038B124CCA7508FF75094F
:104B8300FFEBC39A78081212FFE508F4FCE509F479
:104B9300FD3395E0FE90038F124CCAE41267C1798E
:104BA30004122616900393E07009741E12144574C0
:104BB300018006741E121445E4F0740F8518828573
:104BC3001983F0901DBB12704079461226167401AA
:104BD300121445E4F0901E91E0C0E07402121445F3
:104BE300D0E0F0900370E0C0E07403121445D0E00D
:104BF300F07404121445E4F07405121445E4F074DF
:104C030007121445E4F0900393E0FAC3940F74067B
:104C13005006121445EA8005121445740FF07C9473
:104C23007D037408121445AA82AB831225FE7C030C
:104C33007D0079FF7410121445AA82AB83121E5AA9
:104C43009003CCE0C0E07413121445D0E01268C1A5
:104C53001214451268B012181E900387E0C0E07466
:104C63001C121445D0E0F0900388E0C0E0741D12DC
:104C73001445D0E0F0900375E0C0E0741A121445B7
:104C8300D0E0F0900380125A8F7418121445126901
:104C9300977420121445E4F090038AE0C0E0741F77
:104CA300121445D0E0F07434121445E4F074291260
:104CB3001445E4124CD57414121445AA82AB831222
:104CC30026347437026792ECF0A3EDF0A3EEF0A361
:104CD300F022F07A737B037953124CE022122616EA
:104CE3007A767B03794B12261622C082C0838A828E
:104CF3008B83A3E06007E4900382F0804A740890FA
:104D03000382F0900393E0701F90034CE07002A3C2
:104D1300E0600B790090034C12679E1228619003A8
:104D230080125CB17A05801A7900121548900373DA
:104D3300125CB17A067B001225E0900376125CB117
:104D43007A047B001225E00257AF74F4120C087446
:104D5300EA1211F6EA2402FEEB3400FF0A0AFB1200
:104D6300277E8A088B09EA7001EB7003024DF68AED
:104D7300828B83125F25600F74026A600A74036A70
:104D8300600574046A706CEEFCEFFD85188285196A
:104D930083126E5E124DFB121445126997740A1248
:104DA30014457401F0741312144512703F1226282F
:104DB300890AAC0A7D007A077B001225E085088208
:104DC300850983A3A3A3A3A3E0C2E0F0740185082C
:104DD30082850983A3A3A3A3A3A3A3A3A31278C335
:104DE300120943E8850882850983A3A3A3A3A3A388
:104DF300A3A3F07416026326125DAF74082274F045
:104E0300120C0874F81211F68A0C8B0D8C0A8D0B98
:104E1300890E851882851983AC82AD83758381756C
:104E2300826474081210A7F50FAC0CAD0D851882BF
:104E3300851983AA82AB831274CF7003750F019017
:104E430003CE8030AC0CAD0DEE240DFAEF3400121E
:104E53007AEB601A850882850983E0650E700F8EF0
:104E6300828F83E0650A7004A3E0650B6032EE2451
:104E7300161241D71257A37001EF6024EE240212D9
:104E830053F6E50F70BE8E828F83E0650A7004A32C
:104E9300E0650B70D9850882850983E0650E70CEC5
:104EA300EEFAEFFB02627774F7120C089003CEE080
:104EB300FAA3E0800CEA24161278E2121EF6EEFA48
:104EC300EFFBEA7001EB70ED9003CEE4F0A3F00288
:104ED300590974F4120C088A088B09EA240BFEEBB7
:104EE3003400FFEA2413F582EB127C80640370091B
:104EF300EEFAEFFB12277E800CE0640270548E8280
:104F03008F8312789FEA7001EB6047EA2406F8EB7F
:104F1300123811850882850983A3E07007E488822B
:104F23008983802D64F16005E064E1701A888289C9
:104F330083E0640170118A828B83124F58122861B7
:104F4300EEFAEFFB1226EE850A82850B83E0600200
:104F530014F002632912594990035A1267A222746A
:104F6300F1120C088A088B09ECFEEDFF890A8A828C
:104F73008B831274528A828B83125032F0EEF8EFD5
:104F8300F9A30EAF838A828B83A3A3E0C454F0FA00
:104F930088828983E04A12503C125033125037E022
:104FA300333354FCFA8E828F83E04A125037A3E0E6
:104FB30033333354F8FA8E828F83E04AF008EFF9E3
:104FC300A30EAF838508828B83A3A3A3A3A3A3E02C
:104FD300A2E0E492E013135480FA88828983E04AC2
:104FE300F0E5082407F50CEB126CA7750E00780C9E
:104FF3001211617C0812609812117812743CE50852
:10500300240F126CA3780C1211617C0312609812A6
:105013001178E50AC3940F4011E5082412F582E5DF
:10502300091241DA124AD3A3A3F07F07020EE1A3C8
:10503300E0024ABC12503CA322F08508828B83A372
:10504300A3A32274F1120C08EAFEEBFF890A8C0871
:105053008D098E828F83E08C828D83126281AE8272
:10506300AF83E012633E125115C412633E1251091D
:10507300E054038C828D83125113A2E2E492E08CFC
:10508300828D83125112131313541F12633EA31202
:105093005112A2E7E492E08C828D83A3A3A3A3120F
:1050A30051098E0C8F0D750E00780C1211617C085E
:1050B3007D00E50824071250FD12117812743C8E0E
:1050C3000C8F0D780C1211617C037D00E508240F11
:1050D3001250FD121178E5082412F8E5093400F99D
:1050E300E50AC3940F400A8E828F83A3A3A3E080B3
:1050F30001E488828983F002502DFAE5093400FB2C
:10510300121E4E740322A3A31262850EAF8322A341
:10511300A3A3A3F00274ED74F4120C0874F9121132
:10512300F6EAFEEBFF900342E07002A3E060101288
:105133004B1064027009EEFAEFFB1218BA8062900A
:105143000380E06E7003A3E06F7056740169600919
:105153007A947B031274CF70487A007B021254193D
:105163007001EB703C90038378081213C185188299
:1051730085198378081213FD900389E0C0E0740455
:10518300121445D0E0F074051214457401F074064E
:1051930012144574021270401214F4E96098121448
:1051A300FA7407026326900380125AA590037622AD
:1051B300E0F90257AF74F6120C089003E0E0701F99
:1051C3007C0079017A007B00121770EA7001EB60B2
:1051D3000E8A828B83E07002A3E060031216B6028C
:1051E3006795C082C08312564A401079FF12176A2E
:1051F300E9FA903237E493C39A5004790180027933
:10520300000257AF74EE120C088A088B09890D75DA
:105213000E00EA2408F50AEB125CA5E0F9121776F2
:105223008A108B11AE10AF11750C01EE7001EF6097
:10523300030252CD850882850983A3A3125CC2129F
:10524300617112647F12175E8A0A8B0BAE0AAF0B71
:10525300EE7001EF70030253E78E828F83A3A3A343
:10526300A3E4F0A3F0E508240B125407E0C0E0EE3A
:10527300240B1241D7D0E0F012187EEE240C126CEE
:10528300C1E508240EF582E509125A8C1241D412A5
:105293006997750E01EE2406F8EF125659E0547F14
:1052A300F0A3E054FC12559FE054046003025355ED
:1052B300901E8E126162740778081212FF8A828B25
:1052C30083E04508F0A3E04509F0EE24061253FEFF
:1052D3008C828D8312647F74805AF50874035BF5A6
:1052E30009740778081213DFE508F510EE24041299
:1052F3003A4524091253F6E50D606074028508826D
:10530300850983125116240D125F2FE0A2E2500F7C
:1053130090036E125A8F850A82850B83126997E573
:105323001070030253B4747F5AFA74FC5BFB74FF6E
:105333002510F51074FF3400F5117407781012125C
:10534300FFE5104AF8E5114BF98C828D83126997BA
:10535300805FE04480F0A3E00252CCE51070057555
:105363000C00804DEA54206015121E668A10747F6B
:105373005510F8745F28850A82850B83801BEA54D5
:1053830010600E121E668A10740F5510F8740A808E
:10539300E4850A82850B837401F0A3E4F074048529
:1053A3000882850983F01254157001EB70031267AC
:1053B3006D7401650E7030850A82850B8312540F5C
:1053C300E0F9EEFAEFFB121764E9601BEE240C120E
:1053D30041D71256DF7001EB6003121EF6EEFAEFAF
:1053E300FB121EF6750C00A90C80031211787F0ABC
:1053F300020EE1F508EF3400F50922F8EF125A84A2
:10540300FCE9FD22FAE50934000255A6125AA50269
:105413006B567A207B009003CDE0F9121FB6EA2287
:1054230074F6120C0874F71211F67E00121776EA5E
:105433007001EB70030254F08A828B83A3A3A3A3AE
:10544300A3A3A3A3A3E0640660030254F08A828BA0
:1054530083A3A3A3A3A3A3A3E0FF8A828B83125FE7
:105463003DE0C0E07408121445D0E012559F126766
:105473009E126DD812699712179474085FF9E4703D
:1054830001E96067851882851983125CB17A007B14
:1054930000121758EA7001EB7051900380125A936F
:1054A3001226527C007D007A007B0080288E828F3A
:1054B30083126B4BE064FF7004A3E064FF602C90E5
:1054C3000380125CB112234CE9641A601E7C007DD8
:1054D30000EEFAEFFB1217588A088B09AE08AF09E2
:1054E300EE7001EF70C779001226587E01EEF902C3
:1054F300679074F7120C08EA7001EB70059003E1F2
:1055030080068A828B83A3A31256DF7001EB602887
:105513008A828B83A3A3A3A3A3A3A3E05408F9E4E0
:105523007001E960DDEC7001ED6011125CD36C7009
:1055330003A3E06D70CC80047A007B0002590974E8
:10554300F2120C08EAFEEBFF890A8C088D097A1027
:105553007B00121EF0EA7001EB603CE48A828B83CD
:10556300A3A3A3A3A3A3A3A31255ACE50A1259149F
:10557300126A898A828B83A3A3A3A3E4F01255AC96
:1055830012559D1276F5EA240CF582EB127AF2128B
:10559300559EA3A3F0A3F00234DFA3A31255A322C5
:1055A300F08001FB8A828B8322A3125918A3A322C2
:1055B30074F5120C08EAFEEBFF890A8C088D09EEDC
:1055C3007001EF60567401650A7014790112176A4D
:1055D300E9FA90323EE493C39A500F7911806574CF
:1055E30004650A703012564A40F18E828F83A3A35A
:1055F300A3A3A3A3A3A3A3E50A12629A127D60E463
:10560300F0A3F09003E1E07002A3E09003E16024D3
:10561300125A8F800A7402650A60CF79C18025E827
:1056230024020808E912565912574D7001E970EF28
:105633008A828B831276F51254157001EB70031274
:10564300676D790002703A790412176AE9FA9032A9
:1056530045E493C39A22125A84FAE90255A6C082FA
:10566300C083E9FC79009003E1801D8A828B83A3C8
:10567300A3A3A3A3A3A3A3A3E06C600574FF6C700F
:1056830001098A828B83A3A31256DF7001EB70DBBF
:105693000257AF74F7120C08EA7001EB7005900320
:1056A300E180068A828B83A3A31256DF7001EB602D
:1056B300248A828B83A3A3A3A3A3A3A3A3A3E069A5
:1056C30070E1EC60148A828B83E0240D1274E7A2EC
:1056D300E240D080047A007B00025909125949EA5A
:1056E30022C082C0839003E180068A828B83A3A3B6
:1056F3001256DF7001EB60128A828B83A3A3A3A3EC
:10570300A3A3A3A3E06970E280047A007B0002579D
:10571300AFC082C0839003E1800688828983A3A3FC
:1057230012574D7001E9601B88828983E0FCA3E076
:10573300F5838C82E06A7003A3E06B70DDE8FAE91D
:10574300FB80047A007B000257AF125DAFE822743E
:10575300F1120C088A0A8B0B8C0C8D0D75080075E1
:105763000900EA7001EB60319003E180068E828FBD
:1057730083A3A31257A37001EF601EAC0CAD0DEE13
:10578300FAEFFB850A82850B83122861E9640170B5
:10579300DCEEF8EFF988088909AA08AB0902502D55
:1057A300E0FEA3E0FFEE227402121178D083D082D0
:1057B30002112A790002112A74F7120C089003E1EE
:1057C300125A8F7C007D008007E8FCE9FD125A8F96
:1057D300E87001E9603AE82402F582E91241DAEA65
:1057E300687002EB6970E212647F9003E11278E85B
:1057F300E86E7002E96F70099003E1EAF0A3EB80B1
:105803000EEAF8EBF98C828D83A3A3E8F0A3E9F009
:1058130002590974F7120C08EAFEEBFFEE7001EF70
:10582300601612178E125920EA7001EB6003121EE4
:10583300F6EEFAEFFB121EF602590974F7120C0882
:10584300125CD3FCA3E0FD9003E1125A8F750800AC
:105853007E00803388828983A3A3A3A3A3A3A3A3E6
:10586300A3E0640570180E88828983E0FFA3E0F546
:10587300838F82E06C7003A3E06D70020508888259
:105883008983A3A3125A8FE87001E970C7EA24043D
:10589300F8EB3400F9903234E493FCE508C39C50F0
:1058A3000B903235E493FCEEC39C400B88828983D2
:1058B3007401F0A3E4800A90036E12590EECF0A376
:1058C300EDF074058A828B83A3A3A3A3A3A3A3A34D
:1058D300A3125914E0F0A3E044081262938A828B66
:1058E30083E064FF7004A3E064FF600E9003801202
:1058F3005CB112264CE9641A7005790112265880AE
:1059030005741F1211787F01020EE1125AA5027667
:10591300EA12591822F08A828B83024B098E828FF6
:1059230083E0241C12594FFAA3E0FB121EF68E8269
:105933008F83125949121EF6EE240C12594222F596
:1059430082EF3400F583E0FAA3E0FB22125F37E035
:1059530022C082C083EAFCEBFDEC7001ED70047998
:1059630005804CEC24FBF582ED34FFF583E07002F7
:10597300A3E07011EC24FFF8ED34FFF988828983EA
:10598300E064FF6005121E7280D59003CD125CCCDB
:10599300903239E493F97AE37B03121EA2E964019E
:1059A300700B7A007B201267717900800279040200
:1059B30057AF74F4120C08A2AFE492E0F508C2AF3B
:1059C3009003E31257A37001EF603DEE24FBF582D1
:1059D300EF34FFF583E07002A3E07A007B209003AD
:1059E300CD60051267748005E0F9121EAE750A00DA
:1059F300750B00780A121165EEFCEFFD7AE37B0369
:105A0300121E9C7402121178E508A2E092AFEEFA1E
:105A1300EFFB02632974F7120C0874E11211F6EA22
:105A23002413F582EB127C80C0E07411121445D06C
:105A3300E0125DA67409121445125D9F125A7CFC94
:105A4300E9FD8C828D83125A8F740B121445125DFB
:105A53009F2414F582EB127C80C0E074121214456B
:105A6300D0E0F0EA240EF582EB1241E18C828D83C3
:105A7300125A9312164A0259042404125A8222F823
:105A8300EB3400F9E822F582EF1278BE125DAF2203
:105A9300125AA5851882851983AA82AB8322A3A3F0
:105AA300A3A3E0FCA3E0FD2274EE120C0874FC1225
:105AB30011F6EAFEEBFF121746E960057911025C65
:105AC300A0EE2412F510EF3400F511EE2402F50ACE
:105AD300EF125CA51271B26008E485108285118310
:105AE300F0EE24131260A1700C903241E493850C04
:105AF30082850D83F0EE2411F8EF126CAC701990CF
:105B03001262E0600D90036AE0700D8E828F83E075
:105B13007006E488828983F0EE2414080808EF12E3
