:020000040000FA
:060000000212FD020832AD
:03002B00021111AE
:03004300020FADFC
:0300530002076F32
:03005B00020AE7AF
:03006B00020ED2B0
:100083000207C6010101010503010F10FEFFBE1A9D
:10009300BE1ABE1ABE1A74196E19BE1A992F000021
:1000A3000000112E000000000C0000000C0001FAFB
:1000B3000A00000000000000000000000000000033
:1000C300000000000000000000000000000000002D
:1000D300000000000000000000000000000000001D
:1000E300000000000000000000000000000000000D
:1000F30000000000000000000000000000000000FD
:1001030000000000000000000000000000000000EC
:1001130000000000000000000000000000000000DC
:100123000000000000000000000000000000006468
:1001330000000000008C1C000000000000281D00CF
:1001430000000000000000FF04FF010101004C114A
:10015300000000C211E80364006400B80102020554
:100163000107051E02051E020A03B80B803E0101AA
:1001730025011402020A0505050500280A0A0A0AD0
:10018300000630313233343536373839414243444F
:10019300454600286E756C6C20706F696E746572CD
:1001A30029003F3F3F000000803FF9021550B7434D
:1001B300BA510000204100E7DB2E0000A0401000F0
:1001C3000000080000000A00000012133A60461203
:1001D300131C603DE9687008F618F618F618F62245
:1001E300748067F7120201090909748067F7221204
:1001F300131C601D12133A7005191919801A121174
:1002030083701F1211ADC37003E6673319191940C8
:10021300071818182208080874FFF618F618F618B5
:10022300F6221211AD601712137D702192F0121392
:10023300877019501720F014080808090909E7F610
:100243001819E7F61819E7F61819E7F622121387B3
:1002530060E6E869701F0808E62480F608E436F6CD
:1002630018547FB47F0CE654806007F6E418F61840
:10027300F622181822E9C6CC08C6CD08C6CE08C691
:10028300CFC0E0E8C0E0EAC0E0EBC0E009E9F8096C
:10029300E7FA09E7FBE6F918E6F8C3EC98ED99EEFF
:1002A3009AEBC2E7F5F0EFC2E795F0500E600CEB66
:1002B300CFFBEACEFAE9CDF9E8CCF8EAA2E7D2E738
:1002C300FAEB33FB13F5F0EEA2E7D2E7FEEF33FFD1
:1002D300C5F013A2E730E601B313C5F0C3C0E0C015
:1002E300F07F00C39BFB605B9418600C401AD0E066
:1002F30023F9D0E0F80203D08AF0E9486003D2F092
:10030300E4AFF0FAF9F8803BEB30E40D89F0EA60F2
:1003130003D2F0E4AFF0F9CAF8EB30E30D88F0EF65
:100323006002D2F0AFF0E4CAC9F8EB54076014FBE3
:10033300C3EA13FAE913F9E813F8EF135002D2E012
:10034300FFDBEDD0E0C0E030E739C3E49FFFF5F019
:10035300EC98FC42F0ED99FD42F0EE9AFE42F0D0AB
:10036300E0F9D0E0F8E5F0607AE923F9EE20E7421E
:10037300D8028067C3EF33FFEC33FCED33FDEE337C
:10038300FE80EAEC28FCED39FDEE3AFED0E023F9DD
:10039300D0E0F84002801BC3EE13FEED13FDEC1317
:1003A300FCEF135002D2E0FF08B800067F7F74FF12
:1003B300802EEF3350178CF020F00260100CBC003D
:1003C3000C0DBD00080EBE000408E860DFE933E849
:1003D30013FFEE2313FE4F4D4C8008E95480FFE4D6
:1003E300FEFDFCEE33EF33F47004FCFD7E80D0E0C1
:1003F300FBD0E0FAD0E0F8D0E0CFC618CEC618CDD7
:10040300C618CCC6F92212131C700418181822122D
:10041300133A700D74FFF61819F61819F61819F631
:1004230022E7548066F6121387700F12137D70F063
:1004330014F608F608F608F680D112137D700CF650
:1004430008F608768008E6447F80EC1211B0700C41
:1004530012118660BFE65480F6E480BB12118670E9
:100463000519191980A5E869700C763F187680186C
:10047300F618F6E8F922E6CDC0E018ECC0E0E63362
:10048300CD33CDD313F6E719FCE7191933CC33C3B6
:10049300947F400ECD9D502408E65480F6E418F670
:1004A300800FF4043D14501408E6447FF618768058
:1004B300E418F618F6D0E0FCD0E0FD22CCD313CC40
:1004C300FD18E4C6CBC0E018E4C6CAC0E00808EDD6
:1004D30008C633E613F618E433C675F003C3CA97A8
:1004E300CA09CB97CB199C40047D08802EBD00031D
:1004F3000205B216B6FF050606081618C3CA33CAA4
:10050300CB33CB33CA27CA09CB37CB193CC37D08BE
:10051300803E187D0820E75CC633C6CA33CACB3396
:10052300CB33DDF1D5F0EB30E77BCA97CA09CB9724
:100533004ACB199C406F4B7025E620E0218066185A
:100543007D08C3CA97CA09CB97CB199CD3C633C6B8
:10055300CA33CACB33CB3350C9DDE7D5F0E1D3E49B
:10056300C636C608C636C608C636C608C636C61850
:1005730018188031C3CA97CA09CB97CB199CB340CB
:1005830097C633C6CA33CACB33CB33DD34D5F02E4B
:10059300C6A2E0C640C8CA27CA09CB37194A70BEEB
:1005A300CB3CB480B90808E63308E633601F18185B
:1005B30018D0E0FAD0E0FBD0E0FCD0E0FD22187DBB
:1005C30008CA27CA09CB37CB193CD3808013F61846
:1005D300E4B67F11F618B6FF0EF618C60470D208FB
:1005E30008768080CAF618F618F680C50012131C28
:1005F300604F12133A6012E7548066F6121183704B
:100603001112137D703B090909F4F618F618F61850
:10061300F6221211AD701512138708080860EAE676
:10062300447FF618768018E4F618F62212138760D2
:100633001612137D7012E4F608F608F608E65480E5
:10064300F609090918181822EAC0E0EBC0E0ECC06B
:10065300E0EDC0E0E687F0A4FBACF008E687F0A489
:100663002CFCE435F0FA1809E687F0A42C4B600261
:100673007401CA35F0FCE433FB09E687F0D2F7A432
:100683002CCB35F0FC1908E687F0A42BCC35F0FB16
:10069300E433FD0819E687F0D2E7A42C4ACB35F002
:1006A300CD3400FC09E687F0D2E7A42DCC35F0FD6C
:1006B300E433FA0918E687F0D2F7A42CCD35F0CA53
:1006C3003400FC08E687F0D2E7D2F7A42ACC35F051
:1006D3007A7E20E70B0ACB33CBCD33CDCC33CC336F
:1006E300CB3350147004ED30E00ED2F1E4CD3DCDA8
:1006F300CC3CCC3B5005DA05C2F1EB547FC6330842
:10070300E63392F0FBE73309E733C39A502D2B709E
:10071300190C0D4C4D70151806E608C333700D20E7
:10072300F10AA2F013F6E418800B4024E4F630F04B
:1007330002768018F618F618F68024D33B1450106E
:1007430074FFA2F013F6187680E418F618F6800FFB
:10075300A2F013F618E63303F618ECF618EDF6D00C
:10076300E0FDD0E0FCD0E0FBD0E0FA22C0E074F280
:10077300120BBAA2AFE492E0FED2AFE5A7FAE5A16D
:10078300FBEA5B541060081222DA75A1EF802AEAB3
:10079300A2E0C0D0EBA2E092F0121238158182F0F1
:1007A3005017906198E0FA90148CE0C39AA2D26536
:1007B300D0335002EAF075A1FEEEA2E092AF7F01C2
:1007C300020C71C0E074F2120BBAA2AFE492E0FE25
:1007D300D2AF9061A4E0FA759B00E5915A5408608A
:1007E300087591F712231C802AE5915A541060086A
:1007F3007591EF122322801BEAA2E0C0D0E591A2FB
:10080300E092F0121238158182F05007E0C2E0F056
:1008130012245A9061A3E0FAE5E95A5404600E12D7
:10082300243075E9FB906193E0A2E640F2808AC030
:10083300E074F2120BBAA2AFE492E0FED2AF906181
:10084300A5E0FAE5BF5A5404600675BFFB12247293
:100853000207BCC3E498F8E499F91208978026C309
:10086300E49AFAE49BFBE920E7E9120897E498F895
:10087300E499F922C3E498F8E499F9120897E49803
:10088300F8E499F9C3E49AFAE49BFB22EB20E7CF5F
:10089300E920E7E0B90010BB0008E88AF084F8AA71
:1008A300F022E4FBC8FA22EB70227B10C833C8C9DC
:1008B30033C9335007C39AC3DBF280069A50012A27
:1008C300DBEAC833F4C8C933F4C9FA2275F008E483
:1008D300C833C8C933C933C99AC99B5004C92AC983
:1008E3003BD5F0ECFBC833F4C8E4C9FA2212093053
:1008F30020F01430E72B74FFFCFBFA747F8022E4B2
:10090300FCFBFA7480801AB48008BC00F2BB00EFD1
:10091300800F50EBF9E4C39AFAE49BFBE49CFCE4FC
:1009230099C6CC18C6CB18C6CA18C6F922E4C9C6DC
:1009330008CAC608CBC6D3330308CCC63392F0C368
:10094300947F402E94184019C9B90704CACBCC220E
:100953005025C309CA33CACB33CBCC33CC33D9F4F8
:1009630022F4600DC9CCC313CB13CBCA13CAD9F677
:10097300CC22E4FCFBFA2214FCFBFA22080808EA66
:10098300C0E0EBC0E086F0E7A4FA180986F0E7A41C
:100993002AFA180986F0E7A42AFA180986F0E7A4C8
:1009A3002AFA1986F0E7A4FBE5F02AFA190886F07B
:1009B300E7A42BFBE5F03AFA190886F0E7A42BFB32
:1009C300E5F03AFA18180986F0E7A4C5F02BFBE422
:1009D3003AFA1908E7C5F0C6A426F6E5F03BFBE4AE
:1009E3003AFA1886F0E7A4F6E5F00826F6E43B08A1
:1009F300F6E43A08F6D0E0FBD0E0FA22080808E66D
:100A030030E7111211EB120A17080808C64480C612
:100A130018181822181818E9799EC608CAC608CBF0
:100A2300C608CCC6C370207996CACBCC7019798E10
:100A3300CBCC70137986CC700EF9802ACA33CACB1B
:100A430033CBCC33CC331930E7F2CCCBCA3350148D
:100A53007004EA30E00DE4CA3ACACB3BCBCC3CCCC1
:100A6300500209C3E913C6CC182313C6CB18C6CA50
:100A730018C6F922E4CFC0E0E4CEC0E0E4CDC0E084
:100A8300E4CCC0E075F020C3E633F608E633F6089D
:100A9300E633F608E633F6181818EC33FCED33FDAD
:100AA300EE33FEEF33FFC3EC9709ED9709EE970999
:100AB300EF97191919400FFFEC97FC09ED97FD0902
:100AC300EE97FE191906D5F0BEECF709EDF709EE1E
:100AD300F709EFF7191919D0E0FCD0E0FDD0E0FEDB
:100AE300D0E0FF22C0E074EB120BBAC2AFA2D85021
:100AF300579081C0780812130D9004887808121259
:100B030012900488C082901D0D780812130D9081F5
:100B1300BC780C12130D7808790C12097F758304C5
:100B2300D08278081212ED401F9081B87808121312
:100B33000D900488780812134990047F7461F0A320
:100B430074EAF0E490047EF0D2AFC2D87F08020CBE
:100B5300712518C582C0E0E51934FFC583C0E0E5FF
:100B630018C3958224F8F8E4C5A8858319858218EB
:100B7300C5A8E8CEF0A3E520F0A37808E608F0A323
:100B8300DEFAEFF0A3E58124FAF8E608F0A3E6081D
:100B9300F0A3E608F0A30808E608F0A3E608F0A32C
:100BA30015811581D0E0FED0E0F8158115811581FE
:100BB300E8C0E0EEC0E022C0D02518C582C0E0E561
:100BC3001934FFC583C0E0E518C3958224F310AF41
:100BD300088583198582188008858319858218D230
:100BE300AFC8F0A3E9F0A3EAF0A3EBF0A37908E719
:100BF30009F0A3D8FAECF0A3EDF0A3EEF0A3EFF025
:100C0300A3D0E0F0A3D0E0F0A3D0E0F0A3E520F080
:100C1300A3E5F0F0A322121372B90003020C5BE404
:100C23009003017861791A8002F0A3D8FCD9FA9075
:100C33001C61AA82AB83900086784879028015E410
:100C430093A3AC82AD838A828B83F0A3AA82AB8306
:100C53008C828D83D8E9D9E77582F77583E57403B0
:100C630012107075828A75832774001210708519AB
:100C730083851882E0C0E0A3E0F9A3E0FAA3E0FBD8
:100C8300A37808E0F608A3DFFAE0FCA3E0FDA3E005
:100C9300FEA3E0FFA3E0C0E0A3E0C0E0A3E0F5D043
:100CA300A3E0F520A3E0A3F5F0E4C5A885831985A7
:100CB3008218C5A8D082D083D0E0F8D0E0321213D6
:100CC3001C601C12133A6017121387700712137DEE
:100CD3007001D322C0D012137D7006D0D0B322C3CB
:100CE3002233D0D0501430E0F6C3E7960809E796D4
:100CF3000809E7960809E796B32220E0D5E69708A6
:100D030009E6970809E6970809E697B322D083D046
:100D130082ECC0E0EDC0E0E493A3FCE493A3FDED1B
:100D23004C600D120DEEEC24FFFCED34FFFD80EF63
:100D3300E493A3FCE493A3FDED4C600D120F58EC78
:100D430024FFFCED34FFFD80EFD0E0FDD0E0FCE4B8
:100D530093A3C0E0E493C0E02212131C601B1213A0
:100D63003A6016121387700712137D600CB322C00A
:100D7300D012137D7005D0D022C32233D0D05013AC
:100D830030E0EBC3E7960809E7960809E7960809F8
:100D9300E7962220E0E4E6970809E6970809E69734
:100DA3000809E69722D083D082E9C0E0E493A3C385
:100DB30086F0C5F095F0F908E493A386F0C5F095A5
:100DC300F0700BE493A3C3994005E9048002A3E404
:100DD30075F002A42582F582E5F03583F583D0E032
:100DE300F9E493A3C0E0E493C0E022C0E0C3E4933A
:100DF30096087401939618400FE49366700808747C
:100E03000193661870007019A3A3C3E49396087442
:100E130001939618A3A3400DD0E0D0E0D0E0020DDB
:100E23004CA3A3A3A3A3A3D0E0228519838518828F
:100E3300E0A3FEE0A3F5207808E0A3F608DFFAE0DC
:100E4300A3FFE0A3C0E0E0A3C0E0E0A3C0E0E0A311
:100E5300C0E0E0A3C0E0E4C5A8858218858319C576
:100E6300A8D083D082021076D083D082C5F0E493D9
:100E7300A3C5F0C395F0F5F0E493A3C395F0400543
:100E8300E5F0048001E475F002A42582F582E5F023
:100E93003583F583E493A3C0E0E493C0E0227404B4
:100EA300800474028000CCC0E0EDC0E0E518C39C70
:100EB300CCAD1950011D10AF068C188D1980068C0E
:100EC300188D19D2AF120FF3D0E0FDD0E0FC22C091
:100ED300E074F2120BBAA2AFE492E0FED2AFE5895E
:100EE300A2E64006E589A2E75003122202758900B3
:100EF300C2C5EEA2E092AF7F01020C7174028000C2
:100F0300CCC0E0EDC0E0E518C39CCCAD1950011D89
:100F130010AF068C188D1980068C188D19D2AF125C
:100F23000FD1D0E0FDD0E0FC2212131C6025121378
:100F33003A6020121387700302137D080808E766DE
:100F430070101819E766700A1819E7667004181903
:100F5300E76622F422C0E0C0F088F0E493667008EC
:100F63000874019366187000A8F0A3A3700BD0F067
:100F7300D0E0D0E0D0E0020D4CA3A3D0F0D0E0222B
:100F8300D083D082CCC0E0E493A360061210141483
:100F930070FAE493A360061211581470FAD0E0FCBF
:100FA300E493A3C0E0E493C0E022C0E074F2120B28
:100FB300BAA2AFE492E0FED2AFC2C0E5D1A2E45040
:100FC3000312224AEEA2E092AF7F01020C71CAC063
:100FD300E0E493A3C582CCC582C583CDC583F0A3CA
:100FE300C582CCC582C583CDC583DAE5D0E0CA22EC
:100FF300CAC0E0E0A3C582CCC582C583CDC583F05A
:10100300A3C582CCC582C583CDC583DAE6D0E0CA49
:1010130022C0E0E493A3D39C5010E493A3C39C4069
:101023000AD0E0D0E0D0E0020FA0A3A3A3D0E02237
:101033007009080808226016181818C6C333C608B2
:10104300C633C608C633C608C633C6D5E0EA22C5CA
:10105300822518C582C583351910AF07F519858216
:10106300188007F519858218D2AFC58322C09FF572
:101073009FE473D09F22D083D082C09FE493C0E0CB
:10108300740193C0E0740293F59F222518F5821032
:10109300AF08F518400215198008F5184002151914
:1010A300D2AF851983227404800A74038006740204
:1010B30080027401C0E0F40412108ED0E0121358C1
:1010C30022BB0102E722C082C08389828A83BB00DC
:1010D30003E08002E493D083D08222C0D02518108D
:1010E300AF08F518500205198008F51850020519C4
:1010F300D2AFD0D0226016080808C6C313C618C6DC
:1011030013C618C613C618C613C6D5E0EA22C0E034
:10111300C0D0EAC0E0E5A8D2AFC2C7A2E792AFD081
:10112300E0FAD0D0D0E032C3E0C696F608A3E0C61A
:1011330096F608A3E0C696F608A3E0C696F622251F
:101143001810AF08F518400215198008F518400269
:101153001519D2AF22C0E0E493A36C7009D0E0D09C
:10116300E0D0E0020FA0A3A3D0E022C3E7960809D2
:10117300E7960809E7960809E796A2D265D03322D5
:10118300181818E6084608700AE608C3337005E61F
:1011930033F4220822E066701008A3E066700A08A0
:1011A300A3E066700408A3E06622191919E709474A
:1011B30009700AE709C3337005E733F4220922C330
:1011C300E09608A3E09608A3E09608A3E096A2D2CF
:1011D30065D03322C3E096F008A3E096F008A3E0BD
:1011E30096F008A3E096F022181818E4C396F608C0
:1011F300E496F608E496F608E496F622E026F60866
:10120300A3E036F608A3E036F608A3E036F622E0BC
:1012130026F008A3E036F008A3E036F008A3E03692
:10122300F022E627F60809E637F60809E637F60856
:1012330009E637F622C0E0E8C0E0E58124FCF8E6E1
:10124300A2E7D0E0F8D0E022E657F60809E657F621
:101253000809E657F60809E657F622E056F608A30A
:10126300E056F608A3E056F608A3E056F622E05649
:10127300F008A3E056F008A3E056F008A3E056F008
:1012830022E647F60809E647F60809E647F608099D
:10129300E647F622700422600D18C6C333C608C69B
:1012A30033C6D5E0F41822E046F008A3E046F00880
:1012B300A3E046F008A3E046F022600D08C6A2E7CB
:1012C30013C618C613C6D5E0F322C6F4C608C6F47F
:1012D300C608C6F4C608C6F4C622C3E7960809E7DB
:1012E300960809E7960809E79622C3E09608A3E063
:1012F3009608A3E09608A3E0962275D00075814076
:1013030075180175190300020C19E0F608A3E0F63D
:1013130008A3E0F608A3E0F622E6084608C313464E
:1013230008336002E633F422600C08C6C313C61800
:10133300C613C6D5E0F422E7094709C313470933A7
:101343006002E733F422E6F008A3E6F008A3E6F030
:1013530008A3E6F022CAC0E0E6F0A308DAFAD0E078
:10136300FA22C5822518C582C5833519C58322741F
:10137300F855C74401F5C7790122E7C33319471963
:1013830047194722E6C3331846184618462225183C
:10139300F582E43519F58322C2AF75D69F020000AA
:1013A300221210799E8C01121079778D0112107917
:1013B300ED8D011210792A8E011210798D8E011292
:1013C3001079E38F0112107903900112107965905F
:1013D30001121079FF9001121079589101121079BE
:1013E300E79101121079A39201121079E19201128F
:1013F3001079509301121079AA9301121079E29394
:10140300011210791495011210794E960112107978
:10141300AF9601121079F8960112107920970112F4
:101423001079A397011210792398011210799698D5
:1014330001121079A798011210791B9901121079E2
:10144300B69901121079F899011210797E9A011256
:101453001079BA9A01121079CD9A011210791B9B57
:10146300011210795C9B01121079E19C0112107931
:10147300769E01121079AB9E01121079489F0112DA
:101483001079879F01121079C29F01121079A6A0CB
:1014930001121079E2A201121079ECA20112107963
:1014A300F6A20112107900A3011210791AA30112F6
:1014B300107924A3011210792EA30112107938A3F5
:1014C300011210795DA301121079BAA301121079E8
:1014D300DEA30112107902A40112107961A4011292
:1014E3001079B8A401121079D6A40112107946A577
:1014F3000112107983A501121079CAA5011210797E
:1015030032A601121079C1A601121079FCA70112AB
:1015130010794CA80112107982A901121079E6AA58
:101523000112107972AD0112107944AF01121079D2
:10153300FBB00112107961B10112107971B201127D
:10154300107922B30112107967B30112107918B41C
:1015530001121079A6B401121079CEB401121079D8
:1015630090B50112107976B8011210799BB8011267
:101573001079EDB801121079EBB90112107923BA81
:101583000112107963BA01121079C2BA01121079EB
:10159300E0BB0112107940BC0112107924BD011285
:1015A30010792EBF0112107950BF01121079E3C0D8
:1015B3000112107929C101121079FDC101121079AC
:1015C30090C201121079BFC201121079EAC201124E
:1015D3001079D5C30112107911C40112107973C4A3
:1015E3000112107901C50112107904C50112107995
:1015F30073C501121079743100121079C6310012CB
:1016030010791D34001210796934001210795C3599
:1016130000121079C73500121079083600121079BC
:101623005E3700121079813900121079183A0012CE
:101633001079AC3A001210797B41001210790F42F5
:10164300001210798C440012107970450012107941
:101653001546001210792E4700121079584A0012CD
:1016630010791B4C001210797B4C001210792F4D0E
:1016730000121079D84D00121079034E0012107920
:10168300904E00121079744F0012107948500012D6
:101693001079E65000121079135100121079355168
:1016A300001210795153001210792354001210794B
:1016B300705400121079E154001210798F55001202
:1016C3001079C4550012107912560012107942563F
:1016D30000121079805600121079E4560012107926
:1016E300E956001210794457001210796C57001212
:1016F3001079825800121079E35800121079465974
:1017030000121079D959001210790E5C0012107969
:10171300E75C00121079775E0012107907600012FF
:101723001079A46000121079E361001210797C62D1
:1017330000121079C4620012107937640012107914
:101743004B6400121079586400121079736400120C
:1017530010797F64001210799D64001210796F660E
:1017630000121079A86600121079B566001210797C
:10177300026700121079F5670012107939680012B8
:101783001079CB6800121079D069001210799D6A24
:1017930000121079076C001210790C6D0012107989
:1017A300A26D00121079256E001210793C6E0012A2
:1017B3001079606E001210796A6E00121079766EDD
:1017C30000121079946E00121079D86E00121079FD
:1017D300296F00121079866F00121079E76F0012DB
:1017E3001079EE7000121079FE71001210799D725B
:1017F300001210798A730012107921740012107983
:10180300B87400121079887500121079B775001238
:101813001079297600121079D77600121079FD76A7
:10182300001210791C78001210793B78001210799D
:10183300AA780012107923790012107949790012DD
:101843001079757900121079C07900121079447AF1
:1018530000121079EB7B00121079147C00121079BE
:10186300997C00121079F37C00121079187D001214
:1018730010795E7D001210797B7D00121079297E2C
:101883000012107970F503121079BBF50312107969
:1018930041C6011210797BC6011210794EC701129D
:1018A300107924C80112107953C901121079DCCAC6
:1018B300011210795ACB0112107920CC0112107940
:1018C30041CD01121079B3CD0112107915CE011259
:1018D300107977CE0112107981CE01121079BFCE23
:1018E3000112107928CF01121079C7CF0112107994
:1018F30045D001121079F8D0011210796AD1011282
:10190300107990D101121079C0D101121079EDD163
:101913000112107993D201121079A3D20112107916
:10192300F6D20112107902D3011210790ED30112EB
:10193300107917D3011210797AD301121079DAD3FF
:10194300011210792BD40112107946D401121079A7
:1019530076D40112107997D401121079A3D401120D
:1019630010792AD60112107948D601121079B1D60E
:1019730001121079C4D601121079D5D6011210794B
:1019830068D7011210796BD80112107961D901124D
:101993001079E4D901121079EDD90112107950DAD6
:1019A3000112107967DA01121079A9DA011210799C
:1019B300EEDA011210791DDB0112107954DB0112EA
:1019C300107971DB0112107995DB01121079D6DBE6
:1019D30001121079C9DC011210790FDD011210799F
:1019E3004ADD01121079A9DD01121079D1DD01124E
:1019F30010790ADE0112107918DE0112107979DEEE
:101A030001121079B6DE01121079F8DE0112107995
:101A130029DF011210795DDF0112107968DF0112ED
:101A2300107986DF011210794FE00112107959E025
:101A33000112107998E001121079AEE001121079C9
:101A430018E1011210792CE10112107924E201123C
:101A5300107937E2011210794CE201121079ECE2AD
:101A63000112107950E30112107917E40112107971
:101A730022E40112107941E5011210795DE50112AA
:101A83001079B5E501121079ECE50112107906E63B
:101A9300011210797AE6011210790BE7011210791D
:101AA30053E70112107978E901121079E2E9011282
:101AB30010794DEA0112107993EC01121079A3EC1D
:101AC30001121079A6EC01121079B2EC011210790F
:101AD300C6EC01121079CEEC0112107913ED01124C
:101AE3001079C1ED0112107931EE0112107995EEE2
:101AF300011210792EEF01121079C8EF011210793B
:101B0300F6EF0112107995F001121079A1F001128C
:101B13001079D0F001121079D3F0011210794AF143
:101B2300011210793AF20112107912F301121079AD
:101B33009CF301121079BDF4011210796FF50112B3
:101B43001079A8F501121079D9F501121079E2F58F
:101B5300011210791EF60112107905F7011210799E
:101B630081F70112107911F801121079DBF80112D3
:101B730010795FF90112107995F901121079DEF9E4
:101B83000112107994B803121079B9B903121079BC
:101B9300D4B90312107931BB031210796DBC03124F
:101BA3001079CABC03121079738B03121079858BD9
:101BB30003121079F98B031210792F8C0312107909
:101BC300868C031210796D8E031210794B900312D9
:101BD3001079769303121079B09303121079CA9394
:101BE3000312107939940312107975940312107942
:101BF300A59403121079E89403121079008003125C
:101C030010791680031210792380031210793C8017
:101C13000312107969800312107975800312107909
:101C23008C8003121079B18003121079F7800312AC
:101C33001079A381031210794D8203121079DB828C
:101C4300031210792D84031210792A870312107955
:101C5300078A03121079E28A03121079637E001255
:101C63001079817E00121079CC7E00121079167FD4
:101C730000121079B97F001210793AF0031210792B
:101C830063EB03121079A9EC0312107967AC03120A
:101C93001079E4AC031210790DAD0312107933AD52
:101CA3000312107946AD03121079B0AD0312107907
:101CB300E0AD03121079A2870112107948B0031224
:101CC30010799AB003121079D5B00312107912B1BA
:101CD3000312107975B103121079A0B103121079B0
:101CE3002DB20312107987B203121079EDE70312B4
:101CF300107906E803121079B2E80312107951E95A
:101D03000312107980E903121079FDE303121079AD
:101D130079E40312107984E403121079A9E403121D
:101D2300107986F60212107989F60212107935F7C6
:101D330002121079968C01121079D7F702121079DA
:101D4300FBF7021210791BF80212107962F80212E3
:101D5300107990F802121079B0F902121079E7F9AC
:101D63000212107908FA021210795DFA0212107940
:101D73002EFB0212107956FB0212107989FC021213
:101D830010792CFD0212107932FE021210795BFEDB
:101D9300021210798EFE0212107967A503121079D0
:101DA300ADA5031210791DA60312107945A60312DF
:101DB300107907A70312107910A70312107966A7E9
:101DC3000312107991A703121079EFA70312107968
:101DD3008EA803121079CDA80312107921A903123A
:101DE300107984A903121079ACA90312107928AAD7
:101DF3000312107975AA03121079B4AA0312107989
:101E0300E8AA03121079FAAA031210790CAB031291
:101E130010792BAB03121079FEAB031210793EAC91
:101E23000312107939EE0312107916F603121079A2
:101E3300F8E1031210795CE20312107980E20312D5
:101E4300107986E303121079E29F021210790BA135
:101E53000212107947A10212107905A30212107918
:101E63003FA302121079B5A502121079FCA5021244
:101E73001079A3A70212107942A802121079A4A81C
:101E83000212107951A90212107991A90212107944
:101E9300D1A90212107961AB02121079D3AC0212EC
:101EA30010791FAF021210794DAF0212107983AF70
:101EB300021210798CAF02121079F1AF021210796D
:101EC30073B002121079B5B302121079E1F603125E
:101ED3001079F7F60312107908C90312107920C993
:101EE30003121079C8C90312107909CA03121079B1
:101EF30026CA0312107949CA0312107990CA031231
:101F03001079C9CA03121079FDCA031210798BCC58
:101F13000312107902F20312107938F203121079C6
:101F230055F2031210799AF203121079A6F20312F2
:101F33001079B0F2031210791CE9021210796BE9DF
:101F43000212107979E90212107986EA02121079E5
:101F530014EB021210795EEB02121079AFEB02124E
:101F630010790CEC0212107920EC02121079FDEDBD
:101F73000212107983EE02121079ADEE021210797B
:101F83009EF002121079B9F002121079FAF00212DF
:101F9300107936F1021210798FF102121079ADF136
:101FA3000212107911F202121079A4F302121079BD
:101FB300D9F30212107904F4021210790FF4021209
:101FC300107958F402121079FDF40212107922F5F7
:101FD300021210792CF5021210792FF502121079E2
:101FE300A4F502121079C1F502121079D4F5021288
:101FF30010793BF6021210796EF60212107914F57D
:10200300031210792CF5031210797E9D03121079B7
:10201300CE9D03121079949F031210795EA10312CF
:102023001079A6A103121079E6A20312107935A440
:102033000312107957A403121079ABA40312107979
:1020430033A503121079BEC702121079F2C7021228
:102053001079D5C80212107963C902121079C6C962
:102063000212107908CA021210797FCA021210797B
:1020730016CB0212107998CB02121079D4CB02122C
:10208300107998CF021210794ED10212107974D1BF
:102093000212107936D20212107939D20212107953
:1020A300FAD2021210792FD40212107952D50212E9
:1020B3001079CDD502121079FCD602121079D4D73B
:1020C3000212107966D8021210793AB4021210790A
:1020D300F9B40212107969B50212107978B50212B7
:1020E3001079FCB50212107965B60212107967B740
:1020F3000212107990B70212107941B802121079C6
:1021030084B802121079E1B802121079CBBB021223
:1021130010795DBC02121079C2BC0212107961BE43
:102123000212107917BF02121079B6BF021210798A
:1021330012C0021210797AC00212107994C10212ED
:10214300107937C30212107969C40212107906C5D7
:102153000212107976C50212107976C6021210792E
:102163000FF70312107912F70312107985D30312B4
:1021730010794BD4031210797AD40312107929D52C
:10218300031210798FD50312107900D60312107938
:1021930079E603121079EAE70312107931F1031299
:1021A300107942F103121079E8F103121079BDE9B5
:1021B30003121079CBE90312107917F70312107980
:1021C300EDF303121079FDF30312107915F40312E2
:1021D30010797DF403121079E9FE0112107972FF70
:1021E30001121079E4FF01121079DBFE021210795B
:1021F30006FF021210796BFF021210797AFF0212A6
:102203001079B8FF0212107935D00312107943D038
:1022130003121079C3D0031210798AD103121079F3
:1022230040D303121079A6B20312107925B3031217
:102233001079F5B30312107950B40312107951B524
:1022430003121079DAB60312107939B70312107931
:1022530093B7031210799CB703121079ACB703122A
:102263001079DEB703121079F4B70312107976B838
:102273000312107980B80312107924FA011210792D
:1022830077FA011210798BFC01121079C3FC011249
:102293001079E8FC0112107901FD011210791AFD81
:1022A300011210791BFE01121079AAFE0112107996
:1022B300DDDF0312107920E00312107931E00312FD
:1022C300107964E0031210799AE003121079D0E0D8
:1022D3000312107949E10312107986E10312107990
:1022E30090D603121079B8D603121079F5D60312DB
:1022F300107904D70312107923D7031210798DD7DD
:102303000312107996D703121079F7D703121079B5
:102313001BD803121079DED803121079EBD80312FD
:102323001079FCD803121079A5F603121079C2F6BE
:10233300031210796CC503121079D1C603121079F8
:10234300DEC603121079F4C60312107911C7031203
:10235300107928C7031210793DC703121079C1C73A
:1023630003121079A0C803121079E9C80312107977
:10237300F9C80312107952F30312107977F3031299
:102383001079A0F303121079C8F303121079C0DD9A
:1023930003121079E7DD0312107905DE03121079B9
:1023A30072DE0312107994DB03121079ADDB031292
:1023B3001079B9DB03121079CDDB03121079F1DB4D
:1023C30003121079FDDB031210790CDC0312107970
:1023D3001FDC0312107936DC0312107970DC031250
:1023E3001079A2DC03121079F1DC031210793DDDC0
:1023F3000312107955DD031210795FDD0312107992
:1024030070DD03121079B5DD03121079C5F50312DF
:1024130010794495031210797095031210798C95F5
:10242300031210799F9503121079B5950312107951
:102433001F9603121079529603121079B79903125B
:102443001079E09A03121079109B03121079799B8B
:10245300031210795D9C03121079859C0312107985
:102463009A9C03121079AA9C03121079EB9C031215
:102473001079409D03121079509D0312107902EDDB
:10248300031210791DED0312107946ED0312107932
:1024930060ED0312107985ED03121079A4ED031298
:1024A3001079BDED03121079ECED0312107907EEEC
:1024B3000312107961F603121079A3CC0312107979
:1024C300AACC03121079B7CD03121079E9CD031208
:1024D30010790FCE0312107942CE0312107954CE25
:1024E300031210798FCE03121079FFCE03121079E5
:1024F3003CCF0312107989CF03121079B7CF03129F
:102503001079D7CF031210792AD90312107966D91B
:102513000312107969DA0312107991DB031210792F
:102523003AEF0312107998EF03121079D7EF0312E1
:10253300107918F0031210799BC103121079BAC1F4
:102543000312107903C2031210791FC20312107908
:1025530050C20312107967C20312107974C20312B6
:10256300107991C2031210797EC303121079B5C397
:1025730003121079BFC303121079CCC4031210796C
:10258300D7C403121079E9C403121079F2C40312F9
:102593001079FCC4031210792EBD031210791BC1EC
:1025A3000312107929C103121079CE7F001210791A
:1025B300B3F203121079DCF203121079E2FF021274
:1025C300107987F403121079B0F4031210791AD931
:1025D30002121079F2DD02121079128701121079BA
:1025E30061860112107987850112107939850112EC
:1025F3001079168501121079D984011210799E84FD
:10260300011210797A8401121079ED8B011210797D
:102613007E8B011210795F8401121079EE8301120F
:102623001079EB8A01121079E18A011210791C8367
:10263300011210798F82011210792382011210790D
:10264300048201121079F28101121079B79F0212EC
:102653001079999F02121079AA9E021210790E9E88
:10266300021210799C9C02121079199A02121079A5
:10267300A899021210797E960212107956960212C8
:102683001079F99502121079E195021210792C95BF
:1026930002121079CD94021210792293021210794A
:1026A300C69202121079C39202121079D0910212CB
:1026B3001079CF8A01121079A28A011210797089D8
:1026C30001121079B091021210790091021210795F
:1026D300828F02121079498F021210794B890112ED
:1026E30010791A8F02121079178F02121079098F3D
:1026F30002121079F58E02121079E88E0212107907
:10270300F98801121079D5880112107960F7021245
:102713001079008E021210798C8D02121079528D6D
:1027230002121079FA8C02121079C98C02121079F4
:10273300F98902121079ED89021210796089021267
:102743001079AE88021210794D8602121079B68381
:1027530002121079808302121079268202121079F4
:10276300D981021210791281021210796780021244
:1027730010790080021210793A800212107992883F
:102783000112107981AF0300000080FBE4730000A5
:102793000000000000000000000000000000000036
:1027A30000F80000000000000033300000000010BB
:1027B3000C06100C0600000000000000000040C0E2
:1027C3007840C0784000043F04043F0404000070D4
:1027D30088FC08300000001820FF211E0000F008CC
:1027E300F000E018000000211C031E211E0000F071
:1027F3000888700000001E212324192721101016B9
:102803000E000000000000000000000000000000B7
:1028130000E0180402000000000718204000000236
:102823000418E000000000402018070000004040AA
:1028330080F0804040000202010F0102020000000C
:1028430000F0000000000101011F01010100000070
:1028530000000000000080B07000000000000000D5
:10286300000000000000000101010101010100005E
:1028730000000000000000303000000000000000F5
:10288300000080601804006018060100000000E0EA
:1028930010080810E000000F102020100F00001097
:1028A30010F8000000000020203F202000000070EE
:1028B30008080888700000302824222130000030E6
:1028C3000888884830000018202020110E000000DE
:1028D300C02010F8000000070424243F240000F85F
:1028E3000888880808000019212020110E0000E044
:1028F300108888180000000F112020110E000038E6
:102903000808C83808000000003F000000000070FD
:10291300880808887000001C222121221C0000E086
:1029230010080810E0000000312222110F000000FF
:1029330000C0C000000000000030300000000000B4
:102943000080000000000000806000000000000024
:1029530080402010080000010204081020004040BD
:102963004040404040000404040404040400000800
:1029730010204080000000201008040201000070B5
:1029830048080808F0000000003036010000C0309D
:10299300C828E810E0000718272423140B000000C0
:1029A300C038E0000000203C23020227382008F84A
:1029B300888888700000203F202020110E00C0303E
:1029C300080808083800071820202010080008F815
:1029D30008080810E000203F202020100F0008F80E
:1029E3008888E8081000203F20202320180008F8DA
:1029F3008888E8081000203F200003000000C03052
:102A030008080838000007182020221E020008F8D2
:102A130008000008F808203F210101213F20000899
:102A230008F8080800000020203F202000000000D4
:102A33000808F8080800C08080807F00000008F8BC
:102A430088C028180800203F20012638200008F8F5
:102A5300080000000000203F20202020300008F85C
:102A6300F800F8F80800203F003F003F200008F876
:102A730030C00008F808203F200007183F00E0108E
:102A830008080810E0000F10202020100F0008F89D
:102A930008080808F000203F210101010000E010B0
:102AA30008080810E0000F18242438504F0008F8D5
:102AB300888888887000203F2000030C3020007035
:102AC3008808080838000038202121221C00180833
:102AD30008F8080818000000203F2000000008F84C
:102AE30008000008F808001F202020201F00087895
:102AF300880000C83808000007380E010000F808F5
:102B030000F80008F800033C0700073C030008181E
:102B130068808068180820302C03032C3020083884
:102B2300C800C83808000000203F2000000010083B
:102B33000808C83808002038262120201800000083
:102B430000FE020202000000007F40404000000C33
:102B530030C000000000000000010638C000000281
:102B63000202FE000000004040407F000000000021
:102B73000402020204000000000000000000000044
:102B83000000000000008080808080808080000240
:102B9300020400000000000000000000000000002C
:102BA3008080808000000019242222223F2008F820
:102BB300008080000000003F112020110E00000063
:102BC300008080800000000E1120202011000000F2
:102BD30000808088F800000E112020103F200000A4
:102BE300808080800000001F2222222213000080A8
:102BF30080F0888888180020203F202000000000F3
:102C0300808080808000006B94949493600008F827
:102C1300008080800000203F210000203F200080B2
:102C23009898000000000020203F202000000000B2
:102C330000809898000000C08080807F000008F822
:102C4300000080808000203F24022D3020000008F7
:102C530008F8000000000020203F202000008080B2
:102C6300808080808000203F20003F20003F8080C4
:102C7300008080800000203F210000203F200000D2
:102C8300808080800000001F202020201F00808083
:102C930000808000000080FFA12020110E000000B2
:102CA300008080808000000E112020A0FF808080A3
:102CB30080008080800020203F2120000100000050
:102CC3008080808080000033242424241900008025
:102CD30080E0808000000000001F20200000808032
:102CE300000000808000001F202020103F208080F3
:102CF30080000080808000010E3008060100808083
:102D03000080008080800F300C030C300F000080A7
:102D13008000808080000020312E0E3120008080D2
:102D230080000080808080818E7018060100008002
:102D33008080808080000021302C22213000000020
:102D43000000807C020200000000003F40400000C1
:102D53000000FF00000000000000FF000000000270
:102D6300027C800000000040403F0000000000069D
:102D73000101020204040000000000000000000141
:102D830036360101000102010001030100010401C3
:102D9300060605020000070100340801000F0904BC
:102DA30001010D0100FF0E080000170200001901C8
:102DB30000FF1A0100011B0100FE1C0100081D0297
:102DC30000001F0100012001000121020000230176
:102DD300000F240200002601000127010008280239
:102DE30000FF2A0100072B0102402C0100002D01E6
:102DF30000012E0100012F0100FF30010B1C3108DF
:102E030000003A0100083B01000F2F0100000103FD
:102E130071030103010301030103010322030203FD
:102E23000103100300030003000300030003000376
:102E33000003420300032403060300030003040307
:102E430012032503230325032303040304030003BD
:102E5300000300034403000300032303000365038B
:102E6300210035038103000305030003000300036E
:102E730003027102300160021102700201020202B8
:102E830002028002100261023A00410063027302EF
:102E930072026202430200021302380000020002BF
:102EA30004021202000200020002000204020402F1
:102EB300370037003C0244020002390000020002DE
:102EC30065020002350281020002050282028302CA
:102ED300000201017101010101011101010131012F
:102EE300010101018001100161013B001400630134
:102EF30073017201620143010001130106013D01E7
:102F03003500040112010001000100010001040168
:102F13000401330133013C01440132013600000155
:102F230000016501000135008101000105018201F5
:102F3300830100010304710402046004110470049A
:102F430002040204010402041004610400041404D2
:102F53006304730472046204430400041304060448
:102F63000004000404041204000400040004000428
:102F73005104640000040004000444040004000439
:102F8300000400046504000435048104640005049E
:102F93000004830400040300710030016000110089
:102FA3007000310220035004800010006100000013
:102FB30014006300730072006200430000001300FA
:102FC30006000000000004001200000000000000E2
:102FD300000004000400370037003C0244000000F6
:102FE30000000000000065000000350081000000C3
:102FF3000500000083000000360001000600000009
:103003000F0000000000000000000000000003FFAC
:10301300FF00000403FFFF0000FFFF0FF4010005A2
:10302300C4040320000100000B00000000000000A6
:103033000003010F000006211300A6200100062152
:1030430002005E200300642004006A200500702053
:1030530006007C2011009A201400A02015008E2069
:10306300FFFF0000013E160668160862160B7A166B
:1030730010A815024416055616074A160C20160DFD
:103083003216FF0000CE19FE19D419DA19F819EC1B
:1030930019E619041A0A1A101A1C1AE019C819C2D7
:1030A3001900160F00000B150B020002220F32004D
:1030B3000006BE1AD01AD61A9819DC1A92199E194C
:1030C3001E1B3C1B421B241B301B2A1BD218CC1873
:1030D30008190E190219BA1800034948424D181766
:1030E30025050200011916181616152303000C0EE8
:1030F300020B040B0A0708000F303016181920239F
:103103001A1C1E30303017181921301B1D1F3000B8
:10311300383C3E363B3B352B432C121BE21AE81A54
:10312300F41AEE1AF219161A361B221A281A020476
:1031330002010101010902DE18E418D8181419006C
:1031430005150D0910080400000000000000BE046E
:103153000AEA18FC185000040038000E0028000387
:1031630009010C100A0309000008FF1E1E3204089F
:1031730005C082C083E99003CDF0E4900382F0128E
:1031830025089003E1E4F0A3F09003CEF0A3F0123E
:10319300182412270612150012250E900342E4F09C
:1031A300A3F09003F3E07002A3E060099003F3122D
:1031B30066CC12278F903170E493FA790212257A44
:1031C3000256DD74F2120B54EAFEEBFF74805FF9D2
:1031D300E47001E960619003CDE0F9121DCA8A0829
:1031E3008B09EA7001EB60467B0080010BEB75F005
:1031F30003A42467F8E5F03430F988828983E493E3
:10320300FA74FF6A6021850882850983E06A70DCAD
:10321300AA08AB0988828983A3E493C0E07401936D
:10322300F583D08212278FAA08AB09121DBEEEFACE
:1032330074806FFB02340674205FF9E47001E96067
:103243001D1216F88A088B09EA7001EB600A121640
:1032530032AA08AB09121DBEEEFA742080D4EE54D4
:10326300207003023337750C001253437001EB7067
:103273000B7C027D007A207B0012776F7C0079043F
:103283007A007B001216C28A088B09800D740188AC
:10329300828983F0850A08850B09E5087002E50930
:1032A300606D7C007904AA08AB091216C28A0A8BE6
:1032B3000B750C01E50824041277C124FFF0A3E089
:1032C30034FF127A277002A3E070C9E5082409F8D5
:1032D300E5093400F9850882850983A3A3A3A3A381
:1032E300A3A3A3A3A3E0640170A385088285098334
:1032F300A3A3A3A3A3A3E0540470927406888289B2
:1033030083F07AB785088285098312355180851247
:1033130016927C0079017A007B001216C2EA7001D2
:10332300EB7009E50C70057A2012341274206EFAE2
:10333300EF023236EE54106007121536741080EE29
:10334300EE54406007121590744080E2EE548060A2
:1033530007121452748080D674015FF9E47001E996
:10336300601A9003F5E07002A3E060099003F51280
:1033730066CC12278FEEFA740102323574085FF9B6
:10338300E47001E9602D12150C901221E0640170C4
:103393001B901222E06015FC75F0E8A4CCAAF0752E
:1033A300F003A42AFD7A007B0812776FEEFA740803
:1033B30002323574105FF9E47001E960129003DFA3
:1033C300E06005E4F012150CEEFA74100232357465
:1033D300025FF9E47001E9600A12181EEEFA740242
:1033E30002323574045FF9E47001E96012126A6F06
:1033F3001268C57901124566EEFA74040232357A11
:10340300007B00800574031210DE7F06020E2D7B05
:10341300009003CDE0F9121EFC2274F7120B5474D2
:10342300E1121142EAFEEBFFEE7001EF6033851803
:1034330082851983AC82AD8312172274061213910D
:10344300E0601E7417121391E0FD7401121391E0F2
:10345300FCEEFAEFFB7900122652E9600479A480AE
:1034630002790002583274F5120B54EAFEEBFF8E18
:10347300828F83A3A3A3A3A3A3E054406018127075
:10348300D960067AFF7BFF806A8E828F83125C0588
:10349300FAA3E0FB805390036DE0A2E15048126E63
:1034A30005241CF8EB12532E7508FE7509FF7808E6
:1034B3001210B1124102120EA579008C828D831273
:1034C3006CF9A3A3A3E0F5088C828D83126A5CA335
:1034D300A3E0FDAC088A828B831263AD12151274CC
:1034E300041210DE800312174674FE6A700374FF21
:1034F3006B60431266C8126BF61217C4E98E828F93
:1035030083600612354AE4800512354A7401F07C63
:10351300027D168E828F831263AD122574E9F5083E
:103523007017EE7001EF60097901EEFAEFFB1216E6
:103533009EA908026F687508CDAA088E828F831230
:103543003551E960DD80EAE0240D125E6122E0245A
:103553000C12587DF912160E2274F6120B54E9FE62
:10356300EAFF7A0F7B00121DB8EA7001EB60197451
:103573000C8A828B83F0EEA3A3F0EF8A828B83A362
:10358300F01268B679008028EEF91216C88A088B03
:1035930009A808A909E87001E960137406888289FB
:1035A30083127A2CE0F91215A2EEF91216A47910FF
:1035B3000266C3EAFCEBFD7A017B009003CDE0F9E0
:1035C300121EF022C082C0837900EA241DF582EB2B
:1035D3001241081263AD90036DE0A2E18A828B83EE
:1035E300E0500E120F8301010AF135000536098000
:1035F30011120F83010304F1350207F1350AF13586
:1036030005360256DD74EE120B54EAFEEBFF8C080E
:103613008D09890E7412121391E0F510A3E0F511D0
:10362300851082F583E4F0A3F012373AEE241DF8F7
:10363300EF3400F9880C890D8882123753601F8597
:103643000A82850B83123A127014850A82850B83D2
:103653001259BD8510828511831268C58003750ECA
:1036630000850C82850D83125C05120E6B0109D94E
:10367300368836A036AE36B936D936E336D936FD76
:10368300361637293778101210B1AC08AD09EEFAA7
:10369300EFFB12151E74021210DE023732AC08ADB6
:1036A30009EEFAEFFB121524023735A90EEEFAEFF5
:1036B300FB1217DC8079127BA864027019E50E7087
:1036C3000A1237477003A3E0697067EEFAEFFBA9AC
:1036D3000E1217948059750E00790112251A805223
:1036E3001237477003A3E06970EC127BA864027081
:1036F300E5EEFAEFFB12177C80389003F7E07002D7
:10370300A3E0602EEEFAEFFB9003F71266CC1227CC
:103713008F801F1237477003A3E06970B9EEFAEF89
:10372300FB1217E8800CEEFAEFFBA90E1217F4E96F
:10373300F50EA90E02531FEE2409F8EF3400F988A1
:103743000A890B22850A82850B83126F61E0682246
:10375300F583125C09F91217A6E92274ED120B54D2
:1037630074DE1211428A088B09EA2402F510EB1267
:103773005FDDF91216C88A0A8B0BAE0AAF0BEE7027
:1037830001EF7003023845E508240C126BD112399E
:103793007024061240FA850882850983A38582086E
:1037A300858309E064F16017E064CD6012E0641A78
:1037B300600DE064E96008E064E160030238CF85EE
:1037C3000E82850F83A3E05408F9E47001E9607F5A
:1037D3007405850A82850B83F09003FBE07002A3D6
:1037E300E060099003FB1266CC12278F9003FDE083
:1037F3007002A3E0603390036DE0A2E1502B8E8250
:103803008F831270D3A3A3A3A3A3A3A312583C1221
:103813004114EA7001EB6011850882850983E0F9A0
:103823009003FD1266CC12278F850A82850B83E0F5
:10383300640270037406F0851082851183E0F91227
:1038430016A412169274221210DE7F0B020E2D792B
:103853000012169EE9607590036DE0A2E140030239
:1038630037DC12749F7002A3E070030237DC740329
:10387300121391127486850882850983E064E970C6
:103883001A1239781210B5850882850983E0F5127A
:1038930078121210B5124A151210DE740C1213911D
:1038A3001263AD1266C8126BF67900740E1213918F
:1038B300125BDF740C12139112414470030237DC64
:1038C300850E82850F83125BE90237DB85088285CB
:1038D3000983E0C0E07402121391D0E0F012761D68
:1038E300EE240B127BAB851882851983AA82AB83E6
:1038F300700512148880031217A07402121391E04A
:1039030064E970141239781210B57512E97812123D
:1039130010B5124A151210DE90036DE0A2E14003C8
:1039230002382C850A82850B83E064027027850E9A
:1039330082850F83E05404601C1270D970131266E1
:10394300C874FFF0A3F07405850A82850B830238DF
:1039530039740380F3850882850983E064E9600391
:1039630002382CEEFAEFFB1217FA02382CEE240978
:10397300127778EE22126E0A75120178122274F50C
:10398300120B548A088B09750A00EA24091259B0EC
:10399300FEE9FF8E828F83123A127003750A018E3D
:1039A300828F831262BB7003A3E06B7006E50AD2B9
:1039B300E1F50AE5082402FEE5093400FFE50A60A3
:1039C300138E828F83E07006E50AD2E58004E50A50
:1039D300D2E6F50A1217C4E964017006E50AD2E0DB
:1039E300F50A8E828F83E06017E508241DF582E5D2
:1039F30009340012375364016006E50AC2E0F50A90
:103A0300E50AA2E14004D2E7F50AA90A026F6812A7
:103A130070E4640222C082C08379018A828B83A30B
:103A2300A3E0C394024001198A828B83A3A3A3A3B7
:103A3300E0C39402400279008A828B83A3A3A3A3E9
:103A4300A3A3A3A3A3125BDF74F86C700374FF6DCD
:103A5300601E74F96C700374FF6D601474FA6C70FB
:103A63000374FF6D600A74FB6C700374FF6D700266
:103A730079008A828B83A3A3A3E0FC900370E06C9C
:103A83006002790090316FE493C394805018E493FB
:103A9300C333C0E0EA2411F582EB127BAEFAD0E027
:103AA300C39A500279000256DD74E8120B5474DC99
:103AB300121142EAFEEBFF74031213911269C875E7
:103AC30014007515007405121391AC82AD838E82B8
:103AD3008F83A3A3A3126BE21263AD121722E960D3
:103AE3000F7405121391AA82AB8312162CE9700886
:103AF300790112251A0240F0EE241B1259B77412F1
:103B03001213911268C5740B121391E06023741C95
:103B1300121391E0FD7406121391E0FC8E828F83E1
:103B2300A3A31263AD7901122652E96004790280DE
:103B3300C17405121391AA82AB83121626E9F50804
:103B4300740B121391E0702990036AE060237422CE
:103B530055086422601B74425508644270CF742276
:103B6300121391125C05FA74066A600574076A7091
:103B7300BCE9A2E650127405121391AA82AB831218
:103B83001614E97003023AF3EE2412F516EF34002B
:103B9300F517EE242A123973242C124105124727F4
:103BA300E0687003A3E069701C75090078091210BE
:103BB300B578091210B5EE242E12410C12412012D1
:103BC3004A251210DE740B121391E07003023C6A53
:103BD3001241201241148A0A8B0BA80AA90BE87020
:103BE30001E97003023D0E740612139112411BFA90
:103BF300A3E03400FB740D2AF582E43BF583E0FA7D
:103C0300E82404F50AE912777BE82403F582E91234
:103C13007BAE6A600DEAF09081B8780C12130D1236
:103C230041657904740612139112411BFCA3E0341D
:103C3300008C82F583A3AA82AB83121DAC8A0C8B02
:103C43000D8C0E8D0F850A82850B83781012130D50
:103C53007810790C1212DD50030240F09081C07885
:103C63000C1211FF124165EE24241240FAEE2430A7
:103C7300F50CEF126BD5EE242F12777890036DE0DD
:103C8300A2E15003023DA7900382E0FA74046A6044
:103C93000874096A60030240F0E508A2E5400302E4
:103CA3003D5412414CC0E07401121391D0E0124A0A
:103CB3004FC0E07402121391D0E0F0741612139106
:103CC300E06401702074101213911241307003A349
:103CD300E0697011740E121391123A127007741680
:103CE300121391E4F0850E82850F83120EA17404E2
:103CF300121391AC82AD837409121391AA82AB8320
:103D030012148E74041210DE0240F09003C7E064B4
:103D1300016003023C6A7422121391125C0564066B
:103D23007009E508A2E65003023C6A74121213916B
:103D3300E064FF7004A3E064FF70030240F0EEFC54
:103D4300EFFD7405121391AA82AB83121638024059
:103D5300F0A2E640030240F0742212139112413C98
:103D6300701E741C121391E0640260030240F0742D
:103D730005121391AA82AB8379001217940240F0C3
:103D830074076A60030240F0741C121391E0640428
:103D930060030240F07405121391AA82AB831217D9
:103DA300880240F07416121391E0601D8E828F8397
:103DB300A3A3124A41141261AFA3124A41C0E07493
:103DC30016121391D0E0F07006E508C2E7F50890EB
:103DD3000382E0FA74046A600574096A7061740E00
:103DE3001213911262BB7003A3E06B60171217C426
:103DF300E96402600F740A121391E05403640160D2
:103E0300030240F07407121391E0701B12414CC07F
:103E1300E07401121391D0E0124A4FC0E074021211
:103E23001391D0E0023CE7742212139112413C70CB
:103E330003023D6574076A60030240F0023D8B751F
:103E43000900746155087003023F5BE508A2E05066
:103E530070851682851783125BDF7405121391AA8E
:103E630082AB83121596E97055121752E9F509745E
:103E730016121391E0700F741012139112413070E7
:103E830003A3E069603BA909851682851783125B4A
:103E9300DF7405121391AA82AB8312159CE9601398
:103EA300740E121391126FE11213911268C57514F7
:103EB30004800EE508C2E5F5087509008003530880
:103EC3009FE508A2E5503C12414CC0E07401121377
:103ED30091D0E0124A4FC0E07402121391D0E0F087
:103EE300850E82850F83120EA17404121391AC8286
:103EF300AD837409121391AA82AB8312148E7404D6
:103F03001210DEE508A2E6400302402874031213F0
:103F13009185820A85830B780A1210B1A909851647
:103F230082851783125BDF7407121391AA82AB8316
:103F330012161A74021210DEE9F509700302402802
:103F43007422121391125C05640160030240287409
:103F5300104514F5140240287407121391E064010C
:103F6300703B7422121391125C056405702F740365
:103F730012139185820885830978081210B179009C
:103F8300851682851783125BDF7407121391AA8249
:103F9300AB8312161A74021210DE0240F07416126A
:103FA3001391E070127422121391125C0564036082
:103FB30003023D410240F0121698E960030240F00B
:103FC300740E121391126FE11213911268C57809DE
:103FD3001210B5741E121391AC82AD83740F1213B9
:103FE300911263AD740A121391E0F91215D874019A
:103FF3001210DEE9600F7514208E828F83A3A31243
:104003005C05543FF079007410121391125BDF7456
:104013000E121391124144600674204514F51412D4
:104023001752E9F5097403121391E064FE7004A3B7
:10403300E064FF7003750900E508A2E7400302404E
:10404300F0E50970030240F08E828F83A3A3A3A33C
:10405300E0FA7B00121E3C8A0A8B0BEA7001EB70BC
:10406300030240F08E828F83A3A3E0F50CA3E0F557
:104073000D750E00780C1210AD8E828F83A3A3A34F
:10408300A3E0FC7D001250311210DE74071213916D
:10409300E0851882851983F07401121391E4F0A36B
:1040A30012609785820C85830D780C1210B17814F9
:1040B3001210B1E509F50878081210B58516828546
:1040C3001783120EA58E828F83A3A3A3A3E0F97493
:1040D3000A121391125BDFAA0AAB0B1217107407B3
:1040E3001210DEE96007AA0AAB0B121E42742412F7
:1040F30010DE7F10020E2DF50EEF3400F50F22EEC9
:10410300240EF582EF1277EC22F582EF126A97F90B
:1041130022125877121848221273D42A22850A824F
:10412300850B831259D385168285178322125CDD92
:10413300851682851783E06822125C09FA74046A83
:1041430022125877121518E922EE242E126A94854A
:10415300188285198312415C22F0850A82850B83BC
:10416300E022850A82850B83E50CF0A3E50DF0A31D
:10417300E50EF0A3E50FF02274F2120B54EAFEEB06
:10418300FF8C088D0912373A8882F5831263AD904C
:104193001221E06011900373E06A7003A3E06B7077
:1041A3000512150C805379001215B48A828B83E5AE
:1041B300827002E583603AA3A3A3A3A3A3E05418E8
:1041C300602FE508241BF582E509124108120EA5AC
:1041D300E5082412F582E509124108120EA5EE2422
:1041E3001812410C1241FF1215E474041210DE8000
:1041F3000879001241FF12153002340D850A8285B9
:104203000B831259D3EE240B1258702274EE120B47
:104213005474EA1211428A0C8B0DEA2402F50EEB58
:104223001240FD0A0AFB1226288A088B09AE08AF42
:1042330009750901850C82850D83A3E0F508750ACC
:1042430001AC0EAD0F851882851983AA82AB831248
:10425300253274081213911269C8740A12139174E7
:1042630002F07413121391E4F0E50C240AF50CE543
:104273000D126BD5901C63E07010EE7001EF700AA5
:10428300E50870067509C30243E5900382E06408FC
:1042930060067509C20243E1850C82850D83E0A2A5
:1042A300E1500EA2E35005750A04800C750A0380E1
:1042B30007A2E35003750A02EE7001EF60648E8279
:1042C3008F83A3A3A3A3E0FA74046A600574036A4B
:1042D300700C7404650A601C7403650A601674022A
:1042E3006A600574016A70207402650A60067401CD
:1042F300650A700F8E828F83124D291213911268F3
:10430300C5801F74026A600574016A700A8E828F09
:1043130083124E8612278FAA0EAB0F1226107E0031
:104323007F007408121391E064FE7004A3E064FF3D
:10433300703812277EE97032E50860179003BFE0FA
:104343006402700F901C6A124D29121391E8F0A3B6
:10435300E98016850C82850D83E05402F91215421B
:104363007408121391EAF0A3EBF07408121391127C
:104373004485700374FF6B70057509C78060E50899
:10438300F50B780B1210B5850C82850D83E0F9AC23
:104393000EAD0F1214A674011210DEE97040A90AC3
:1043A300AC0EAD0F740812139112455F8A108B1176
:1043B300AE10AF11EE7001EF601C74026508700B54
:1043C300EE2405127BAB54FB4408F0740A121391DC
:1043D300E4F0F509800874081213911269C8E5081E
:1043E300700F851882851983AA82AB8312255680A4
:1043F30010FCA90A851882851983AA82AB83121738
:1044030082E9FAEE7001EF603EEE2405F8EF340026
:10441300F9E508601288828983E0D2E6F0740265C8
:10442300087004E0D2E5F0850C82850D83E0A2E6F6
:10443300500888828983E0D2E7F08E828F83A3A31A
:10444300A3A3A3A3E004F0E5097003EA602FFC7DB6
:10445300007A017B10122514EE7001EF6007AA0E9B
:10446300AB0F122610740812139112448570037453
:10447300FF6B600990035A1266CC12278F741602E1
:10448300531C12587774FE6A2274F6120B5474F795
:104493001211428A088B09900382E0FA74036A605E
:1044A3000D74016A600874096A600302455C85083B
:1044B300828B83A3AE82AF83E060030245417C001D
:1044C3007D007A027B00122514E50824021253357D
:1044D300126F5D1268C5795312254A790012456639
:1044E300900382E0640960099003801263AD12189F
:1044F3004274011266F97404900382F0740112137A
:1045030091AA82AB83794A1225447401121391ACA8
:1045130082AD837A787B03122532790074011213FA
:1045230091AC82AD8390037612455F90036DE0A258
:10453300E35004D2F08002C2F01266E18018FC7DE1
:10454300007A037B101225148E828F83E0F91245C3
:1045530066E4900382F01216740266BE1258771254
:1045630026BE229003801258771214A022C082C064
:1045730083900342E07002A3E07041900382E01253
:104583000F83000301924505A14506B045BF459041
:10459300034AE07002A3E0607690034A806B9003C5
:1045A30046E07002A3E06067900346805C90034896
:1045B300E07002A3E06058900348804D900342E00E
:1045C3007002A3E06009124A3EFC74016C70237907
:1045D300009003CE800909EA1271F1EB124108122F
:1045E300560D7001EB70EF9003CE1263AD1214946D
:1045F300801D74026C700512181280139003F9E089
:104603007002A3E060099003F91266CC12278F02AF
:1046130056DD74F4120B5474FB1211428A088B0991
:104623007A0F7B00121DB88A0A8B0BAE0AAF0BEE12
:104633007001EF700302472274028E828F83126F20
:104643006E7950122544850882850983A3858208E3
:10465300858309E0600302470B9003801277907013
:104663000374FF69602F74FE68700374FF6960252B
:10467300851882851983E0687003A3E06960167466
:10468300EA850882850983124C037A807B0379507B
:1046930012254A8073851882851983124727126869
:1046A300C57A737B0379531225449003731268BF51
:1046B3007A767B03794B1225447A757B0379E11271
:1046C3002544900387E0C3940F5022900375E0C004
:1046D300E07402121391D0E0F07404121391740188
:1046E300F07402121391AA82AB8312256E750A002D
:1046F300780A1210B5780A1210B5901D5FE0F9120E
:1047030050D7124A251210DE850882850983124A82
:1047130001F07403900382F0EEFAEFFB1268B674B3
:1047230005026254125CDD9003802274EC120B5478
:1047330074ED1211428A828B83A3124A06EA24087B
:104743001259B0FEE9FF851882851983AC82AD83C7
:104753008E828F83124A2EA3A3A3A31263AD1216D4
:1047630086851882851983E070768E828F83E0C3F5
:10477300940B406C850882850983A3A3A3A3A3A3F9
:10478300A3A3E064027059900382E0FAE5082410C1
:10479300F510E5093400F511E5082409126BD1740D
:1047A300026A604174066A603C900342E07002A3AF
:1047B300E06007124A3E6401605474086A6005743D
:1047C300046A701C7402121391E0F97407121391B6
:1047D300AC82AD83850C82850D831263AD12168C7A
:1047E3007413027353900342E07002A3E0701F75C9
:1047F3000A00780A1210B5780A1210B5851082855E
:1048030011831249F812533D124A251210DE900308
:10481300CE1278169003CE12734BE508240DF50ED5
:10482300E5091240FD80318E828F83E0F8A312499F
:10483300F8E0687003A3E06970128E828F83A3A3EC
:10484300E0FA850E82850F83E06A606B8E0A8F0B18
:10485300EE1271F1EF127813EE7001EF70C97A184E
:104863007B00121E3C8A128B13AE12AF13EE700143
:10487300EF70030247E37C1812796B1269BFEE24D1
:104883000C12410574FFF0E508240B1277C112499D
:10489300EF127A26C41249EFA3A3F09003CEE0707F
:1048A30002A3E070059003CE800AE50A1271F1E5D8
:1048B3000B1241081276237401121391124A10A3AA
:1048C300F07402121391124A10F0850E82850F8341
:1048D300124A01A3124A4F1249E61261BA240DFA91
:1048E300EF3400FB7402121391E06401600E74074D
:1048F300121391AC82AD8312253280097C087D00AE
:1049030079FF121DA67412121391E0C0E0EE241574
:10491300124105D0E0124A46FC901D5FE0C39C4063
:10492300030247E312779EE509124108A3E054808E
:10493300F9E47001E97009901142E070030247E362
:104943007D00EE240CF8EF3400F9EE240BFAEF347B
:1049530000FB9003BFE06402701D8A828B83E0F545
:104963000AC39C500D7405121391E0C39405401BB8
:10497300801AE50A6C70157405121391E0C0E08883
:10498300828983E0FCD0E0C39C50010D74041213B0
:1049930091E06020ED601D850882850983126F7A9E
:1049A300ECF0A3ED124A468A828B83F0740512134E
:1049B30091125BFA7406121391E0600D74018E82FA
:1049C3008F83A3A3A3A3A3A3F07404121391E07092
:1049D300030247E374018E828F83A3A3A3A3A3F0EF
:1049E3000247E3F8A3E0F98E828F8322540F8E826D
:1049F3008F83A3A322E0F9850C82850D8322124FB6
:104A030061A322A3A3E0F508A3E0F50922124F61F5
:104A13008021850C82850D83124A2E1259CF8A82FA
:104A23008B83125877121758740222E0F98A828B0B
:104A3300838002A3A3A3A3A3A3A322900342125E92
:104A430071E022F0851082851183E022F0850C82CB
:104A5300850D83E02274F6120B5474C9121142902F
:104A63000382E064086062900393E0F82453F582C4
:104A7300E4341DF583E0FA900364F0E82459F582E9
:104A8300E4341DF583E0FB900362F07508FF7509BC
:104A9300FFEA7808121297E508F4FCE509F4FD3300
:104AA30095E0FE90038B124BF87508FF7509FFEB39
:104AB300C39A7808121297E508F4FCE509F4FD336C
:104AC30095E0FE90038F124BF8E41266EF7904121F
:104AD300254A900393E07009741E121391740180A8
:104AE30006741E121391E4F0740F851882851983DE
:104AF300F0901C68126F6E794612254A74011213E6
:104B030091E4F0901D3EE0C0E07402121391D0E0F6
:104B1300F0900370E0C0E07403121391D0E0F074DE
:104B230004121391E4F07405121391E4F074071264
:104B33001391E4F0900393E0FAC3940F74065006C4
:104B4300121391EA8005121391740FF07C947D0384
:104B53007408121391AA82AB831225327C037D0061
:104B630079FF7410121391AA82AB83121DA69003CE
:104B7300CCE0C0E07413121391D0E01267EF12136C
:104B8300911267DE121770900387E0C0E0741C1265
:104B93001391D0E0F0900388E0C0E0741D121391EC
:104BA300D0E0F0900375E0C0E0741A121391D0E0E6
:104BB300F09003801259BD74181213911268C574D2
:104BC30020121391E4F090038AE0C0E0741F1213E3
:104BD30091D0E0F07434121391E4F074291213911C
:104BE300E4124C037414121391AA82AB8312256846
:104BF30074370266C0ECF0A3EDF0A3EEF0A3F0224D
:104C0300F07A737B037953124C0E2212254A7A767B
:104C13007B03794B12254A22C082C0838A828B830D
:104C2300A3E06007E4900382F0804A740890038253
:104C3300F0900393E0701F90034CE07002A3E060D8
:104C43000B790090034C1266CC12278F90038012CD
:104C53005BDF7A05801A790012149A900373125B52
:104C6300DF7A067B00122514900376125BDF7A0449
:104C73007B001225140256DD74F4120B5474EA12ED
:104C83001142EA2402FEEB3400FF0A0AFB12262833
:104C93008A088B09EA7001EB7003024D248A828B28
:104CA30083125E53600F74026A600A74036A6005BC
:104CB30074046A706CEEFCEFFD851882851983120B
:104CC3006D8C124D291213911268C5740A12139137
:104CD3007401F07413121391126F6D12255C890A1B
:104CE300AC0A7D007A077B001225148508828509AA
:104CF30083A3A3A3A3A3E0C2E0F074018508828584
:104D03000983A3A3A3A3A3A3A3A3A31277F11208C5
:104D13008FE8850882850983A3A3A3A3A3A3A3A3E1
:104D2300F07416026254125CDD74082274F0120BE4
:104D33005474F81211428A0C8B0D8C0A8D0B890E58
:104D4300851882851983AC82AD8375838175824C06
:104D53007408120FF3F50FAC0CAD0D85188285198D
:104D630083AA82AB831273FD7003750F019003CE88
:104D73008030AC0CAD0DEE240DFAEF3400127A192D
:104D8300601A850882850983E0650E700F8E828F15
:104D930083E0650A7004A3E0650B6032EE2416120B
:104DA30041051256D17001EF6024EE240212532400
:104DB300E50F70BE8E828F83E0650A7004A3E06501
:104DC3000B70D9850882850983E0650E70CEEEFAF3
:104DD300EFFB0261A574F7120B549003CEE0FAA324
:104DE300E0800CEA2416127810121E42EEFAEFFB52
:104DF300EA7001EB70ED9003CEE4F0A3F0025837B4
:104E030074F4120B548A088B09EA240BFEEB34006A
:104E1300FFEA2413F582EB127BAE64037009EEFA0A
:104E2300EFFB122628800CE0640270548E828F837D
:104E33001277CDEA7001EB6047EA2406F8EB1237EC
:104E43003F850882850983A3E07007E4888289830C
:104E5300802D64F16005E064E1701A88828983E043
:104E6300640170118A828B83124E8612278FEEFAA9
:104E7300EFFB122610850A82850B83E0600214F093
:104E830002625712587790035A1266D02274F112B5
:104E93000B548A088B09ECFEEDFF890A8A828B8307
:104EA3001273808A828B83124F60F0EEF8EFF9A3BE
:104EB3000EAF838A828B83A3A3E0C454F0FA888263
:104EC3008983E04A124F6A124F61124F65E0333310
:104ED30054FCFA8E828F83E04A124F65A3E033338A
:104EE3003354F8FA8E828F83E04AF008EFF9A30E69
:104EF300AF838508828B83A3A3A3A3A3A3E0A2E02C
:104F0300E492E013135480FA88828983E04AF0E53F
:104F1300082407F50CEB126BD5750E00780C1210F4
:104F2300AD7C08125FC61210DE12736AE508240F07
:104F3300126BD1780C1210AD7C03125FC61210DE17
:104F4300E50AC3940F4011E5082412F582E509121E
:104F53004108124A01A3A3F07F07020E2DA3E0022A
:104F630049EA124F6AA322F08508828B83A3A3A385
:104F73002274F1120B54EAFEEBFF890A8C088D09A7
:104F83008E828F83E08C828D831261AFAE82AF837A
:104F9300E012626C125043C412626C125037E05438
:104FA300038C828D83125041A2E2E492E08C828DC5
:104FB30083125040131313541F12626CA3125040F8
:104FC300A2E7E492E08C828D83A3A3A3A3125037BC
:104FD3008E0C8F0D750E00780C1210AD7C087D00C1
:104FE300E508240712502B1210DE12736A8E0C8F01
:104FF3000D780C1210AD7C037D00E508240F1250D0
:105003002B1210DEE5082412F8E5093400F9E50A4D
:10501300C3940F400A8E828F83A3A3A3E08001E48D
:1050230088828983F0024F5BFAE5093400FB121D85
:105033009A740322A3A31261B30EAF8322A3A3A383
:10504300A3F002741B74F4120B5474F9121142EAA4
:10505300FEEBFF900342E07002A3E06010124A3EB1
:1050630064027009EEFAEFFB12180C806290038061
:10507300E06E7003A3E06F705674016960097A945F
:105083007B031273FD70487A007B02125347700151
:10509300EB703C900383780812130D8518828519F1
:1050A300837808121349900389E0C0E07404121353
:1050B30091D0E0F074051213917401F07406121389
:1050C300917402126F6E121446E9609812144C74B4
:1050D300070262549003801259D390037622E0F9B9
:1050E3000256DD74F6120B549003E0E0701F7C004F
:1050F30079017A007B001216C2EA7001EB600E8A16
:10510300828B83E07002A3E060031216080266C379
:10511300C082C083125578401079FF1216BCE9FA99
:10512300903165E493C39A500479018002790002B7
:1051330056DD74EE120B548A088B09890D750E0027
:10514300EA2408F50AEB125BD3E0F91216C88A10B9
:105153008B11AE10AF11750C01EE7001EF600302FD
:1051630051FB850882850983A3A3125BF012609F1C
:105173001263AD1216B08A0A8B0BAE0AAF0BEE7038
:1051830001EF70030253158E828F83A3A3A3A3E4BD
:10519300F0A3F0E508240B125335E0C0E0EE240B36
:1051A300124105D0E0F01217D0EE240C126BEFE59C
:1051B30008240EF582E5091259BA1241021268C594
:1051C300750E01EE2406F8EF125587E0547FF0A325
:1051D300E054FC1254CDE054046003025283901D4A
:1051E3003B126090740778081212978A828B83E0CF
:1051F3004508F0A3E04509F0EE240612532C8C82F7
:105203008D831263AD74805AF50874035BF50974DA
:1052130007780812132BE508F510EE2404123973EE
:105223002409125324E50D60607402850882850900
:1052330083125044240D125E5DE0A2E2500F9003EE
:105243006E1259BD850A82850B831268C5E51070FD
:10525300030252E2747F5AFA74FC5BFB74FF25105D
:10526300F51074FF3400F51174077810121297E5E6
:10527300104AF8E5114BF98C828D831268C5805F63
:10528300E04480F0A3E00251FAE5107005750C00CC
:10529300804DEA54206015121DB28A10747F551098
:1052A300F8745F28850A82850B83801BEA5410609B
:1052B3000E121DB28A10740F5510F8740A80E4851B
:1052C3000A82850B837401F0A3E4F07404850882D9
:1052D300850983F01253437001EB700312669B74CC
:1052E30001650E7030850A82850B8312533DE0F908
:1052F300EEFAEFFB1216B6E9601BEE240C12410521
:1053030012560D7001EB6003121E42EEFAEFFB1210
:105313001E42750C00A90C80031210DE7F0A020ED8
:105323002DF508EF3400F50922F8EF1259B2FCE924
:10533300FD22FAE50934000254D41259D3026A84D7
:105343007A207B009003CDE0F9121F02EA2274F663
:10535300120B5474F71211427E001216C8EA700140
:10536300EB700302541E8A828B83A3A3A3A3A3A37C
:10537300A3A3A3E06406600302541E8A828B83A363
:10538300A3A3A3A3A3A3E0FF8A828B83125E6BE094
:10539300C0E07408121391D0E01254CD1266CC12FF
:1053A3006D061268C51216E674085FF9E47001E928
:1053B3006067851882851983125BDF7A007B001290
:1053C30016AAEA7001EB70519003801259C112259D
:1053D300867C007D007A007B0080288E828F83127A
:1053E3006A79E064FF7004A3E064FF602C9003809B
:1053F300125BDF122280E9641A601E7C007D00EEDE
:10540300FAEFFB1216AA8A088B09AE08AF09EE70F1
:1054130001EF70C7790012258C7E01EEF90266BE9A
:1054230074F7120B54EA7001EB70059003E18006E8
:105433008A828B83A3A312560D7001EB60288A82A4
:105443008B83A3A3A3A3A3A3A3E05408F9E470014C
:10545300E960DDEC7001ED6011125C016C7003A377
:10546300E06D70CC80047A007B0002583774F2122E
:105473000B54EAFEEBFF890A8C088D097A107B0036
:10548300121E3CEA7001EB603CE48A828B83A3A387
:10549300A3A3A3A3A3A31254DAE50A1258421269E1
:1054A300B78A828B83A3A3A3A3E4F01254DA125422
:1054B300CB127623EA240CF582EB127A201254CC19
:1054C300A3A3F0A3F002340DA3A31254D122F080BE
:1054D30001FB8A828B8322A3125846A3A32274F56D
:1054E300120B54EAFEEBFF890A8C088D09EE70015A
:1054F300EF60567401650A701479011216BCE9FA5B
:1055030090316CE493C39A500F79118065740465EC
:105513000A703012557840F18E828F83A3A3A3A320
:10552300A3A3A3A3A3E50A1261C8127C8EE4F0A38C
:10553300F09003E1E07002A3E09003E160241259CC
:10554300BD800A7402650A60CF79C18025E8240210
:105553000808E912558712567B7001E970EF8A82B9
:105563008B831276231253437001EB700312669BF5
:105573007900026F6879041216BCE9FA903173E47A
:1055830093C39A221259B2FAE90254D4C082C08357
:10559300E9FC79009003E1801D8A828B83A3A3A396
:1055A300A3A3A3A3A3A3E06C600574FF6C7001091C
:1055B3008A828B83A3A312560D7001EB70DB025614
:1055C300DD74F7120B54EA7001EB70059003E18070
:1055D300068A828B83A3A312560D7001EB60248A83
:1055E300828B83A3A3A3A3A3A3A3A3A3E06970E1D3
:1055F300EC60148A828B83E0240D127415A2E240BE
:10560300D080047A007B00025837125877EA22C010
:1056130082C0839003E180068A828B83A3A3125600
:105623000D7001EB60128A828B83A3A3A3A3A3A3B0
:10563300A3A3E06970E280047A007B000256DDC018
:1056430082C0839003E1800688828983A3A31256D4
:105653007B7001E9601B88828983E0FCA3E0F5830A
:105663008C82E06A7003A3E06B70DDE8FAE9FB80EB
:10567300047A007B000256DD125CDDE82274F1122D
:105683000B548A0A8B0B8C0C8D0D75080075090061
:10569300EA7001EB60319003E180068E828F83A371
:1056A300A31256D17001EF601EAC0CAD0DEEFAEFF4
:1056B300FB850A82850B8312278FE9640170DCEE78
:1056C300F8EFF988088909AA08AB09024F5BE0FEE5
:1056D300A3E0FFEE2274021210DED083D082021008
:1056E30076790002107674F7120B549003E1125985
:1056F300BD7C007D008007E8FCE9FD1259BDE87020
:1057030001E9603AE82402F582E9124108EA687087
:1057130002EB6970E21263AD9003E1127816E86E52
:105723007002E96F70099003E1EAF0A3EB800EEADF
:10573300F8EBF98C828D83A3A3E8F0A3E9F0025878
:105743003774F7120B54EAFEEBFFEE7001EF6016AD
:105753001216E012584EEA7001EB6003121E42EE7D
:10576300FAEFFB121E4202583774F7120B54125C05
:1057730001FCA3E0FD9003E11259BD7508007E0012
:10578300803388828983A3A3A3A3A3A3A3A3A3E0B2
:10579300640570180E88828983E0FFA3E0F5838F88
:1057A30082E06C7003A3E06D700205088882898330
:1057B300A3A31259BDE87001E970C7EA2404F8EB0A
:1057C3003400F9903162E493FCE508C39C500B90DC
:1057D3003163E493FCEEC39C400B8882898374019C
:1057E300F0A3E4800A90036E12583CECF0A3EDF0B2
:1057F30074058A828B83A3A3A3A3A3A3A3A3A31246
:105803005842E0F0A3E044081261C18A828B83E02E
:1058130064FF7004A3E064FF600E900380125BDFFB
:10582300122580E9641A7005790112258C800574AC
:105833001F1210DE7F01020E2D1259D302761812A9
:10584300584622F08A828B83024A378E828F83E006
:10585300241C12587DFAA3E0FB121E428E828F8312
:10586300125877121E42EE240C12587022F582EF62
:105873003400F583E0FAA3E0FB22125E65E022C068
:1058830082C083EAFCEBFDEC7001ED7004790580C6
:105893004CEC24FBF582ED34FFF583E07002A3E0CA
:1058A3007011EC24FFF8ED34FFF988828983E064FA
:1058B300FF6005121DBE80D59003CD125BFA9031B7
:1058C30067E493F97AE37B03121DEEE96401700B3D
:1058D3007A007B2012669F7900800279040256DDEC
:1058E30074F4120B54A2AFE492E0F508C2AF900334
:1058F300E31256D17001EF603DEE24FBF582EF34E5
:10590300FFF583E07002A3E07A007B209003CD6073
:10591300051266A28005E0F9121DFA750A00750BDF
:1059230000780A1210B1EEFCEFFD7AE37B03121D3F
:10593300E874021210DEE508A2E092AFEEFAEFFB84
:1059430002625774F7120B5474E1121142EA2413E2
:10595300F582EB127BAEC0E07411121391D0E0120A
:105963005CD47409121391125CCD1259AAFCE9FD9F
:105973008C828D831259BD740B121391125CCD244A
:1059830014F582EB127BAEC0E07412121391D0E0D7
:10599300F0EA240EF582EB12410F8C828D831259AB
:1059A300C112159C02583224041259B022F8EB3468
:1059B30000F9E822F582EF1277EC125CDD2212592E
:1059C300D3851882851983AA82AB8322A3A3A3A3B9
:1059D300E0FCA3E0FD2274EE120B5474FC1211429E
:1059E300EAFEEBFF121698E960057911025BCEEE31
:1059F3002412F510EF3400F511EE2402F50AEF122C
:105A03005BD31270E06008E4851082851183F0EEA9
:105A13002413125FCF700C90316FE493850C828551
:105A23000D83F0EE2411F8EF126BDA70199012184F
:105A3300E0600D90036AE0700D8E828F83E0700644
:105A4300E488828983F0EE2414080808EF1277C4EF
:105A5300700C90035F125BFA90035FE004F0EE2496
:105A63000F125324EE240B1240FA90036DE0A2E1CF
:105A7300504F850A82850B831270E060448E828FBB
:105A830083E0600B850E82850F8312375560328564
:105A93000882850983E05440601A850C82850D8352
:105AA300E06401700F850882850983E054FBF0A34D
:105AB300E0F0800DEEFAEFFB1216FEE970030259D7
:105AC300ED8E828F83E06401701A850E82850F83C9
:105AD300125C056402700D850882850983E04440E9
:105AE300F0A3E0F0850882850983E054407052906A
:105AF300036DE0A2E1504A750C00780C1210B5EE6C
:105B03002406FCEF3400FD850A82850B831263AD06
:105B1300851082851183E0F91215D874011210DE05
:105B2300E9600CE4851082851183F0125BE3F07960
