:020000040000FA
:060000000212FC020831AF
:03002B00021110AF
:03004300020FACFD
:0300530002076E33
:03005B00020AE6B0
:03006B00020ED1B1
:100083000207C5010101010503010F10FEFFB71AA5
:10009300B71AB71AB71A6D196719B71A262F0000BE
:1000A30000009E2D000000000C0000000C0001FA6F
:1000B3000A00000000000000000000000000000033
:1000C300000000000000000000000000000000002D
:1000D300000000000000000000000000000000001D
:1000E300000000000000000000000000000000000D
:1000F30000000000000000000000000000000000FD
:1001030000000000000000000000000000000000EC
:1001130000000000000000000000000000000000DC
:100123000000000000000000000000000000006468
:1001330000000000006D1C000000000000091D000D
:10014300000000000000005707FF0101010200A4A6
:1001530013000000F513E80364006400B801020211
:10016300050107051E02051E020A03B80B803E01A6
:10017300021002020A0505050500280A0A0A0A00F8
:10018300063031323334353637383941424344450A
:100193004600286E756C6C20706F696E74657229E9
:1001A300003F3F3F000000803FF9021550B743BABC
:1001B300510000204100E7DB2E0000A040100000AA
:1001C30000080000000A00000012133960461213F1
:1001D3001B603DE9687008F618F618F618F62274E5
:1001E3008067F7120200090909748067F722121366
:1001F3001B601D1213397005191919801A12118207
:10020300701F1211ACC37003E66733191919400745
:100213001818182208080874FFF618F618F618F6C6
:10022300221211AC601712137C702192F012138604
:100233007019501720F014080808090909E7F6187F
:1002430019E7F61819E7F61819E7F622121386606C
:10025300E6E869701F0808E62480F608E436F61815
:10026300547FB47F0CE654806007F6E418F618F662
:1002730022181822E9C6CC08C6CD08C6CE08C6CFB8
:10028300C0E0E8C0E0EAC0E0EBC0E009E9F809E754
:10029300FA09E7FBE6F918E6F8C3EC98ED99EE9A4C
:1002A300EBC2E7F5F0EFC2E795F0500E600CEBCF31
:1002B300FBEACEFAE9CDF9E8CCF8EAA2E7D2E7FA0D
:1002C300EB33FB13F5F0EEA2E7D2E7FEEF33FFC506
:1002D300F013A2E730E601B313C5F0C3C0E0C0F0EA
:1002E3007F00C39BFB605B9418600C401AD0E02333
:1002F300F9D0E0F80203CF8AF0E9486003D2F0E4D2
:10030300AFF0FAF9F8803BEB30E40D89F0EA6003D3
:10031300D2F0E4AFF0F9CAF8EB30E30D88F0EF6008
:1003230002D2F0AFF0E4CAC9F8EB54076014FBC380
:10033300EA13FAE913F9E813F8EF135002D2E0FFD6
:10034300DBEDD0E0C0E030E739C3E49FFFF5F0EC2C
:1003530098FC42F0ED99FD42F0EE9AFE42F0D0E0B7
:10036300F9D0E0F8E5F0607AE923F9EE20E742D826
:10037300028067C3EF33FFEC33FCED33FDEE33FE56
:1003830080EAEC28FCED39FDEE3AFED0E023F9D00B
:10039300E0F84002801BC3EE13FEED13FDEC13FCEB
:1003A300EF135002D2E0FF08B800067F7F74FF808E
:1003B3002EEF3350178CF020F00260100CBC000CB1
:1003C3000DBD00080EBE000408E860DFE933E81342
:1003D300FFEE2313FE4F4D4C8008E95480FFE4FEEB
:1003E300FDFCEE33EF33F47004FCFD7E80D0E0FBC4
:1003F300D0E0FAD0E0F8D0E0CFC618CEC618CDC60C
:1004030018CCC6F92212131B7004181818221213E1
:1004130039700D74FFF61819F61819F61819F62223
:10042300E7548066F6121386700F12137C70F01473
:10043300F608F608F608F680D112137C700CF6085D
:10044300F608768008E6447F80EC1211AF700C1238
:10045300118560BFE65480F6E480BB1211857005F8
:1004630019191980A5E869700C763F18768018F67B
:1004730018F6E8F922E6CDC0E018ECC0E0E633CD8B
:1004830033CDD313F6E719FCE7191933CC33C394EF
:100493007F400ECD9D502408E65480F6E418F68084
:1004A3000FF4043D14501408E6447FF6187680E4F4
:1004B30018F618F6D0E0FCD0E0FD22CCD313CCFD27
:1004C30018E4C6CBC0E018E4C6CAC0E00808ED08CB
:1004D300C633E613F618E433C675F003C3CA97CAE6
:1004E30009CB97CB199C40047D08802EBD000302E5
:1004F30005B116B6FF050606081618C3CA33CACBDC
:1005030033CB33CA27CA09CB37CB193CC37D088009
:100513003E187D0820E75CC633C6CA33CACB33CB4B
:1005230033DDF1D5F0EB30E77BCA97CA09CB974AA5
:10053300CB199C406F4B7025E620E0218066187D27
:1005430008C3CA97CA09CB97CB199CD3C633C6CA6B
:1005530033CACB33CB3350C9DDE7D5F0E1D3E4C69F
:1005630036C608C636C608C636C608C636C61818FE
:10057300188031C3CA97CA09CB97CB199CB340974C
:10058300C633C6CA33CACB33CB33DD34D5F02EC61C
:10059300A2E0C640C8CA27CA09CB37194A70BECBE6
:1005A3003CB480B90808E63308E633601F1818180E
:1005B300D0E0FAD0E0FBD0E0FCD0E0FD22187D08CB
:1005C300CA27CA09CB37CB193CD3808013F618E46A
:1005D300B67F11F618B6FF0EF618C60470D20808D7
:1005E300768080CAF618F618F680C50012131B60D1
:1005F3004F1213396012E7548066F612118270119C
:1006030012137C703B090909F4F618F618F618F66C
:10061300221211AC701512138608080860EAE6442A
:100623007FF618768018E4F618F622121386601601
:1006330012137C7012E4F608F608F608E65480F606
:1006430009090918181822EAC0E0EBC0E0ECC0E081
:10065300EDC0E0E687F0A4FBACF008E687F0A42C3D
:10066300FCE435F0FA1809E687F0A42C4B60027419
:1006730001CA35F0FCE433FB09E687F0D2F7A42C7A
:10068300CB35F0FC1908E687F0A42BCC35F0FBE45E
:1006930033FD0819E687F0D2E7A42C4ACB35F0CD19
:1006A3003400FC09E687F0D2E7A42DCC35F0FDE455
:1006B30033FA0918E687F0D2F7A42CCD35F0CA3403
:1006C30000FC08E687F0D2E7D2F7A42ACC35F07A0B
:1006D3007E20E70B0ACB33CBCD33CDCC33CC33CB1E
:1006E3003350147004ED30E00ED2F1E4CD3DCDCCA7
:1006F3003CCC3B5005DA05C2F1EB547FC63308E628
:100703003392F0FBE73309E733C39A502D2B70196B
:100713000C0D4C4D70151806E608C333700D20F10F
:100723000AA2F013F6E418800B4024E4F630F0023A
:10073300768018F618F618F68024D33B14501074FC
:10074300FFA2F013F6187680E418F618F6800FA2CD
:10075300F013F618E63303F618ECF618EDF6D0E0CE
:10076300FDD0E0FCD0E0FBD0E0FA22C0E074F2124E
:100773000BB9A2AFE492E0FED2AFE5A7FAE5A1FB85
:10078300EA5B5410600812225B75A1EF802AEAA28B
:10079300E0C0D0EBA2E092F0121237158182F05044
:1007A30017906198E0FA9016D4E0C39AA2D265D06C
:1007B300335002EAF075A1FEEEA2E092AF7F010290
:1007C3000C70C0E074F2120BB9A2AFE492E0FED257
:1007D300AF9061A4E0FA759B00E5915A5408600854
:1007E3007591F712229D802AE5915A54106008757D
:1007F30091EF1222A3801BEAA2E0C0D0E591A2E010
:1008030092F0121237158182F05007E0C2E0F01225
:1008130023E79061A3E0FAE5E95A5404600E12233A
:10082300BD75E9FB906193E0A2E640F2808AC0E0E7
:1008330074F2120BB9A2AFE492E0FED2AF9061A5BD
:10084300E0FAE5BF5A5404600675BFFB1223FF02AA
:1008530007BBC3E498F8E499F91208968026C3E429
:100863009AFAE49BFBE920E7E9120896E498F8E496
:1008730099F922C3E498F8E499F9120896E498F8F0
:10088300E499F9C3E49AFAE49BFB22EB20E7CFE96E
:1008930020E7E0B90010BB0008E88AF084F8AAF06A
:1008A30022E4FBC8FA22EB70227B10C833C8C93399
:1008B300C9335007C39AC3DBF280069A50012ADB7F
:1008C300EAC833F4C8C933F4C9FA2275F008E4C896
:1008D30033C8C933C933C99AC99B5004C92AC93B10
:1008E300D5F0ECFBC833F4C8E4C9FA2212092F206F
:1008F300F01430E72B74FFFCFBFA747F8022E4FCD6
:10090300FBFA7480801AB48008BC00F2BB00EF804D
:100913000F50EBF9E4C39AFAE49BFBE49CFCE499E3
:10092300C6CC18C6CB18C6CA18C6F922E4C9C6086D
:10093300CAC608CBC6D3330308CCC63392F0C394DC
:100943007F402E94184019C9B90704CACBCC225052
:1009530025C309CA33CACB33CBCC33CC33D9F42226
:10096300F4600DC9CCC313CB13CBCA13CAD9F6CCCD
:1009730022E4FCFBFA2214FCFBFA22080808EAC072
:10098300E0EBC0E086F0E7A4FA180986F0E7A42AB2
:10099300FA180986F0E7A42AFA180986F0E7A42AC8
:1009A300FA1986F0E7A4FBE5F02AFA190886F0E7BE
:1009B300A42BFBE5F03AFA190886F0E7A42BFBE534
:1009C300F03AFA18180986F0E7A4C5F02BFBE43ACD
:1009D300FA1908E7C5F0C6A426F6E5F03BFBE43AAE
:1009E300FA1886F0E7A4F6E5F00826F6E43B08F6E5
:1009F300E43A08F6D0E0FBD0E0FA22080808E63033
:100A0300E7111211EA120A16080808C64480C6182C
:100A1300181822181818E9799EC608CAC608CBC642
:100A230008CCC6C370207996CACBCC7019798ECB0B
:100A3300CC70137986CC700EF9802ACA33CACB33B3
:100A4300CBCC33CC331930E7F2CCCBCA3350147050
:100A530004EA30E00DE4CA3ACACB3BCBCC3CCC50E1
:100A63000209C3E913C6CC182313C6CB18C6CA1888
:100A7300C6F922E4CFC0E0E4CEC0E0E4CDC0E0E4B8
:100A8300CCC0E075F020C3E633F608E633F608E69B
:100A930033F608E633F6181818EC33FCED33FDEEA5
:100AA30033FEEF33FFC3EC9709ED9709EE9709EF98
:100AB30097191919400FFFEC97FC09ED97FD09EE03
:100AC30097FE191906D5F0BEECF709EDF709EEF715
:100AD30009EFF7191919D0E0FCD0E0FDD0E0FED002
:100AE300E0FF22C0E074EB120BB9C2AFA2D850579B
:100AF3009081A0780812130C9006DE780812121168
:100B03009006DEC082901E42780812130C90819CDE
:100B1300780C12130C7808790C12097E758306D0B1
:100B23008278081212EC401F9081A4780812130CEB
:100B33009006DE78081213489006DB7461F0A37404
:100B4300EAF0E49006DAF0D2AFC2D87F08020C7064
:100B53002518C582C0E0E51934FFC583C0E0E51858
:100B6300C3958224F8F8E4C5A8858319858218C53E
:100B7300A8E8CEF0A3E520F0A37808E608F0A3DE0A
:100B8300FAEFF0A3E58124FAF8E608F0A3E608F00B
:100B9300A3E608F0A30808E608F0A3E608F0A31507
:100BA300811581D0E0FED0E0F8158115811581E82B
:100BB300C0E0EEC0E022C0D02518C582C0E0E51930
:100BC30034FFC583C0E0E518C3958224F310AF0852
:100BD3008583198582188008858319858218D2AF89
:100BE300C8F0A3E9F0A3EAF0A3EBF0A37908E709BF
:100BF300F0A3D8FAECF0A3EDF0A3EEF0A3EFF0A38B
:100C0300D0E0F0A3D0E0F0A3D0E0F0A3E520F0A380
:100C1300E5F0F0A322121371B90003020C5AE49019
:100C230003017896791B8002F0A3D8FCD9FA901DB2
:100C330096AA82AB83900086784779028015E49365
:100C4300A3AC82AD838A828B83F0A3AA82AB838C0D
:100C5300828D83D8E9D9E775820B75837E74001280
:100C6300106F758217758327740012106F851983AF
:100C7300851882E0C0E0A3E0F9A3E0FAA3E0FBA3B8
:100C83007808E0F608A3DFFAE0FCA3E0FDA3E0FEAA
:100C9300A3E0FFA3E0C0E0A3E0C0E0A3E0F5D0A39E
:100CA300E0F520A3E0A3F5F0E4C5A88583198582C8
:100CB30018C5A8D082D083D0E0F8D0E03212131B3D
:100CC300601C1213396017121386700712137C709D
:100CD30001D322C0D012137C7006D0D0B322C3221A
:100CE30033D0D0501430E0F6C3E7960809E79608EE
:100CF30009E7960809E796B32220E0D5E6970809A5
:100D0300E6970809E6970809E697B322D083D082CD
:100D1300ECC0E0EDC0E0E493A3FCE493A3FDED4C51
:100D2300600D120DEDEC24FFFCED34FFFD80EFE4CC
:100D330093A3FCE493A3FDED4C600D120F57EC2439
:100D4300FFFCED34FFFD80EFD0E0FDD0E0FCE49349
:100D5300A3C0E0E493C0E02212131B601B121339FB
:100D63006016121386700712137C600CB322C0D076
:100D730012137C7005D0D022C32233D0D05013304D
:100D8300E0EBC3E7960809E7960809E7960809E741
:100D9300962220E0E4E6970809E6970809E6970813
:100DA30009E69722D083D082E9C0E0E493A3C38607
:100DB300F0C5F095F0F908E493A386F0C5F095F03B
:100DC300700BE493A3C3994005E9048002A3E4757F
:100DD300F002A42582F582E5F03583F583D0E0F9AE
:100DE300E493A3C0E0E493C0E022C0E0C3E493969D
:100DF300087401939618400FE49366700808740111
:100E030093661870007019A3A3C3E4939608740142
:100E1300939618A3A3400DD0E0D0E0D0E0020D4B91
:100E2300A3A3A3A3A3A3D0E022851983851882E0FB
:100E3300A3FEE0A3F5207808E0A3F608DFFAE0A319
:100E4300FFE0A3C0E0E0A3C0E0E0A3C0E0E0A3C0F4
:100E5300E0E0A3C0E0E4C5A8858218858319C5A88E
:100E6300D083D082021075D083D082C5F0E493A3DF
:100E7300C5F0C395F0F5F0E493A3C395F04005E501
:100E8300F0048001E475F002A42582F582E5F035D3
:100E930083F583E493A3C0E0E493C0E02274048069
:100EA3000474028000CCC0E0EDC0E0E518C39CCC24
:100EB300AD1950011D10AF068C188D1980068C18C2
:100EC3008D19D2AF120FF2D0E0FDD0E0FC22C0E0CA
:100ED30074F2120BB9A2AFE492E0FED2AFE589A29D
:100EE300E64006E589A2E75003122183758900C213
:100EF300C5EEA2E092AF7F01020C7074028000CCB9
:100F0300C0E0EDC0E0E518C39CCCAD1950011D1045
:100F1300AF068C188D1980068C188D19D2AF120F5D
:100F2300D0D0E0FDD0E0FC2212131B602512133950
:100F33006020121386700302137C080808E76670AA
:100F4300101819E766700A1819E76670041819E78C
:100F53006622F422C0E0C0F088F0E49366700808CB
:100F630074019366187000A8F0A3A3700BD0F0D09F
:100F7300E0D0E0D0E0020D4BA3A3D0F0D0E022D02C
:100F830083D082CCC0E0E493A360061210131470E4
:100F9300FAE493A360061211571470FAD0E0FCE44C
:100FA30093A3C0E0E493C0E022C0E074F2120BB953
:100FB300A2AFE492E0FED2AFC2C0E5D1A2E45003F7
:100FC3001221CBEEA2E092AF7F01020C70CAC0E007
:100FD300E493A3C582CCC582C583CDC583F0A3C5E5
:100FE30082CCC582C583CDC583DAE5D0E0CA22CAE7
:100FF300C0E0E0A3C582CCC582C583CDC583F0A381
:10100300C582CCC582C583CDC583DAE6D0E0CA22CA
:10101300C0E0E493A3D39C5010E493A3C39C400A81
:10102300D0E0D0E0D0E0020F9FA3A3A3D0E02270D2
:1010330009080808226016181818C6C333C608C65C
:1010430033C608C633C608C633C6D5E0EA22C5820E
:101053002518C582C583351910AF07F51985821880
:101063008007F519858218D2AFC58322C09FF59FEB
:10107300E473D09F22D083D082C09FE493C0E074F6
:101083000193C0E0740293F59F222518F58210AFF7
:1010930008F518400215198008F51840021519D2F1
:1010A300AF851983227404800A7403800674028056
:1010B300027401C0E0F40412108DD0E01213572221
:1010C300BB0102E722C082C08389828A83BB0003FB
:1010D300E08002E493D083D08222C0D0251810AFE1
:1010E30008F518500205198008F51850020519D2A1
:1010F300AFD0D0226016080808C6C313C618C6139B
:10110300C618C613C618C613C6D5E0EA22C0E0C087
:10111300D0EAC0E0E5A8D2AFC2C7A2E792AFD0E061
:10112300FAD0D0D0E032C3E0C696F608A3E0C69664
:10113300F608A3E0C696F608A3E0C696F62225189D
:1011430010AF08F518400215198008F5184002156C
:1011530019D2AF22C0E0E493A36C7009D0E0D0E0D1
:10116300D0E0020F9FA3A3D0E022C3E7960809E7CC
:10117300960809E7960809E796A2D265D0332218A4
:101183001818E6084608700AE608C3337005E63304
:10119300F4220822E066701008A3E066700A08A330
:1011A300E066700408A3E06622191919E7094709E4
:1011B300700AE709C3337005E733F4220922C3E059
:1011C3009608A3E09608A3E09608A3E096A2D2654A
:1011D300D03322C3E096F008A3E096F008A3E0968C
:1011E300F008A3E096F022181818E4C396F608E472
:1011F30096F608E496F608E496F622E026F608A3A7
:10120300E036F608A3E036F608A3E036F622E02639
:10121300F008A3E036F008A3E036F008A3E036F0C8
:1012230022E627F60809E637F60809E637F608093D
:10123300E637F622C0E0E8C0E0E58124FCF8E6A248
:10124300E7D0E0F8D0E022E657F60809E657F608BB
:1012530009E657F60809E657F622E056F608A3E032
:1012630056F608A3E056F608A3E056F622E056F039
:1012730008A3E056F008A3E056F008A3E056F022D6
:10128300E647F60809E647F60809E647F60809E6D9
:1012930047F622700422600D18C6C333C608C6334E
:1012A300C6D5E0F41822E046F008A3E046F008A310
:1012B300E046F008A3E046F022600D08C6A2E7135B
:1012C300C618C613C6D5E0F322C6F4C608C6F4C6CC
:1012D30008C6F4C608C6F4C622C3E7960809E7960B
:1012E3000809E7960809E79622C3E09608A3E09663
:1012F30008A3E09608A3E0962275D0007581407597
:10130300180175190300020C18E0F608A3E0F608AB
:10131300A3E0F608A3E0F622E6084608C31346084E
:10132300336002E633F422600C08C6C313C618C642
:1013330013C6D5E0F422E7094709C313470933600D
:1013430002E733F422E6F008A3E6F008A3E6F00888
:10135300A3E6F022CAC0E0E6F0A308DAFAD0E0FA86
:1013630022C5822518C582C5833519C5832274F821
:1013730055C74401F5C7790122E7C3331947194714
:10138300194722E6C333184618461846222518F58E
:1013930082E43519F58322C2AF75D69F020000227D
:1013A3001210787B8C01121078548D01121078CAB8
:1013B3008D01121078078E011210786A8E011210B7
:1013C30078C08F01121078E08F01121078429001DB
:1013D300121078DF9001121078389101121078C73B
:1013E3009101121078839201121078C192011210A8
:1013F300783093011210788A9301121078C2930106
:10140300121078F494011210782E96011210788F2E
:101413009601121078D896011210780097011210D5
:101423007883970112107803980112107876980147
:101433001210789B9801121078AC98011210782042
:101443009901121078BB9901121078FD99011210BD
:1014530078839A01121078AA9A01121078D29B010C
:10146300121078E59B01121078339C0112107874E6
:101473009C01121078F99D011210788E9F011210B1
:1014830078C39F0112107860A0011210789FA00109
:1014930012107883A101121078BFA301121078C92A
:1014A300A301121078D3A301121078DDA301121047
:1014B30078E7A30112107801A4011210780BA4019C
:1014C30012107815A4011210781FA4011210784F7E
:1014D300A4011210785DA40112107881A4011210E6
:1014E30078A5A40112107804A5011210785BA50158
:1014F30012107879A501121078E9A5011210782647
:10150300A6011210786DA601121078D5A60112104B
:101513007864A7011210789FA801121078EFA80130
:1015230012107825AA0112107889AB0112107815D0
:10153300AE01121078E7AF011210789EB1011210BC
:101543007804B20112107814B301121078C5B301F4
:101553001210780AB401121078BBB4011210784942
:10156300B50112107871B50112107833B60112105B
:101573007819B9011210783EB90112107890B901A7
:101583001210788EBA01121078C6BA0112107806BA
:10159300BB0112107865BB0112107883BC011210D5
:1015A30078E3BC01121078C7BD01121078D1BF01D6
:1015B300121078F3BF0112107886C101121078CC93
:1015C300C101121078A0C20112107833C3011210A6
:1015D3007862C3011210788DC30112107878C401A8
:1015E300121078B4C40112107816C501121078A431
:1015F300C501121078A7C50112107816C601121082
:1016030078FA30001210784C3100121078A33300AE
:10161300121078EF3300121078E234001210784D74
:1016230035001210788E3500121078E4360012104F
:10163300780739001210789E3900121078323A0078
:10164300121078014100121078954100121078129F
:101653004400121078F644001210789B45001210D3
:1016630078B44600121078E54700121078DB480082
:10167300121078054C00121078C84D00121078280B
:101683004E00121078DC4E00121078854F001210B5
:1016930078B04F001210783D50001210782151009D
:1016A300121078F55100121078935200121078C07E
:1016B3005200121078E25200121078FE54001210F9
:1016C30078D055001210781D56001210788E5600EF
:1016D3001210783C5700121078715700121078BF1F
:1016E3005700121078EF57001210782D580012107F
:1016F30078915800121078965800121078F158001B
:101703001210781959001210782F5A00121078907D
:101713005A00121078F35A00121078865B001210E8
:1017230078BB5D00121078945E001210782460007C
:10173300121078B461001210785162001210789080
:10174300630012107829640012107871640012107B
:1017530078E46500121078F86500121078056600C9
:101763001210782066001210782C66001210784A46
:1017730066001210781C6800121078556800121069
:1017830078626800121078AF6800121078A26900BE
:10179300121078E66900121078786A001210787DCA
:1017A3006B001210784A6C00121078B46D0012109E
:1017B30078B96E001210784F6F00121078D26F0054
:1017C300121078E96F001210780D7000121078175C
:1017D30070001210782370001210784170001210FC
:1017E30078857000121078D670001210783371006B
:1017F3001210789471001210789B7200121078AC5A
:1018030073001210784B74001210783875001210A0
:1018130078CF7500121078667600121078957600EE
:10182300121078077700121078B57700121078DB62
:101833007700121078FA78001210781979001210D4
:1018430078887900121078017A00121078277A00CC
:10185300121078537A001210789E7A0012107822B0
:101863007B00121078C97C00121078F27C001210F1
:1018730078777D00121078D17D001210788CFF01EB
:10188300121078D7FF01121078E4C6011210781EE7
:10189300C701121078F1C701121078C7C8011210DE
:1018A30078F6C9011210787FCB01121078FDCB01B5
:1018B300121078C3CC01121078E4CD0112107856BF
:1018C300CE01121078B8CE011210781ACF0112107F
:1018D3007824CF0112107862CF01121078CBCF0198
:1018E3001210786AD001121078E8D0011210789B98
:1018F300D1011210780DD20112107833D2011210D7
:101903007863D20112107890D20112107836D30185
:1019130012107846D30112107899D301121078A5CA
:10192300D301121078B1D301121078BAD301121077
:10193300781DD4011210787DD401121078CED40111
:10194300121078E9D40112107819D5011210783ADF
:10195300D50112107846D501121078CDD601121098
:1019630078EBD60112107854D70112107867D7019B
:1019730012107878D7011210780BD8011210780E54
:10198300D90112107804DA0112107887DA011210E3
:101993007890DA01121078F3DA011210780ADB0179
:1019A3001210784CDB0112107891DB01121078C011
:1019B300DB01121078F7DB0112107814DC0112102E
:1019C3007838DC0112107879DC011210786CDD01B3
:1019D300121078B2DD01121078EDDD011210784C8F
:1019E300DE0112107874DE01121078ADDE011210E0
:1019F30078BBDE011210781CDF0112107859DF0169
:101A03001210789BDF01121078CCDF0112107800DE
:101A1300E0011210780BE00112107829E001121096
:101A230078F2E001121078FCE0011210783BE1013A
:101A330012107851E101121078BBE101121078CF36
:101A4300E101121078C7E201121078DAE2011210F4
:101A530078EFE2011210788FE301121078F3E301BB
:101A6300121078BAE401121078C5E401121078E478
:101A7300E50112107800E60112107858E601121001
:101A8300788FE601121078A9E6011210781DE7019C
:101A9300121078AEE701121078F6E7011210781BE6
:101AA300EA0112107885EA01121078F0EA011210A7
:101AB3007836ED0112107846ED0112107849ED01E8
:101AC30012107855ED0112107869ED01121078713A
:101AD300ED01121078B6ED0112107864EE011210C8
:101AE30078D4EE0112107838EF01121078D1EF019B
:101AF3001210786BF00112107899F00112107838F7
:101B0300F10112107844F10112107873F1011210EF
:101B13007876F101121078EDF101121078DDF201FF
:101B2300121078B5F3011210783FF40112107860A7
:101B3300F50112107812F6011210784BF60112100B
:101B4300787CF60112107885F601121078C1F6013F
:101B5300121078A8F70112107824F801121078B443
:101B6300F8011210787EF90112107802FA011210AE
:101B73007838FA0112107881FA0112107885E70398
:101B8300121078AAE703121078008003121078125B
:101B93008003121078868003121078BC8003121021
:101BA30078138103121078FA8203121078D8840311
:101BB3001210780388031210783D880312107857A7
:101BC3008803121078C68803121078028903121052
:101BD300783289031210787589031210782DF40274
:101BE30012107843F40212107850F402121078693C
:101BF300F40212107896F402121078A2F402121072
:101C030078B9F402121078DEF40212107824F50287
:101C1300121078D0F5021210787CF602121078E8D0
:101C2300F6021210783AF802121078E3FA02121050
:101C33007814FB02121078AEFB02121078D0DF0387
:101C4300121078EEDF0312107839E0031210788354
:101C5300E00312107826E1031210788EE6031210C7
:101C63007831DE0312107877DF031210786BA1034B
:101C7300121078E8A10312107811A2031210787FD2
:101C830087011210784AA203121078B4A20312102B
:101C930078E4A20312107885A4031210784CA503EC
:101CA3001210789EA503121078D9A5031210781686
:101CB300A60312107879A603121078A4A6031210B3
:101CC3007831A7031210788BA70312107812FE0243
:101CD3001210782BFE02121078D7FE0212107876BB
:101CE300FF02121078A5FF0212107898AD031210AC
:101CF3007812AE031210781DAE03121078738C01A4
:101D03001210782992031210782C9203121078D8AB
:101D130092031210780393031210787A930312102C
:101D2300789E9303121078BE9303121078059403E0
:101D33001210783394031210785395031210788A93
:101D43009503121078AB95031210780096031210C6
:101D530078D19603121078F996031210782C980311
:101D6300121078CF9803121078D59903121078FEC9
:101D73009903121078319A031210787E9A03121085
:101D830078C49A03121078349B031210785C9B0377
:101D93001210781E9C03121078279C031210787D72
:101DA3009C03121078A89C03121078069D0312104E
:101DB30078A59D03121078E49D03121078389E03D2
:101DC3001210789B9E03121078C39E031210783F63
:101DD3009F031210788C9F03121078CB9F0312106D
:101DE30078FF9F0312107811A00312107823A00329
:101DF30012107842A00312107842A1031210788DBA
:101E0300E40312107872ED0312107887DA031210CC
:101E130078EBDA031210780FDB0312107815DC036A
:101E2300121078E29F021210780BA1021210784769
:101E3300A10212107805A3021210783FA302121018
:101E430078B5A502121078FCA502121078A3A70298
:101E530012107842A802121078A4A8021210785126
:101E6300A90212107891A902121078D1A9021210B6
:101E73007861AB02121078D3AC021210781FAF0254
:101E83001210784DAF0212107883AF021210788CC3
:101E9300AF02121078F1AF0212107873B002121071
:101EA30078B5B30212107867EE031210787DEE0353
:101EB30012107898C303121078B0C3031210785825
:101EC300C40312107899C403121078B6C403121015
:101ED30078D9C40312107820C50312107859C503AA
:101EE3001210788DC5031210781BC70312107847A0
:101EF300E9031210787DE9031210789AE9031210AE
:101F030078DFE903121078EBE903121078F5E9039F
:101F1300121078C5E60212107814E7021210782125
:101F2300E802121078AFE802121078F9E8021210F2
:101F3300784AE902121078A7E902121078BBE90285
:101F430012107897EB021210781DEC0212107847EA
:101F5300EC0212107838EE0212107853EE021210CF
:101F63007894EE02121078D0EE0212107829EF0264
:101F730012107847EF02121078ABEF021210783E7E
:101F8300F10212107860F10212107895F10212102A
:101F930078BDF102121078C8F10212107811F20222
:101FA300121078B6F202121078DBF202121078E502
:101FB300F202121078E8F2021210785DF3021210A6
:101FC300787AF302121078E1F30212107814F40213
:101FD30012107817F40212107832EB031210784AB9
:101FE300EB03121078A3C602121078F2C602121085
:101FF300783EC802121078C7C8021210782AC902A4
:102003001210786CC902121078E3C9021210787AA0
:10201300CA02121078FCCA0212107838CB021210CE
:1020230078FCCE02121078B2D002121078D8D00207
:102033001210789FD102121078A2D1021210785E8A
:10204300D2021210782DD402121078A8D4021210E2
:10205300783AB402121078F9B40212107869B50212
:1020630012107878B502121078FCB5021210786558
:10207300B60212107867B70212107890B7021210E6
:102083007841B80212107884B802121078E1B802CD
:10209300121078CBBB021210785DBC02121078C20A
:1020A300BC0212107861BE0212107817BF02121020
:1020B30078B6BF0212107812C0021210787AC002EA
:1020C30012107894C1021210784EC302121078EBEA
:1020D300C3021210785BC4021210785BC50212109F
:1020E30078F0FF02121078F3FF0212107819B3038D
:1020F3001210786BB5031210789AB5031210784753
:10210300B603121078B1B6031210782EB70312106B
:10211300788C7E00121078FD7F0012107876E80329
:1021230012107887E8031210782DE9031210788CC7
:10213300DC031210789ADC031210789BEE03121062
:1021430078CCEB03121078DCEB03121078F4EB037A
:102153001210785CEC0312107872E203121078FB11
:10216300E2031210786DE30312107886E303121072
:1021730078B1E30312107816E40312107825E40310
:1021830012107863E40312107821CE031210782F13
:10219300CE03121078AFCE0312107876CF0312104D
:1021A300782CD103121078AAA70312107829A80358
:1021B300121078F9A80312107854A9031210785555
:1021C300AA03121078DEAB031210783DAC03121091
:1021D3007897AC03121078A0AC03121078B0AC035C
:1021E300121078E2AC03121078F8AC031210787A6C
:1021F300AD0312107884AD03121078C7FA011210E0
:10220300781AFB011210782EFD0112107866FD0179
:102213001210788BFD01121078A4FD01121078BD05
:10222300FD01121078BEFE011210784DFF0112104D
:102233007856D60312107899D603121078AAD603CB
:10224300121078DDD60312107813D70312107849D1
:10225300D703121078C2D703121078FFD7031210D6
:10226300787BD103121078A3D103121078E0D10345
:10227300121078EFD1031210780ED203121078786F
:10228300D20312107881D203121078E2D203121013
:102293007806D303121078C9D303121078D6D30368
:1022A300121078E7D303121078FCED03121078199B
:1022B300EE03121078FCBF0312107861C1031210F1
:1022C300786EC10312107884C103121078A1C10380
:1022D300121078B8C103121078CDC10312107851CF
:1022E300C20312107830C30312107879C30312109B
:1022F3007889C30312107897EA03121078BCEA03B3
:10230300121078E5EA031210780DEB0312107871BE
:10231300D80312107898D803121078B6D803121085
:102323007823D90312107815D4031210782ED4030E
:102333001210783AD4031210784ED4031210787224
:10234300D4031210787ED4031210788DD4031210A4
:1023530078A0D403121078B7D403121078F1D40301
:1023630012107823D50312107872D503121078BE99
:10237300D503121078D6D503121078E0D5031210C6
:102383007806D6031210784BD603121078F3EC03B9
:102393001210780FED0312107887EE03121078D124
:1023A3008903121078FD8903121078198A03121019
:1023B300782C8A03121078428A03121078AC8A03AD
:1023C300121078DF8A03121078498E031210787284
:1023D3008F03121078A28F031210780B9003121040
:1023E3007808910312107830910312107845910305
:1023F300121078559103121078969103121078EB0E
:102403009103121078FB91031210783BE103121031
:102413007856E1031210787FE10312107899E103F3
:10242300121078BEE103121078DDE103121078F682
:10243300E10312107825E20312107840E203121030
:1024430078B8ED0312107833C7031210783AC70334
:1024530012107847C80312107879C8031210789FB6
:10246300C803121078D2C803121078E4C8031210FC
:10247300781FC9031210788FC903121078CCC903CF
:1024830012107819CA0312107847CA03121078671A
:10249300CA03121078C5CA03121078FECA031210B9
:1024A3007801CC031210781ECE031210788EE50348
:1024B300121078ECE5031210782BE6031210786CF7
:1024C300E60312107821BC031210784ABC031210E1
:1024D3007893BC03121078AFBC03121078E0BC03EE
:1024E300121078F7BC0312107804BD031210782180
:1024F300BD031210780EBE0312107845BE031210EE
:10250300784FBE031210785CBF0312107867BF03C5
:1025130012107879BF0312107882BF031210788CDF
:10252300BF03121078B4B703121078A1BB031210C3
:1025330078AFBB0312107838EE03121078F8E90372
:1025430012107821EA03121078E1FF011210786665
:10255300EC031210788FEC03121078C3D60212101A
:10256300789BDB02121078EF86011210783E860109
:10257300121078648501121078168501121078F311
:102583008401121078B684011210787B8401121032
:1025930078578401121078CA8B011210785B8B0173
:1025A3001210783C8401121078CB8301121078C882
:1025B3008A01121078BE8A01121078F98201121072
:1025C300786C8201121078008201121078E1810187
:1025D300121078CF8101121078B79F0212107899E8
:1025E3009F02121078AA9E021210780E9E021210F9
:1025F300789C9C02121078199A02121078A89902FA
:102603001210787E9602121078569602121078F9FC
:102613009502121078E195021210782C950212108F
:1026230078CD9402121078229302121078C6920287
:10263300121078C39202121078D09102121078AC63
:102643008A011210787F8A011210784D89011210C5
:1026530078B09102121078009102121078828F02E2
:10266300121078498F021210782889011210781AF3
:102673008F02121078178F02121078098F0212102E
:1026830078F58E02121078E88E02121078D688013F
:10269300121078B2880112107842AE03121078003B
:1026A3008E021210788C8D02121078528D02121045
:1026B30078FA8C02121078C98C02121078F9890208
:1026C300121078ED8902121078608902121078AE28
:1026D30088021210784D8602121078B68302121007
:1026E30078808302121078268202121078D9810230
:1026F300121078128102121078678002121078008B
:1027030080021210783A80021210786F880112103A
:102713007837A20300000080FBE473000000000090
:102723000000000000000000000000000000F800AE
:10273300000000000000333000000000100C061001
:102743000C0600000000000000000040C07840C0FC
:10275300784000043F04043F040400007088FC0830
:10276300300000001820FF211E0000F008F000E0F8
:1027730018000000211C031E211E0000F0088870B1
:102783000000001E2123241927211010160E00001B
:102793000000000000000000000000000000E0183E
:1027A300040200000000071820400000020418E0A3
:1027B3000000000040201807000000404080F08027
:1027C3004040000202010F01020200000000F0007D
:1027D3000000000101011F010101000000000000D1
:1027E30000000080B0700000000000000000000046
:1027F30000000000010101010101010000000000CF
:1028030000000000303000000000000000000080E5
:10281300601804006018060100000000E0100808BA
:1028230010E000000F102020100F00001010F8001F
:102833000000000020203F2020000000700808084E
:102843008870000030282422213000003008888856
:102853004830000018202020110E000000C0201076
:10286300F8000000070424243F240000F8088888A7
:102873000808000019212020110E0000E0108888AC
:10288300180000000F112020110E0000380808C89E
:102893003808000000003F000000000070880808AE
:1028A300887000001C222121221C0000E01008086F
:1028B30010E0000000312222110F00000000C0C010
:1028C3000000000000003030000000000000800025
:1028D3000000000000806000000000000080402035
:1028E300100800000102040810200040404040404E
:1028F30040400004040404040404000008102040C1
:10290300800000002010080402010000704808083D
:1029130008F0000000003036010000C030C828E88D
:1029230010E0000718272423140B000000C038E030
:10293300000000203C23020227382008F8888888FA
:10294300700000203F202020110E00C0300808082E
:10295300083800071820202010080008F808080885
:1029630010E000203F202020100F0008F88888E89E
:10297300081000203F20202320180008F88888E84A
:10298300081000203F200003000000C030080808A2
:1029930038000007182020221E020008F808000053
:1029A30008F808203F210101213F20000808F8080A
:1029B3000800000020203F2020000000000808F845
:1029C300080800C08080807F00000008F888C028C5
:1029D300180800203F20012638200008F8080000CE
:1029E300000000203F20202020300008F8F800F8E5
:1029F300F80800203F003F003F200008F830C000E7
:102A030008F808203F200007183F00E010080808D6
:102A130010E0000F10202020100F0008F80808080D
:102A230008F000203F210101010000E01008080820
:102A330010E0000F18242438504F0008F8888888C5
:102A4300887000203F2000030C30200070880808A5
:102A53000838000038202121221C00180808F80833
:102A63000818000000203F2000000008F8080000BC
:102A730008F808001F202020201F00087888000085
:102A8300C83808000007380E010000F80800F800F5
:102A930008F800033C0700073C030008186880801F
:102AA30068180820302C03032C30200838C800C8CD
:102AB3003808000000203F2000000010080808C864
:102AC3003808002038262120201800000000FE02CC
:102AD3000202000000007F40404000000C30C000B4
:102AE300000000000000010638C00000020202FEE0
:102AF300000000004040407F00000000000402028C
:102B030002040000000000000000000000000000BC
:102B130000000080808080808080800002020400AA
:102B23000000000000000000000000000080808022
:102B33008000000019242222223F2008F800808010
:102B4300000000003F112020110E000000008080D3
:102B5300800000000E112020201100000000808062
:102B630088F800000E112020103F20000080808094
:102B7300800000001F222222221300008080F088A0
:102B83008888180020203F202000000000808080DB
:102B9300808000006B94949493600008F800808018
:102BA300800000203F210000203F200080989800F3
:102BB3000000000020203F2020000000000080983B
:102BC30098000000C08080807F000008F80000802B
:102BD300808000203F24022D302000000808F800E8
:102BE3000000000020203F202000008080808080A3
:102BF300808000203F20003F20003F8080008080B5
:102C0300800000203F210000203F200000808080C2
:102C1300800000001F202020201F00808000808073
:102C230000000080FFA12020110E00000000808022
:102C3300808000000E112020A0FF80808080008013
:102C430080800020203F2120000100000080808040
:102C53008080000033242424241900008080E08035
:102C63008000000000001F20200000808000000082
:102C7300808000001F202020103F208080800000E3
:102C830080808000010E30080601008080008000F3
:102C93008080800F300C030C300F00008080008098
:102CA3008080000020312E0E3120008080800000C3
:102CB30080808080818E7018060100008080808073
:102CC3008080000021302C22213000000000008091
:102CD3007C020200000000003F404000000000FFB3
:102CE30000000000000000FF0000000002027C80E2
:102CF3000000000040403F00000000000601010208
:102D03000204040000000000000000000136360148
:102D1300010001020100010301000104010606058F
:102D2300020000070100340801000F090401010D2E
:102D33000100FF0E08000017020000190100FF1A2E
:102D43000100011B0100FE1C0100081D0200001F01
:102D530001000120010001210200002301000F24D2
:102D63000200002601000127010008280200FF2AB3
:102D73000100072B0102402C0100002D0100012E50
:102D83000100012F0100FF30010B1C310800003A44
:102D93000100083B01000F2F010000010371030133
:102DA30003010301030103010322030203010310CF
:102DB30003000300030003000300030003000342B6
:102DC3000300032403060300030003040312032583
:102DD3000323032503230304030403000300030065
:102DE30003440300030003230300036503210035A9
:102DF30003810300030503000300030003030271BF
:102E0300023001600211027002010202020202801A
:102E130002100261023A004100630273027202620D
:102E230002430200021302380000020002040212ED
:102E3300020002000200020002040204023700370B
:102E4300003C024402000239000002000265020055
:102E5300023502810200020502820283020002019E
:102E6300017101010101011101010131010101019F
:102E7300018001100161013B0014006301730172C1
:102E830001620143010001130106013D0135000404
:102E930001120100010001000100010401040133DA
:102EA3000133013C01440132013600000100016598
:102EB3000100013500810100010501820183010048
:102EC3000103047104020460041104700402040287
:102ED3000401040204100461040004140463047371
:102EE300047204620443040004130406040004008F
:102EF30004040412040004000400040004510464E4
:102F0300000004000400044404000400040004005E
:102F1300046504000435048104640005040004838B
:102F230004000403007100300160001100700031DF
:102F330002200350048000100061000000140063AD
:102F430000730072006200430000001300060000DB
:102F53000000000400120000000000000000000454
:102F6300000400370037003C02440000000000006A
:102F7300000000650000003500810000000500002E
:102F8300008300000036000100060000000F00006F
:102F9300000000000000000000000003FFFF00002D
:102FA3000403FFFF0000FFFF0FF4010005C4040347
:102FB30020000100130B00000000000000000301CB
:102FC3000F01008D200200FD1F03000320040009F0
:102FD3002005000F2006001B201100392014003F9C
:102FE3002015002D20FFFF0000014916067F16085B
:102FF30079160B911610B315024F16056D1607556A
:10300300160C2B160D3D16FF0000C719F719CD1925
:10301300D319F119E519DF19FD19031A091A151A3C
:10302300D919C119BB1900160F00000B150B0200AB
:1030330002220F32000006B71AC91ACF1A9119D506
:103043001A8B199719171B351B3B1B1D1B291B2398
:103053001BCB18C51801190719FB18B3180003492E
:1030630048424D18172505020001191618161615A2
:103073002303000C0E020B040B0A0708000F303069
:1030830016181920231A1C1E303030171819213036
:103093001B1D1F3000383C3E363B3B352B432C0B6E
:1030A3001BDB1AE11AED1AE71AEB190F1A2F1B1B78
:1030B3001A211A020402010101010902D718DD18BD
:1030C300D1180D190005150D0910080400000000A2
:1030D300000000BE040AE318F5180E00FA063800D3
:1030E30004005000280003090108040A0309000C26
:1030F300FF1E1E05043208C082C083E99003CDF091
:10310300E4900382F01224959003E1E4F0A3F0909D
:1031130003CEF0A3F012183512269312150B1224C6
:103123009B900342E4F0A3F09003F3E07002A3E06A
:1031330060099003F312687912271C9030F8E49326
:10314300FA790212250702588A74F2120B53EAFE27
:10315300EBFF74805FF9E47001E960619003CDE0F7
:10316300F9121DAB8A088B09EA7001EB60467B00FC
:1031730080010BEB75F003A424ECF8E5F0342FF990
:1031830088828983E493FA74FF6A602185088285C3
:103193000983E06A70DCAA08AB0988828983A3E407
:1031A30093C0E0740193F583D08212271CAA08AB65
:1031B30009121D9FEEFA74806FFB02338C74205F3B
:1031C300F9E47001E9601D12170F8A088B09EA7090
:1031D30001EB600A12163DAA08AB09121D9FEEFA15
:1031E300742080D4EE542070030232BD750C00129B
:1031F30054F07001EB700B7C027D007A207B00128F
:10320300784D7C0079047A007B001216D98A088BEA
:1032130009800D740188828983F0850A08850B096A
:10322300E5087002E509606D7C007904AA08AB0922
:103233001216D98A0A8B0B750C01E508240412783F
:103243009F24FFF0A3E034FF127B057002A3E0701C
:10325300C9E5082409F8E5093400F98508828509D8
:1032630083A3A3A3A3A3A3A3A3A3A3E0640170A322
:10327300850882850983A3A3A3A3A3A3E0540470B1
:1032830092740688828983F07AB7850882850983D8
:103293001234D780851216A97C0079017A007B004D
:1032A3001216D9EA7001EB7009E50C70057A201249
:1032B300339874206EFAEF0231BCEE54106007129B
:1032C3001541741080EEEE5440600712159B744054
:1032D30080E2EE5480600712145D748080D674011E
:1032E3005FF9E47001E9601A9003F5E07002A3E06E
:1032F30060099003F512687912271CEEFA74010233
:1033030031BB74085FF9E47001E9602D1215179061
:103313001468E06401701B901469E06015FC75F09B
:10332300E8A4CCAAF075F003A42AFD7A007B081266
:10333300784DEEFA74080231BB74105FF9E4700142
:10334300E960129003DFE06005E4F0121517EEFA6E
:1033530074100231BB74025FF9E47001E9600A1270
:10336300182FEEFA74020231BB74045FF9E47001A2
:10337300E96012126C1C126A7279011244ECEEFAC3
:1033830074040231BB7A007B00800574031210DDE4
:103393007F06020E2C7B009003CDE0F9121ED7228C
:1033A30074F7120B5374E1121141EAFEEBFFEE7056
:1033B30001EF6033851882851983AC82AD831217C0
:1033C300397406121390E0601E7417121390E0FD17
:1033D3007401121390E0FCEEFAEFFB79001225DF83
:1033E300E9600479A4800279000259DF74F5120BB5
:1033F30053EAFEEBFF8E828F83A3A3A3A3A3A3E0D1
:103403005440601812728660067AFF7BFF806A8ED2
:10341300828F83125DB2FAA3E0FB805390036DE0C9
:10342300A2E15048126FB2241CF8EB1254DB75086A
:10343300FE7509FF78081210B0124088120EA479A5
:10344300008C828D83126EA6A3A3A3E0F5088C8261
:103453008D83126C09A3A3E0FDAC088A828B8312CF
:10346300655A12151D74041210DD800312175D7462
:10347300FE6A700374FF6B6043126875126DA312CA
:1034830017DBE98E828F8360061234D0E480051245
:1034930034D07401F07C0D7D168E828F8312655AB1
:1034A300122501E9F5087017EE7001EF6009790143
:1034B300EEFAEFFB1216B5A9080271157508CDAA2D
:1034C300088E828F831234D7E960DD80EAE0240D11
:1034D30012600E22E0240C125A2AF91216192274D1
:1034E300F6120B53E9FEEAFF7A0F7B00121D99EAED
:1034F3007001EB6019740C8A828B83F0EEA3A3F046
:10350300EF8A828B83A3F0126A6379008028EEF935
:103513001216DF8A088B09A808A909E87001E96077
:1035230013740688828983127B0AE0F91215ADEEC3
:10353300F91216BB7910026870EAFCEBFD7A017B85
:10354300009003CDE0F9121ECB22C082C083790024
:10355300EA241DF582EB12408E12655A90036DE04A
:10356300A2E18A828B83E0500E120F8201010A7757
:1035730035008B35098011120F8201030477350260
:103583000777350A77358B3502588A74EE120B5359
:10359300EAFEEBFF8C088D09890E7412121390E07A
:1035A300F510A3E0F511851082F583E4F0A3F01282
:1035B30036C0EE241DF8EF3400F9880C890D88829B
:1035C3001236D9601F850A82850B831239987014CD
:1035D300850A82850B83125B6A85108285118312AB
:1035E3006A728003750E00850C82850D83125DB2AD
:1035F300120E6A01095F360E36263634363F365FC1
:103603003669365F3683369C36AF3678101210B083
:10361300AC08AD09EEFAEFFB12152974021210DDA6
:103623000236B8AC08AD09EEFAEFFB12152F0236DD
:10363300BBA90EEEFAEFFB1217F38079127C8664B6
:10364300027019E50E700A1236CD7003A3E069709B
:1036530067EEFAEFFBA90E1217AB8059750E0079CE
:10366300011224A780521236CD7003A3E06970ECD7
:10367300127C86640270E5EEFAEFFB121793803832
:103683009003F7E07002A3E0602EEEFAEFFB9003E5
:10369300F712687912271C801F1236CD7003A3E03E
:1036A3006970B9EEFAEFFB1217FF800CEEFAEFFB2D
:1036B300A90E12180BE9F50EA90E0254CCEE24093B
:1036C300F8EF3400F9880A890B22850A82850B8377
:1036D30012710EE06822F583125DB6F91217BDE987
:1036E3002274ED120B5374DE1211418A088B09EA1E
:1036F3002402F510EB12618AF91216DF8A0A8B0B8A
:10370300AE0AAF0BEE7001EF70030237CBE508246E
:103713000C126D7E1238F6240612408085088285CD
:103723000983A3858208858309E064F16017E06457
:10373300CD6012E0641A600DE064E96008E064E1C2
:103743006003023855850E82850F83A3E05408F980
:10375300E47001E9607F7405850A82850B83F0902C
:1037630003FBE07002A3E060099003FB1268791287
:10377300271C9003FDE07002A3E0603390036DE02B
:10378300A2E1502B8E828F83127280A3A3A3A3A3E3
:10379300A3A31259E912409AEA7001EB601185085C
:1037A30082850983E0F99003FD12687912271C854D
:1037B3000A82850B83E0640270037406F08510822D
:1037C300851183E0F91216BB1216A974221210DDBB
:1037D3007F0B020E2C79001216B5E9607590036D0C
:1037E300E0A2E1400302376212764D7002A3E0705B
:1037F30003023762740312139012763485088285AC
:103803000983E064E9701A1238FE1210B485088245
:10381300850983E0F51278121210B4124BC212100C
:10382300DD740C12139012655A126875126DA37928
:1038330000740E121390125D8C740C1213901240CC
:10384300CA7003023762850E82850F83125D96026A
:103853003761850882850983E0C0E0740212139002
:10386300D0E0F01276FBEE240B127C89851882855A
:103873001983AA82AB83700512148D80031217B7C4
:103883007402121390E064E970141238FE1210B43B
:103893007512E978121210B4124BC21210DD9003A4
:1038A3006DE0A2E140030237B2850A82850B83E013
:1038B30064027027850E82850F83E05404601C1216
:1038C3007286701312687574FFF0A3F07405850A8D
:1038D30082850B830237BF740380F38508828509D1
:1038E30083E064E960030237B2EEFAEFFB121811CA
:1038F3000237B2EE2409127856EE22126FB7751210
:103903000178122274F5120B538A088B09750A0089
:10391300EA2409125B5DFEE9FF8E828F83123998D8
:103923007003750A018E828F831264687003A3E0AB
:103933006B7006E50AD2E1F50AE5082402FEE50903
:103943003400FFE50A60138E828F83E07006E50A78
:10395300D2E58004E50AD2E6F50A1217DBE9640131
:103963007006E50AD2E0F50A8E828F83E06017E5E0
:1039730008241DF582E50934001236D96401600676
:10398300E50AC2E0F50AE50AA2E14004D2E7F50A36
:10399300A90A027115127291640222C082C083794E
:1039A300018A828B83A3A3E0C394024001198A8214
:1039B3008B83A3A3A3A3E0C39402400279008A826A
:1039C3008B83A3A3A3A3A3A3A3A3A3125D8C74F8C4
:1039D3006C700374FF6D601E74F96C700374FF6D7B
:1039E300601474FA6C700374FF6D600A74FB6C707E
:1039F3000374FF6D700279008A828B83A3A3A3E013
:103A0300FC900370E06C600279009030F5E493C39E
:103A130094805018E493C333C0E0EA2411F582EB99
:103A2300127C8CFAD0E0C39A5002790002588A744F
:103A3300E8120B5374DC121141EAFEEBFF7403121C
:103A43001390126B7575140075150074051213909D
:103A5300AC82AD838E828F83A3A3A3126D8F126575
:103A63005A121739E9600F7405121390AA82AB83B7
:103A7300121637E9700879011224A7024076EE2462
:103A83001B125B647412121390126A72740B12137A
:103A930090E06023741C121390E0FD7406121390DF
:103AA300E0FC8E828F83A3A312655A79011225DF6E
:103AB300E96004790280C17405121390AA82AB8372
:103AC300121631E9F508740B121390E07029900374
:103AD3006AE06023742255086422601B744255080F
:103AE300644270CF7422121390125DB2FA74066AA4
:103AF300600574076A70BCE9A2E6501274051213DC
:103B030090AA82AB8312161FE97003023A79EE245E
:103B130012F516EF3400F517EE242A1238F9242C87
:103B230012408B1246ADE0687003A3E069701C7508
:103B3300090078091210B478091210B4EE242E1279
:103B430040921240A6124BD21210DD740B12139046
:103B5300E07003023BF01240A612409A8A0A8B0BD4
:103B6300A80AA90BE87001E97003023C94740612D9
:103B730013901240A1FAA3E03400FB740D2AF582DE
:103B8300E43BF583E0FAE82404F50AE9127859E8FE
:103B93002403F582E9127C8C6A600DEAF09081A41B
:103BA300780C12130C1240EB790474061213901262
:103BB30040A1FCA3E034008C82F583A3AA82AB83EB
:103BC300121D8D8A0C8B0D8C0E8D0F850A82850B31
:103BD30083781012130C7810790C1212DC50030244
:103BE30040769081A0780C1211FE1240EBEE242453
:103BF300124080EE2430F50CEF126D82EE242F126A
:103C0300785690036DE0A2E15003023D2D900382AC
:103C1300E0FA74046A600874096A6003024076E596
:103C230008A2E54003023CDA1240D2C0E07401125C
:103C33001390D0E0124BFCC0E07402121390D0E05A
:103C4300F07416121390E064017020741012139034
:103C53001240B67003A3E0697011740E1213901230
:103C6300399870077416121390E4F0850E82850F4D
:103C730083120EA07404121390AC82AD83740912E4
:103C83001390AA82AB8312149374041210DD0240C2
:103C9300769003C7E064016003023BF074221213C1
:103CA30090125DB264067009E508A2E65003023B78
:103CB300F07412121390E064FF7004A3E064FF70C9
:103CC30003024076EEFCEFFD7405121390AA82AB5B
:103CD30083121643024076A2E64003024076742222
:103CE3001213901240C2701E741C121390E06402EF
:103CF30060030240767405121390AA82AB837900A5
:103D03001217AB02407674076A6003024076741C94
:103D1300121390E06404600302407674051213905A
:103D2300AA82AB8312179F0240767416121390E097
:103D3300601D8E828F83A3A3124BEE1412635CA3C8
:103D4300124BEEC0E07416121390D0E0F07006E54B
:103D530008C2E7F508900382E0FA74046A60057408
:103D6300096A7061740E1213901264687003A3E001
:103D73006B60171217DBE96402600F740A12139069
:103D8300E05403640160030240767407121390E069
:103D9300701B1240D2C0E07401121390D0E0124B9A
:103DA300FCC0E07402121390D0E0023C6D74221246
:103DB30013901240C27003023CEB74076A60030263
:103DC3004076023D11750900746155087003023E87
:103DD300E1E508A2E05070851682851783125D8C99
:103DE3007405121390AA82AB831215A1E9705512C0
:103DF3001769E9F5097416121390E0700F74101225
:103E030013901240B67003A3E069603BA9098516BD
:103E130082851783125D8C7405121390AA82AB837B
:103E23001215A7E96013740E12139012718E1213F8
:103E330090126A72751404800EE508C2E5F50875E0
:103E43000900800353089FE508A2E5503C1240D2C5
:103E5300C0E07401121390D0E0124BFCC0E0740276
:103E6300121390D0E0F0850E82850F83120EA0749A
:103E730004121390AC82AD837409121390AA82AB1F
:103E83008312149374041210DDE508A2E6400302C2
:103E93003FAE740312139085820A85830B780A124E
:103EA30010B0A909851682851783125D8C740712D9
:103EB3001390AA82AB8312162574021210DDE9F562
:103EC300097003023FAE7422121390125DB26401B3
:103ED3006003023FAE74104514F514023FAE74073D
:103EE300121390E06401703B7422121390125DB2BE
:103EF3006405702F740312139085820885830978F3
:103F0300081210B07900851682851783125D8C74B0
:103F130007121390AA82AB8312162574021210DDC6
:103F23000240767416121390E070127422121390EA
:103F3300125DB264036003023CC70240761216AFFF
:103F4300E96003024076740E12139012718E1213FD
:103F530090126A7278091210B4741E121390AC8214
:103F6300AD83740F12139012655A740A121390E002
:103F7300F91215E374011210DDE9600F7514208E38
:103F8300828F83A3A3125DB2543FF07900741012A1
:103F93001390125D8C740E1213901240CA60067453
:103FA300204514F514121769E9F5097403121390E7
:103FB300E064FE7004A3E064FF7003750900E50884
:103FC300A2E74003024076E50970030240768E8241
:103FD3008F83A3A3A3A3E0FA7B00121E178A0A8B85
:103FE3000BEA7001EB70030240768E828F83A3A3EA
:103FF300E0F50CA3E0F50D750E00780C1210AC8EF5
:10400300828F83A3A3A3A3E0FC7D001251DE1210D1
:10401300DD7407121390E0851882851983F074010B
:10402300121390E4F0A312624485820C85830D7809
:104033000C1210B078141210B0E509F508780812C4
:1040430010B4851682851783120EA48E828F83A3E4
:10405300A3A3A3E0F9740A121390125D8CAA0AAB0E
:104063000B12172774071210DDE96007AA0AAB0BBE
:10407300121E1D74241210DD7F10020E2CF50EEF9C
:104083003400F50F22EE240EF582EF1278CA22F5E2
:1040930082EF126C44F922125A2412185922127513
:1040A300822A22850A82850B83125B80851682858C
:1040B300178322125E8A851682851783E06822128F
:1040C3005DB6FA74046A22125A24121523E922EE09
:1040D300242E126C418518828519831240E222F046
:1040E300850A82850B83E022850A82850B83E50C92
:1040F300F0A3E50DF0A3E50EF0A3E50FF02274F2B3
:10410300120B53EAFEEBFF8C088D091236C088822E
:10411300F58312655A901468E06011900373E06AA6
:104123007003A3E06B700512151780537900121505
:10413300BF8A828B83E5827002E583603AA3A3A3DF
:10414300A3A3A3E05418602FE508241BF582E50917
:1041530012408E120EA4E5082412F582E5091240DE
:104163008E120EA4EE24181240921241851215EFFE
:1041730074041210DD8008790012418512153B0288
:104183003393850A82850B83125B80EE240B125ACC
:104193001D2274EE120B5374EA1211418A0C8B0D1B
:1041A300EA2402F50EEB1240830A0AFB1225B58AB4
:1041B300088B09AE08AF09750901850C82850D834B
:1041C300A3E0F508750A01AC0EAD0F8518828519B9
:1041D30083AA82AB831224BF7408121390126B75E7
:1041E300740A1213907402F07413121390E4F0E53E
:1041F3000C240AF50CE50D126D82901D98E07010E9
:10420300EE7001EF700AE50870067509C302436B8F
:10421300900382E0640860067509C2024367850C57
:1042230082850D83E0A2E1500EA2E35005750A04D6
:10423300800C750A038007A2E35003750A02EE702F
:1042430001EF60648E828F83A3A3A3A3E0FA7404B7
:104253006A600574036A700C7404650A601C740355
:10426300650A601674026A600574016A702074023C
:10427300650A60067401650A700F8E828F83124E81
:10428300D6121390126A72801F74026A6005740159
:104293006A700A8E828F8312503312271CAA0EABC8
:1042A3000F12259D7E007F007408121390E064FEB8
:1042B3007004A3E064FF703812270BE97032E5083D
:1042C30060179003BFE06402700F901D9F124ED6DB
:1042D300121390E8F0A3E98016850C82850D83E024
:1042E3005402F912154D7408121390EAF0A3EBF07F
:1042F300740812139012440B700374FF6B700575EE
:1043030009C78060E508F50B780B1210B4850C82A1
:10431300850D83E0F9AC0EAD0F1214B174011210C8
:10432300DDE97040A90AAC0EAD0F740812139012A8
:1043330044E58A108B11AE10AF11EE7001EF601CD3
:1043430074026508700BEE2405127C8954FB440843
:10435300F0740A121390E4F0F5098008740812133C
:1043630090126B75E508700F851882851983AA82F0
:10437300AB831224E38010FCA90A85188285198374
:10438300AA82AB83121799E9FAEE7001EF603EEE51
:104393002405F8EF3400F9E508601288828983E088
:1043A300D2E6F0740265087004E0D2E5F0850C8271
:1043B300850D83E0A2E6500888828983E0D2E7F086
:1043C3008E828F83A3A3A3A3A3A3E004F0E50970C4
:1043D30003EA602FFC7D007A017B101224A1EE70AA
:1043E30001EF6007AA0EAB0F12259D7408121390FC
:1043F30012440B700374FF6B600990035A126879BF
:1044030012271C74160254C9125A2474FE6A2274A9
:10441300F6120B5374F71211418A088B0990038229
:10442300E0FA74036A600D74016A600874096A60D3
:10443300030244E28508828B83A3AE82AF83E060EC
:10444300030244C77C007D007A027B001224A1E5AD
:104453000824021254E212710A126A727953122466
:10446300D779001244EC900382E064096009900359
:104473008012655A12185374011268A674049003CB
:1044830082F07401121390AA82AB83794A1224D169
:104493007401121390AC82AD837A787B031224BF2C
:1044A30079007401121390AC82AD839003761244A9
:1044B300E590036DE0A2E35004D2F08002C2F01253
:1044C300688E8018FC7D007A037B101224A18E82F3
:1044D3008F83E0F91244ECE4900382F012168B020E
:1044E300686B125A2412264B22900380125A24120C
:1044F30014AB22C082C083900342E07002A3E07039
:1045030041900382E0120F820003011845052745FD
:10451300063645454590034AE07002A3E060769075
:10452300034A806B900346E07002A3E06067900348
:1045330046805C900348E07002A3E0605890034813
:10454300804D900342E07002A3E06009124BEBFC44
:1045530074016C702379009003CE800909EA127309
:104563009FEB12408E1257BA7001EB70EF9003CE9F
:1045730012655A121499801D74026C700512182367
:1045830080139003F9E07002A3E060099003F9122D
:10459300687912271C02588A74F4120B5374FB12A5
:1045A30011418A088B097A0F7B00121D998A0A8BA5
:1045B3000BAE0AAF0BEE7001EF70030246A8740254
:1045C3008E828F8312711B79501224D185088285C4
:1045D3000983A3858208858309E0600302469190DD
:1045E300038012786E700374FF69602F74FE687025
:1045F3000374FF696025851882851983E068700359
:10460300A3E069601674EA850882850983124DB0B8
:104613007A807B0379501224D78073851882851999
:10462300831246AD126A727A737B0379531224D1D3
:10463300900373126A6C7A767B03794B1224D17AD6
:10464300757B0379E11224D1900387E0C3940F5063
:1046530022900375E0C0E07402121390D0E0F0746E
:10466300041213907401F07402121390AA82AB83A4
:104673001224FB750A00780A1210B4780A1210B4D7
:10468300901E93E0F9125284124BD21210DD85086A
:1046930082850983124BAEF07403900382F0EEFA25
:1046A300EFFB126A637405026401125E8A90038051
:1046B3002274F4120B5374EB121141EA125B57FA92
:1046C300E9FB8A828B83780812130C78081212CCC8
:1046D30090038378081212707F7F7E7F7C007508B9
:1046E30001750900750A00750B00EC780812103289
:1046F300900383780812125D9081A47808121197B1
:10470300602A7D009003CE801288828983A3A3E070
:104713006C70010D12739EE912408E1258287001BD
:10472300E970E6EDC39F5004EDFFECFE0CECC3947F
:104733001B40AB8A828B83780812130C9081A47878
:1047430008121197604590038378081213488A82F0
:104753008B83780812130C851882851983780812C5
:10476300134874041213907401F0900389E0C0E0BD
:104773007405121390D0E0F074071213901248D30B
:10478300805B1214CF900380126DA39003CE125856
:10479300287001E960229003801276EEE06A7003CC
:1047A300A3E06B700A88828983A3A3E06E60D312AF
:1047B300739EE912408E80D6EE900375F012167345
:1047C300E9601AE4900382F090034CE07002A3E0E6
:1047D300600B79C490034C12687912271C7415027C
:1047E300640174F0120B5374EB1211418A828B83B0
:1047F300A3A3A3A3A3A3A3A3A3125828FAE9FB7C0F
:1048030000750C01750D00750E00750F00EC780C2A
:10481300121032850C08850D09850E0A850F0B9041
:104823000383780812125D9081A4780812119760AF
:1048330025901D9EE0C0E08C08EA2508F582EB1266
:104843007C8CFDD0E0C39D500D780C1212CC9003EC
:1048530083780C1212700CECC3941B40A490038356
:10486300780812130C9081A4780812119760398587
:1048730018828519837808121348740412139074EC
:1048830001F074071213907401F0900389E0C0E003
:104893007405121390D0E0F074071213901248D3EA
:1048A3007406900382F08023E4900382F0FCFD7A87
:1048B300047B101224A190034CE07002A3E0600B70
:1048C30079C490034C12687912271C74150263543F
:1048D300E412711F1224EF2274EC120B5374ED12C5
:1048E30011418A828B83A3124BB3EA2408125B5DC6
:1048F300FEE9FF851882851983AC82AD838E828F92
:1049030083124BDBA3A3A3A312655A12169D85182A
:1049130082851983E070768E828F83E0C3940B4087
:104923006C850882850983A3A3A3A3A3A3A3A3E000
:1049330064027059900382E0FAE5082410F510E54B
:10494300093400F511E5082409126D7E74026A60CA
:104953004174066A603C900342E07002A3E0600782
:10496300124BEB6401605474086A600574046A7046
:104973001C7402121390E0F97407121390AC82AD09
:1049830083850C82850D8312655A1216A374130254
:104993007501900342E07002A3E0701F750A00786E
:1049A3000A1210B4780A1210B4851082851183128A
:1049B3004BA51254EA124BD21210DD9003CE12789B
:1049C300F49003CE1274F9E508240DF50EE50912EF
:1049D300408380318E828F83E0F8A3124BA5E06879
:1049E3007003A3E06970128E828F83A3A3E0FA851C
:1049F3000E82850F83E06A606B8E0A8F0BEE127353
:104A03009FEF1278F1EE7001EF70C97A187B0012F4
:104A13001E178A128B13AE12AF13EE7001EF7003E1
:104A23000249907C18127A49126B6CEE240C1240E6
:104A33008B74FFF0E508240B12789F124B9C127BBA
:104A430004C4124B9CA3A3F09003CEE07002A3E036
:104A530070059003CE800AE50A12739FE50B12409E
:104A63008E1277017401121390124BBDA3F07402DE
:104A7300121390124BBDF0850E82850F83124BAE3D
:104A8300A3124BFC124B93126367240DFAEF34000D
:104A9300FB7402121390E06401600E74071213900A
:104AA300AC82AD831224BF80097C087D0079FF129C
:104AB3001D877412121390E0C0E0EE241512408B90
:104AC300D0E0124BF3FC901E93E0C39C40030249D9
:104AD3009012787CE50912408EA3E05480F9E470CB
:104AE30001E9700990139AE070030249907D00EE8A
:104AF300240CF8EF3400F9EE240BFAEF3400FB90AA
:104B030003BFE06402701D8A828B83E0F50AC39CB5
:104B1300500D7405121390E0C39405401B801AE5F1
:104B23000A6C70157405121390E0C0E088828983C3
:104B3300E0FCD0E0C39C50010D7404121390E060BC
:104B430020ED601D850882850983127127ECF0A38F
:104B5300ED124BF38A828B83F07405121390125D6E
:104B6300A77406121390E0600D74018E828F83A3E5
:104B7300A3A3A3A3A3F07404121390E07003024948
:104B83009074018E828F83A3A3A3A3A3F002499001
:104B9300F8A3E0F98E828F8322540F8E828F83A332
:104BA300A322E0F9850C82850D832212510EA322E4
:104BB300A3A3E0F508A3E0F5092212510E80218595
:104BC3000C82850D83124BDB125B7C8A828B8312F2
:104BD3005A2412176F740222E0F98A828B838002AF
:104BE300A3A3A3A3A3A3A32290034212601EE022C4
:104BF300F0851082851183E022F0850C82850D8378
:104C0300E02274F6120B5374C9121141900382E02F
:104C130064086062900393E0F82487F582E4341E0D
:104C2300F583E0FA900364F0E8248DF582E4341E02
:104C3300F583E0FB900362F07508FF7509FFEA78DE
:104C430008121296E508F4FCE509F4FD3395E0FE3D
:104C530090038B124DA57508FF7509FFEBC39A7876
:104C630008121296E508F4FCE509F4FD3395E0FE1D
:104C730090038F124DA5E412689C79041224D790F7
:104C83000393E07009741E12139074018006741E5E
:104C9300121390E4F0740F851882851983F0901D28
:104CA3009D12711B79461224D77401121390E4F0FC
:104CB300901E74E0C0E07402121390D0E0F09003F1
:104CC30070E0C0E07403121390D0E0F07404121388
:104CD30090E4F07405121390E4F07407121390E457
:104CE300F0900393E0FAC3940F74065006121390E6
:104CF300EA8005121390740FF07C947D03740812FC
:104D03001390AA82AB831224BF7C037D0079FF74C6
:104D130010121390AA82AB83121D879003CCE0C0BC
:104D2300E07413121390D0E012699C12139012696D
:104D33008B121787900387E0C0E0741C121390D086
:104D4300E0F0900388E0C0E0741D121390D0E0F00F
:104D5300900375E0C0E0741A121390D0E0F0900352
:104D630080125B6A7418121390126A727420121301
:104D730090E4F090038AE0C0E0741F121390D0E037
:104D8300F07434121390E4F07429121390E4124D6A
:104D9300B07414121390AA82AB831224F5743702F1
:104DA300686DECF0A3EDF0A3EEF0A3F022F07A73BC
:104DB3007B037953124DBB221224D77A767B037976
:104DC3004B1224D722C082C0838A828B83A3E060E4
:104DD30007E4900382F0804A7408900382F0900302
:104DE30093E0701F90034CE07002A3E0600B790026
:104DF30090034C12687912271C900380125D8C7A01
:104E030005801A79001214A5900373125D8C7A063B
:104E13007B001224A1900376125D8C7A047B00122E
:104E230024A102588A74F4120B5374EA121141EA52
:104E33002402FEEB3400FF0A0AFB1225B58A088B15
:104E430009EA7001EB7003024ED18A828B831260F0
:104E530000600F74026A600A74036A600574046A6E
:104E6300706CEEFCEFFD851882851983126F391281
:104E73004ED6121390126A72740A1213907401F0D0
:104E8300741312139012711A1224E9890AAC0A7D61
:104E9300007A077B001224A1850882850983A3A3D6
:104EA300A3A3A3E0C2E0F07401850882850983A36C
:104EB300A3A3A3A3A3A3A3A31278CF12088EE88569
:104EC3000882850983A3A3A3A3A3A3A3A3F07416B2
:104ED300026401125E8A74082274F0120B5374F890
:104EE3001211418A0C8B0D8C0A8D0B890E85188249
:104EF300851983AC82AD8375838175823C740812F6
:104F03000FF2F50FAC0CAD0D851882851983AA82BB
:104F1300AB831275AB7003750F019003CE8030AC79
:104F23000CAD0DEE240DFAEF3400127AF7601A85FA
:104F33000882850983E0650E700F8E828F83E0659A
:104F43000A7004A3E0650B6032EE241612408B1244
:104F5300587E7001EF6024EE24021254D1E50F70E5
:104F6300BE8E828F83E0650A7004A3E0650B70D95F
:104F7300850882850983E0650E70CEEEFAEFFB02A9
:104F8300635274F7120B539003CEE0FAA3E0800C44
:104F9300EA24161278EE121E1DEEFAEFFBEA7001F8
:104FA300EB70ED9003CEE4F0A3F00259E474F41235
:104FB3000B538A088B09EA240BFEEB3400FFEA2427
:104FC30013F582EB127C8C64037009EEFAEFFB128B
:104FD30025B5800CE0640270548E828F831278AB07
:104FE300EA7001EB6047EA2406F8EB1236C5850840
:104FF30082850983A3E07007E488828983802D6416
:10500300F16005E064E1701A88828983E0640170CD
:10501300118A828B8312503312271CEEFAEFFB1294
:10502300259D850A82850B83E0600214F0026404E7
:10503300125A2490035A12687D2274F1120B538A78
:10504300088B09ECFEEDFF890A8A828B8312752E89
:105053008A828B8312510DF0EEF8EFF9A30EAF8322
:105063008A828B83A3A3E0C454F0FA88828983E005
:105073004A12511712510E125112E0333354FCFAF3
:105083008E828F83E04A125112A3E033333354F8F4
:10509300FA8E828F83E04AF008EFF9A30EAF83857F
:1050A30008828B83A3A3A3A3A3A3E0A2E0E492E0DB
:1050B30013135480FA88828983E04AF0E5082407B1
:1050C300F50CEB126D82750E00780C1210AC7C0897
:1050D3001261731210DD127518E508240F126D7E2C
:1050E300780C1210AC7C031261731210DDE50AC355
:1050F300940F4011E5082412F582E50912408E123F
:105103004BAEA3A3F07F07020E2CA3E0024B971232
:105113005117A322F08508828B83A3A3A32274F1E2
:10512300120B53EAFEEBFF890A8C088D098E828FDE
:1051330083E08C828D8312635CAE82AF83E0126462
:10514300191251F0C41264191251E4E054038C8211
:105153008D831251EEA2E2E492E08C828D83125190
:10516300ED131313541F126419A31251EDA2E7E4B4
:1051730092E08C828D83A3A3A3A31251E48E0C8FA0
:105183000D750E00780C1210AC7C087D00E5082428
:10519300071251D81210DD1275188E0C8F0D780C72
:1051A3001210AC7C037D00E508240F1251D81210B5
:1051B300DDE5082412F8E5093400F9E50AC3940F84
:1051C300400A8E828F83A3A3A3E08001E4888289AF
:1051D30083F0025108FAE5093400FB121D7B7403C6
:1051E30022A3A31263600EAF8322A3A3A3A3F0029F
:1051F30075C974F4120B5374F9121141EAFEEBFFF3
:10520300900342E07002A3E06010124BEB64027063
:1052130009EEFAEFFB12181D8062900380E06E70B6
:1052230003A3E06F705674016960097A947B0312DB
:1052330075AB70487A007B021254F47001EB703C3A
:10524300900383780812130C8518828519837808D4
:10525300121348900389E0C0E07404121390D0E065
:10526300F074051213907401F07406121390740213
:1052730012711B12144BE9609812145174070264E3
:1052830001900380125B8090037622E0F902588A32
:1052930074F6120B539003E0E0701F7C0079017ADF
:1052A300007B001216D9EA7001EB600E8A828B83B1
:1052B300E07002A3E06003121613026870C082C09C
:1052C30083125725401079FF1216D3E9FA9030F272
:1052D300E493C39A500479018002790002588A74D6
:1052E300EE120B538A088B09890D750E00EA240808
:1052F300F50AEB125D80E0F91216DF8A108B11AE0E
:1053030010AF11750C01EE7001EF60030253A88515
:105313000882850983A3A3125D9D12624C12655A0C
:105323001216C78A0A8B0BAE0AAF0BEE7001EF7031
:10533300030254C28E828F83A3A3A3A3E4F0A3F03A
:10534300E508240B1254E2E0C0E0EE240B12408B7C
:10535300D0E0F01217E7EE240C126D9CE508240E42
:10536300F582E509125B67124088126A72750E01B5
:10537300EE2406F8EF125734E0547FF0A3E054FC18
:1053830012567AE054046003025430901E71126284
:105393003D740778081212968A828B83E04508F0E1
:1053A300A3E04509F0EE24061254D98C828D8312B2
:1053B300655A74805AF50874035BF5097407780815
:1053C30012132AE508F510EE24041238F924091201
:1053D30054D1E50D606074028508828509831251FA
:1053E300F1240D12600AE0A2E2500F90036E125BEB
:1053F3006A850A82850B83126A72E5107003025470
:105403008F747F5AFA74FC5BFB74FF2510F51074DC
:10541300FF3400F51174077810121296E5104AF85C
:10542300E5114BF98C828D83126A72805FE04480B0
:10543300F0A3E00253A7E5107005750C00804DEA58
:1054430054206015121D938A10747F5510F8745FF1
:1054530028850A82850B83801BEA5410600E121D77
:10546300938A10740F5510F8740A80E4850A8285B4
:105473000B837401F0A3E4F0740485088285098327
:10548300F01254F07001EB70031268487401650E5A
:105493007030850A82850B831254EAE0F9EEFAEF45
:1054A300FB1216CDE9601BEE240C12408B1257BA87
:1054B3007001EB6003121E1DEEFAEFFB121E1D7549
:1054C3000C00A90C80031210DD7F0A020E2CF508D4
:1054D300EF3400F50922F8EF125B5FFCE9FD22FAD5
:1054E300E5093400025681125B80026C317A207B1D
:1054F300009003CDE0F9121EDDEA2274F6120B537D
:1055030074F71211417E001216DFEA7001EB70038B
:105513000255CB8A828B83A3A3A3A3A3A3A3A3A391
:10552300E0640660030255CB8A828B83A3A3A3A303
:10553300A3A3A3E0FF8A828B83126018E0C0E07408
:1055430008121390D0E012567A126879126EB312D1
:105553006A721216FD74085FF9E47001E9606785E9
:105563001882851983125D8C7A007B001216C1EABA
:105573007001EB7051900380125B6E1225137C0057
:105583007D007A007B0080288E828F83126C26E058
:1055930064FF7004A3E064FF602C900380125D8CB1
:1055A300122201E9641A601E7C007D00EEFAEFFB13
:1055B3001216C18A088B09AE08AF09EE7001EF70AD
:1055C300C779001225197E01EEF902686B74F71290
:1055D3000B53EA7001EB70059003E180068A828B1E
:1055E30083A3A31257BA7001EB60288A828B83A32B
:1055F300A3A3A3A3A3A3E05408F9E47001E960DD26
:10560300EC7001ED6011125DAE6C7003A3E06D7080
:10561300CC80047A007B000259E474F2120B53EA43
:10562300FEEBFF890A8C088D097A107B00121E1786
:10563300EA7001EB603CE48A828B83A3A3A3A3A358
:10564300A3A3A3125687E50A1259EF126B648A8249
:105653008B83A3A3A3A3E4F0125687125678127781
:1056630001EA240CF582EB127AFE125679A3A3F019
:10567300A3F0023393A3A312567E22F08001FB8A88
:10568300828B8322A31259F3A3A32274F5120B5323
:10569300EAFEEBFF890A8C088D09EE7001EF605674
:1056A3007401650A701479011216D3E9FA9030F97E
:1056B300E493C39A500F791180657404650A7030BE
:1056C30012572540F18E828F83A3A3A3A3A3A3A381
:1056D300A3A3E50A126375127D6CE4F0A3F09003B3
:1056E300E1E07002A3E09003E16024125B6A800AA8
:1056F3007402650A60CF79C18025E824020808E9AD
:105703001257341258287001E970EF8A828B831282
:1057130077011254F07001EB7003126848790002AC
:10572300711579041216D3E9FA9030F6E493C39A0B
:1057330022125B5FFAE9025681C082C083E9FC79D9
:10574300009003E1801D8A828B83A3A3A3A3A3A359
:10575300A3A3A3E06C600574FF6C7001098A828BBC
:1057630083A3A31257BA7001EB70DB02588A74F754
:10577300120B53EA7001EB70059003E180068A82F5
:105783008B83A3A31257BA7001EB60248A828B83A5
:10579300A3A3A3A3A3A3A3A3A3E06970E1EC601451
:1057A3008A828B83E0240D1275C3A2E240D0800469
:1057B3007A007B000259E4125A24EA22C082C08391
:1057C3009003E180068A828B83A3A31257BA7001E8
:1057D300EB60128A828B83A3A3A3A3A3A3A3A3E057
:1057E3006970E280047A007B0002588AC082C08319
:1057F3009003E1800688828983A3A312582870014D
:10580300E9601B88828983E0FCA3E0F5838C82E056
:105813006A7003A3E06B70DDE8FAE9FB80047A00A9
:105823007B0002588A125E8AE82274F1120B538AB3
:105833000A8B0B8C0C8D0D750800750900EA70013D
:10584300EB60319003E180068E828F83A3A312580D
:105853007E7001EF601EAC0CAD0DEEFAEFFB850A16
:1058630082850B8312271CE9640170DCEEF8EFF9E3
:1058730088088909AA08AB09025108E0FEA3E0FFE2
:10588300EE2274021210DDD083D0820210757900EB
:1058930002107574F7120B539003E1125B6A7C00DC
:1058A3007D008007E8FCE9FD125B6AE87001E960AE
:1058B3003AE82402F582E912408EEA687002EB6945
:1058C30070E212655A9003E11278F4E86E7002E90F
:1058D3006F70099003E1EAF0A3EB800EEAF8EBF9AD
:1058E3008C828D83A3A3E8F0A3E9F00259E474F753
:1058F300120B53EAFEEBFFEE7001EF60161216F780
:105903001259FBEA7001EB6003121E1DEEFAEFFB66
:10591300121E1D0259E474F7120B53125DAEFCA361
:10592300E0FD9003E1125B6A7508007E0080338816
:10593300828983A3A3A3A3A3A3A3A3A3E064057062
:10594300180E88828983E0FFA3E0F5838F82E06CE1
:105953007003A3E06D7002050888828983A3A312F4
:105963005B6AE87001E970C7EA2404F8EB3400F9D4
:105973009030E9E493FCE508C39C500B9030EAE4D3
:1059830093FCEEC39C400B888289837401F0A3E4EB
:10599300800A90036E1259E9ECF0A3EDF074058AC6
:1059A300828B83A3A3A3A3A3A3A3A3A31259EFE06F
:1059B300F0A3E0440812636E8A828B83E064FF7075
:1059C30004A3E064FF600E900380125D8C12250D2A
:1059D300E9641A700579011225198005741F1210E4
:1059E300DD7F01020E2C125B800276F61259F32240
:1059F300F08A828B83024BE48E828F83E0241C1215
:105A03005A2AFAA3E0FB121E1D8E828F83125A2498
:105A1300121E1DEE240C125A1D22F582EF3400F5DE
:105A230083E0FAA3E0FB22126012E022C082C0836B
:105A3300EAFCEBFDEC7001ED70047905804CEC247D
:105A4300FBF582ED34FFF583E07002A3E07011EC07
:105A530024FFF8ED34FFF988828983E064FF600551
:105A6300121D9F80D59003CD125DA79030EEE49375
:105A7300F97AE37B03121DCFE96401700B7A007B93
:105A83002012684C79008002790402588A74F41257
:105A93000B53A2AFE492E0F508C2AF9003E31258B0
:105AA3007E7001EF603DEE24FBF582EF34FFF5835A
:105AB300E07002A3E07A007B209003CD60051268BA
:105AC3004F8005E0F9121DDB750A00750B00780A9B
:105AD3001210B0EEFCEFFD7AE37B03121DC97402D2
:105AE3001210DDE508A2E092AFEEFAEFFB026404C8
:105AF30074F7120B5374E1121141EA2413F582EB8C
:105B0300127C8CC0E07411121390D0E0125E817489
:105B130009121390125E7A125B57FCE9FD8C828D99
:105B230083125B6A740B121390125E7A2414F5824B
