:020000040000FA
:060000000212FC020831AF
:03002B00021110AF
:03004300020FACFD
:0300530002076E33
:03005B00020AE6B0
:03006B00020ED1B1
:100083000207C5010101010503010F10FEFFB71AA5
:10009300B71AB71AB71A6D196719B71A322F0000B2
:1000A3000000AA2D000000000C0000000C0001FA63
:1000B3000A00000000000000000000000000000033
:1000C300000000000000000000000000000000002D
:1000D300000000000000000000000000000000001D
:1000E300000000000000000000000000000000000D
:1000F30000000000000000000000000000000000FD
:1001030000000000000000000000000000000000EC
:1001130000000000000000000000000000000000DC
:100123000000000000000000000000000000006468
:100133000000000000731C0000000000000F1D0001
:10014300000000000000005707FF0101010200A4A6
:1001530013000000F513E80364006400B801020211
:10016300050107051E02051E020A03B80B803E01A6
:10017300040002020A0505050500280A0A0A0A0006
:10018300063031323334353637383941424344450A
:100193004600286E756C6C20706F696E74657229E9
:1001A300003F3F3F000000803FF9021550B743BABC
:1001B300510000204100E7DB2E0000A040100000AA
:1001C30000080000000A00000012133960461213F1
:1001D3001B603DE9687008F618F618F618F62274E5
:1001E3008067F7120200090909748067F722121366
:1001F3001B601D1213397005191919801A12118207
:10020300701F1211ACC37003E66733191919400745
:100213001818182208080874FFF618F618F618F6C6
:10022300221211AC601712137C702192F012138604
:100233007019501720F014080808090909E7F6187F
:1002430019E7F61819E7F61819E7F622121386606C
:10025300E6E869701F0808E62480F608E436F61815
:10026300547FB47F0CE654806007F6E418F618F662
:1002730022181822E9C6CC08C6CD08C6CE08C6CFB8
:10028300C0E0E8C0E0EAC0E0EBC0E009E9F809E754
:10029300FA09E7FBE6F918E6F8C3EC98ED99EE9A4C
:1002A300EBC2E7F5F0EFC2E795F0500E600CEBCF31
:1002B300FBEACEFAE9CDF9E8CCF8EAA2E7D2E7FA0D
:1002C300EB33FB13F5F0EEA2E7D2E7FEEF33FFC506
:1002D300F013A2E730E601B313C5F0C3C0E0C0F0EA
:1002E3007F00C39BFB605B9418600C401AD0E02333
:1002F300F9D0E0F80203CF8AF0E9486003D2F0E4D2
:10030300AFF0FAF9F8803BEB30E40D89F0EA6003D3
:10031300D2F0E4AFF0F9CAF8EB30E30D88F0EF6008
:1003230002D2F0AFF0E4CAC9F8EB54076014FBC380
:10033300EA13FAE913F9E813F8EF135002D2E0FFD6
:10034300DBEDD0E0C0E030E739C3E49FFFF5F0EC2C
:1003530098FC42F0ED99FD42F0EE9AFE42F0D0E0B7
:10036300F9D0E0F8E5F0607AE923F9EE20E742D826
:10037300028067C3EF33FFEC33FCED33FDEE33FE56
:1003830080EAEC28FCED39FDEE3AFED0E023F9D00B
:10039300E0F84002801BC3EE13FEED13FDEC13FCEB
:1003A300EF135002D2E0FF08B800067F7F74FF808E
:1003B3002EEF3350178CF020F00260100CBC000CB1
:1003C3000DBD00080EBE000408E860DFE933E81342
:1003D300FFEE2313FE4F4D4C8008E95480FFE4FEEB
:1003E300FDFCEE33EF33F47004FCFD7E80D0E0FBC4
:1003F300D0E0FAD0E0F8D0E0CFC618CEC618CDC60C
:1004030018CCC6F92212131B7004181818221213E1
:1004130039700D74FFF61819F61819F61819F62223
:10042300E7548066F6121386700F12137C70F01473
:10043300F608F608F608F680D112137C700CF6085D
:10044300F608768008E6447F80EC1211AF700C1238
:10045300118560BFE65480F6E480BB1211857005F8
:1004630019191980A5E869700C763F18768018F67B
:1004730018F6E8F922E6CDC0E018ECC0E0E633CD8B
:1004830033CDD313F6E719FCE7191933CC33C394EF
:100493007F400ECD9D502408E65480F6E418F68084
:1004A3000FF4043D14501408E6447FF6187680E4F4
:1004B30018F618F6D0E0FCD0E0FD22CCD313CCFD27
:1004C30018E4C6CBC0E018E4C6CAC0E00808ED08CB
:1004D300C633E613F618E433C675F003C3CA97CAE6
:1004E30009CB97CB199C40047D08802EBD000302E5
:1004F30005B116B6FF050606081618C3CA33CACBDC
:1005030033CB33CA27CA09CB37CB193CC37D088009
:100513003E187D0820E75CC633C6CA33CACB33CB4B
:1005230033DDF1D5F0EB30E77BCA97CA09CB974AA5
:10053300CB199C406F4B7025E620E0218066187D27
:1005430008C3CA97CA09CB97CB199CD3C633C6CA6B
:1005530033CACB33CB3350C9DDE7D5F0E1D3E4C69F
:1005630036C608C636C608C636C608C636C61818FE
:10057300188031C3CA97CA09CB97CB199CB340974C
:10058300C633C6CA33CACB33CB33DD34D5F02EC61C
:10059300A2E0C640C8CA27CA09CB37194A70BECBE6
:1005A3003CB480B90808E63308E633601F1818180E
:1005B300D0E0FAD0E0FBD0E0FCD0E0FD22187D08CB
:1005C300CA27CA09CB37CB193CD3808013F618E46A
:1005D300B67F11F618B6FF0EF618C60470D20808D7
:1005E300768080CAF618F618F680C50012131B60D1
:1005F3004F1213396012E7548066F612118270119C
:1006030012137C703B090909F4F618F618F618F66C
:10061300221211AC701512138608080860EAE6442A
:100623007FF618768018E4F618F622121386601601
:1006330012137C7012E4F608F608F608E65480F606
:1006430009090918181822EAC0E0EBC0E0ECC0E081
:10065300EDC0E0E687F0A4FBACF008E687F0A42C3D
:10066300FCE435F0FA1809E687F0A42C4B60027419
:1006730001CA35F0FCE433FB09E687F0D2F7A42C7A
:10068300CB35F0FC1908E687F0A42BCC35F0FBE45E
:1006930033FD0819E687F0D2E7A42C4ACB35F0CD19
:1006A3003400FC09E687F0D2E7A42DCC35F0FDE455
:1006B30033FA0918E687F0D2F7A42CCD35F0CA3403
:1006C30000FC08E687F0D2E7D2F7A42ACC35F07A0B
:1006D3007E20E70B0ACB33CBCD33CDCC33CC33CB1E
:1006E3003350147004ED30E00ED2F1E4CD3DCDCCA7
:1006F3003CCC3B5005DA05C2F1EB547FC63308E628
:100703003392F0FBE73309E733C39A502D2B70196B
:100713000C0D4C4D70151806E608C333700D20F10F
:100723000AA2F013F6E418800B4024E4F630F0023A
:10073300768018F618F618F68024D33B14501074FC
:10074300FFA2F013F6187680E418F618F6800FA2CD
:10075300F013F618E63303F618ECF618EDF6D0E0CE
:10076300FDD0E0FCD0E0FBD0E0FA22C0E074F2124E
:100773000BB9A2AFE492E0FED2AFE5A7FAE5A1FB85
:10078300EA5B5410600812226775A1EF802AEAA27F
:10079300E0C0D0EBA2E092F0121237158182F05044
:1007A30017906198E0FA9016D4E0C39AA2D265D06C
:1007B300335002EAF075A1FEEEA2E092AF7F010290
:1007C3000C70C0E074F2120BB9A2AFE492E0FED257
:1007D300AF9061A4E0FA759B00E5915A5408600854
:1007E3007591F71222A9802AE5915A541060087571
:1007F30091EF1222AF801BEAA2E0C0D0E591A2E004
:1008030092F0121237158182F05007E0C2E0F01225
:1008130023F39061A3E0FAE5E95A5404600E12232E
:10082300C975E9FB906193E0A2E640F2808AC0E0DB
:1008330074F2120BB9A2AFE492E0FED2AF9061A5BD
:10084300E0FAE5BF5A5404600675BFFB12240B029D
:1008530007BBC3E498F8E499F91208968026C3E429
:100863009AFAE49BFBE920E7E9120896E498F8E496
:1008730099F922C3E498F8E499F9120896E498F8F0
:10088300E499F9C3E49AFAE49BFB22EB20E7CFE96E
:1008930020E7E0B90010BB0008E88AF084F8AAF06A
:1008A30022E4FBC8FA22EB70227B10C833C8C93399
:1008B300C9335007C39AC3DBF280069A50012ADB7F
:1008C300EAC833F4C8C933F4C9FA2275F008E4C896
:1008D30033C8C933C933C99AC99B5004C92AC93B10
:1008E300D5F0ECFBC833F4C8E4C9FA2212092F206F
:1008F300F01430E72B74FFFCFBFA747F8022E4FCD6
:10090300FBFA7480801AB48008BC00F2BB00EF804D
:100913000F50EBF9E4C39AFAE49BFBE49CFCE499E3
:10092300C6CC18C6CB18C6CA18C6F922E4C9C6086D
:10093300CAC608CBC6D3330308CCC63392F0C394DC
:100943007F402E94184019C9B90704CACBCC225052
:1009530025C309CA33CACB33CBCC33CC33D9F42226
:10096300F4600DC9CCC313CB13CBCA13CAD9F6CCCD
:1009730022E4FCFBFA2214FCFBFA22080808EAC072
:10098300E0EBC0E086F0E7A4FA180986F0E7A42AB2
:10099300FA180986F0E7A42AFA180986F0E7A42AC8
:1009A300FA1986F0E7A4FBE5F02AFA190886F0E7BE
:1009B300A42BFBE5F03AFA190886F0E7A42BFBE534
:1009C300F03AFA18180986F0E7A4C5F02BFBE43ACD
:1009D300FA1908E7C5F0C6A426F6E5F03BFBE43AAE
:1009E300FA1886F0E7A4F6E5F00826F6E43B08F6E5
:1009F300E43A08F6D0E0FBD0E0FA22080808E63033
:100A0300E7111211EA120A16080808C64480C6182C
:100A1300181822181818E9799EC608CAC608CBC642
:100A230008CCC6C370207996CACBCC7019798ECB0B
:100A3300CC70137986CC700EF9802ACA33CACB33B3
:100A4300CBCC33CC331930E7F2CCCBCA3350147050
:100A530004EA30E00DE4CA3ACACB3BCBCC3CCC50E1
:100A63000209C3E913C6CC182313C6CB18C6CA1888
:100A7300C6F922E4CFC0E0E4CEC0E0E4CDC0E0E4B8
:100A8300CCC0E075F020C3E633F608E633F608E69B
:100A930033F608E633F6181818EC33FCED33FDEEA5
:100AA30033FEEF33FFC3EC9709ED9709EE9709EF98
:100AB30097191919400FFFEC97FC09ED97FD09EE03
:100AC30097FE191906D5F0BEECF709EDF709EEF715
:100AD30009EFF7191919D0E0FCD0E0FDD0E0FED002
:100AE300E0FF22C0E074EB120BB9C2AFA2D850579B
:100AF3009081AF780812130C9006DE780812121159
:100B03009006DEC082901E42780812130C9081A7D3
:100B1300780C12130C7808790C12097E758306D0B1
:100B23008278081212EC401F908197780812130CF8
:100B33009006DE78081213489006DB7461F0A37404
:100B4300EAF0E49006DAF0D2AFC2D87F08020C7064
:100B53002518C582C0E0E51934FFC583C0E0E51858
:100B6300C3958224F8F8E4C5A8858319858218C53E
:100B7300A8E8CEF0A3E520F0A37808E608F0A3DE0A
:100B8300FAEFF0A3E58124FAF8E608F0A3E608F00B
:100B9300A3E608F0A30808E608F0A3E608F0A31507
:100BA300811581D0E0FED0E0F8158115811581E82B
:100BB300C0E0EEC0E022C0D02518C582C0E0E51930
:100BC30034FFC583C0E0E518C3958224F310AF0852
:100BD3008583198582188008858319858218D2AF89
:100BE300C8F0A3E9F0A3EAF0A3EBF0A37908E709BF
:100BF300F0A3D8FAECF0A3EDF0A3EEF0A3EFF0A38B
:100C0300D0E0F0A3D0E0F0A3D0E0F0A3E520F0A380
:100C1300E5F0F0A322121371B90003020C5AE49019
:100C230003017896791B8002F0A3D8FCD9FA901DB2
:100C330096AA82AB83900086784779028015E49365
:100C4300A3AC82AD838A828B83F0A3AA82AB838C0D
:100C5300828D83D8E9D9E775822B7583DD740312FE
:100C6300106F758223758327740012106F851983A3
:100C7300851882E0C0E0A3E0F9A3E0FAA3E0FBA3B8
:100C83007808E0F608A3DFFAE0FCA3E0FDA3E0FEAA
:100C9300A3E0FFA3E0C0E0A3E0C0E0A3E0F5D0A39E
:100CA300E0F520A3E0A3F5F0E4C5A88583198582C8
:100CB30018C5A8D082D083D0E0F8D0E03212131B3D
:100CC300601C1213396017121386700712137C709D
:100CD30001D322C0D012137C7006D0D0B322C3221A
:100CE30033D0D0501430E0F6C3E7960809E79608EE
:100CF30009E7960809E796B32220E0D5E6970809A5
:100D0300E6970809E6970809E697B322D083D082CD
:100D1300ECC0E0EDC0E0E493A3FCE493A3FDED4C51
:100D2300600D120DEDEC24FFFCED34FFFD80EFE4CC
:100D330093A3FCE493A3FDED4C600D120F57EC2439
:100D4300FFFCED34FFFD80EFD0E0FDD0E0FCE49349
:100D5300A3C0E0E493C0E02212131B601B121339FB
:100D63006016121386700712137C600CB322C0D076
:100D730012137C7005D0D022C32233D0D05013304D
:100D8300E0EBC3E7960809E7960809E7960809E741
:100D9300962220E0E4E6970809E6970809E6970813
:100DA30009E69722D083D082E9C0E0E493A3C38607
:100DB300F0C5F095F0F908E493A386F0C5F095F03B
:100DC300700BE493A3C3994005E9048002A3E4757F
:100DD300F002A42582F582E5F03583F583D0E0F9AE
:100DE300E493A3C0E0E493C0E022C0E0C3E493969D
:100DF300087401939618400FE49366700808740111
:100E030093661870007019A3A3C3E4939608740142
:100E1300939618A3A3400DD0E0D0E0D0E0020D4B91
:100E2300A3A3A3A3A3A3D0E022851983851882E0FB
:100E3300A3FEE0A3F5207808E0A3F608DFFAE0A319
:100E4300FFE0A3C0E0E0A3C0E0E0A3C0E0E0A3C0F4
:100E5300E0E0A3C0E0E4C5A8858218858319C5A88E
:100E6300D083D082021075D083D082C5F0E493A3DF
:100E7300C5F0C395F0F5F0E493A3C395F04005E501
:100E8300F0048001E475F002A42582F582E5F035D3
:100E930083F583E493A3C0E0E493C0E02274048069
:100EA3000474028000CCC0E0EDC0E0E518C39CCC24
:100EB300AD1950011D10AF068C188D1980068C18C2
:100EC3008D19D2AF120FF2D0E0FDD0E0FC22C0E0CA
:100ED30074F2120BB9A2AFE492E0FED2AFE589A29D
:100EE300E64006E589A2E7500312218F758900C207
:100EF300C5EEA2E092AF7F01020C7074028000CCB9
:100F0300C0E0EDC0E0E518C39CCCAD1950011D1045
:100F1300AF068C188D1980068C188D19D2AF120F5D
:100F2300D0D0E0FDD0E0FC2212131B602512133950
:100F33006020121386700302137C080808E76670AA
:100F4300101819E766700A1819E76670041819E78C
:100F53006622F422C0E0C0F088F0E49366700808CB
:100F630074019366187000A8F0A3A3700BD0F0D09F
:100F7300E0D0E0D0E0020D4BA3A3D0F0D0E022D02C
:100F830083D082CCC0E0E493A360061210131470E4
:100F9300FAE493A360061211571470FAD0E0FCE44C
:100FA30093A3C0E0E493C0E022C0E074F2120BB953
:100FB300A2AFE492E0FED2AFC2C0E5D1A2E45003F7
:100FC3001221D7EEA2E092AF7F01020C70CAC0E0FB
:100FD300E493A3C582CCC582C583CDC583F0A3C5E5
:100FE30082CCC582C583CDC583DAE5D0E0CA22CAE7
:100FF300C0E0E0A3C582CCC582C583CDC583F0A381
:10100300C582CCC582C583CDC583DAE6D0E0CA22CA
:10101300C0E0E493A3D39C5010E493A3C39C400A81
:10102300D0E0D0E0D0E0020F9FA3A3A3D0E02270D2
:1010330009080808226016181818C6C333C608C65C
:1010430033C608C633C608C633C6D5E0EA22C5820E
:101053002518C582C583351910AF07F51985821880
:101063008007F519858218D2AFC58322C09FF59FEB
:10107300E473D09F22D083D082C09FE493C0E074F6
:101083000193C0E0740293F59F222518F58210AFF7
:1010930008F518400215198008F51840021519D2F1
:1010A300AF851983227404800A7403800674028056
:1010B300027401C0E0F40412108DD0E01213572221
:1010C300BB0102E722C082C08389828A83BB0003FB
:1010D300E08002E493D083D08222C0D0251810AFE1
:1010E30008F518500205198008F51850020519D2A1
:1010F300AFD0D0226016080808C6C313C618C6139B
:10110300C618C613C618C613C6D5E0EA22C0E0C087
:10111300D0EAC0E0E5A8D2AFC2C7A2E792AFD0E061
:10112300FAD0D0D0E032C3E0C696F608A3E0C69664
:10113300F608A3E0C696F608A3E0C696F62225189D
:1011430010AF08F518400215198008F5184002156C
:1011530019D2AF22C0E0E493A36C7009D0E0D0E0D1
:10116300D0E0020F9FA3A3D0E022C3E7960809E7CC
:10117300960809E7960809E796A2D265D0332218A4
:101183001818E6084608700AE608C3337005E63304
:10119300F4220822E066701008A3E066700A08A330
:1011A300E066700408A3E06622191919E7094709E4
:1011B300700AE709C3337005E733F4220922C3E059
:1011C3009608A3E09608A3E09608A3E096A2D2654A
:1011D300D03322C3E096F008A3E096F008A3E0968C
:1011E300F008A3E096F022181818E4C396F608E472
:1011F30096F608E496F608E496F622E026F608A3A7
:10120300E036F608A3E036F608A3E036F622E02639
:10121300F008A3E036F008A3E036F008A3E036F0C8
:1012230022E627F60809E637F60809E637F608093D
:10123300E637F622C0E0E8C0E0E58124FCF8E6A248
:10124300E7D0E0F8D0E022E657F60809E657F608BB
:1012530009E657F60809E657F622E056F608A3E032
:1012630056F608A3E056F608A3E056F622E056F039
:1012730008A3E056F008A3E056F008A3E056F022D6
:10128300E647F60809E647F60809E647F60809E6D9
:1012930047F622700422600D18C6C333C608C6334E
:1012A300C6D5E0F41822E046F008A3E046F008A310
:1012B300E046F008A3E046F022600D08C6A2E7135B
:1012C300C618C613C6D5E0F322C6F4C608C6F4C6CC
:1012D30008C6F4C608C6F4C622C3E7960809E7960B
:1012E3000809E7960809E79622C3E09608A3E09663
:1012F30008A3E09608A3E0962275D0007581407597
:10130300180175190300020C18E0F608A3E0F608AB
:10131300A3E0F608A3E0F622E6084608C31346084E
:10132300336002E633F422600C08C6C313C618C642
:1013330013C6D5E0F422E7094709C313470933600D
:1013430002E733F422E6F008A3E6F008A3E6F00888
:10135300A3E6F022CAC0E0E6F0A308DAFAD0E0FA86
:1013630022C5822518C582C5833519C5832274F821
:1013730055C74401F5C7790122E7C3331947194714
:10138300194722E6C333184618461846222518F58E
:1013930082E43519F58322C2AF75D69F020000227D
:1013A300121078718C011210784A8D01121078C0D6
:1013B3008D01121078FD8D01121078608E011210CC
:1013C30078B68F01121078D68F01121078389001F9
:1013D300121078D590011210782E9101121078BD59
:1013E3009101121078799201121078B792011210BC
:1013F30078269301121078809301121078B8930124
:10140300121078EA9401121078249601121078854C
:101413009601121078CE9601121078F696011210EA
:1014230078799701121078F997011210786C980166
:10143300121078919801121078A298011210781660
:101443009901121078B19901121078F399011210D1
:1014530078799A01121078A09A01121078C89B012A
:10146300121078DB9B01121078299C011210786A04
:101473009C01121078EF9D01121078849F011210C5
:1014830078B99F0112107856A00112107895A00127
:1014930012107879A101121078B5A301121078BF48
:1014A300A301121078C9A301121078D3A30112105B
:1014B30078DDA301121078F7A30112107801A401BB
:1014C3001210780BA40112107815A401121078459C
:1014D300A40112107853A40112107877A4011210FA
:1014E300789BA401121078FAA40112107851A50177
:1014F3001210786FA501121078DFA5011210781C65
:10150300A60112107863A601121078CBA60112105F
:10151300785AA70112107895A801121078E5A8014E
:101523001210781BAA011210787FAB011210780BEE
:10153300AE01121078DDAF0112107894B1011210D0
:1015430078FAB1011210780AB301121078BBB30113
:1015530012107800B401121078B1B4011210783F60
:10156300B50112107867B50112107829B60112106F
:10157300780FB90112107834B90112107886B901C5
:1015830012107884BA01121078BCBA01121078FCD8
:10159300BA011210785BBB0112107879BC011210EA
:1015A30078D9BC01121078BDBD01121078C7BF01F4
:1015B300121078E9BF011210787CC101121078C2B1
:1015C300C10112107896C20112107829C3011210BA
:1015D3007858C30112107883C3011210786EC401C6
:1015E300121078AAC4011210780CC5011210789A4F
:1015F300C5011210789DC5011210780CC601121096
:1016030078063100121078583100121078AF330089
:10161300121078FB3300121078EE34001210785950
:1016230035001210789A3500121078F03600121037
:1016330078133900121078AA39001210783E3A0054
:101643001210780D4100121078A141001210781E7B
:101653004400121078024500121078A745001210BA
:1016630078C04600121078F14700121078E748005E
:10167300121078114C00121078D44D0012107834E7
:101683004E00121078E84E00121078914F0012109D
:1016930078BC4F001210784950001210782D510079
:1016A3001210780152001210789F5200121078CC59
:1016B3005200121078EE52001210780A55001210E0
:1016C30078DC55001210782956001210789A5600CB
:1016D3001210784857001210787D5700121078CBFB
:1016E3005700121078FB5700121078395800121067
:1016F300789D5800121078A25800121078FD5800F7
:101703001210782559001210783B5A001210789C59
:101713005A00121078FF5A00121078925B001210D0
:1017230078C75D00121078A05E0012107830600058
:10173300121078C061001210785D62001210789C5C
:1017430063001210783564001210787D6400121063
:1017530078F06500121078046600121078116600A4
:101763001210782C66001210783866001210785622
:101773006600121078286800121078616800121051
:10178300786E6800121078BB6800121078AE69009A
:10179300121078F26900121078846A0012107889A6
:1017A3006B00121078566C00121078C06D00121086
:1017B30078C56E001210785B6F00121078DE6F0030
:1017C300121078F56F001210781970001210782338
:1017D30070001210782F70001210784D70001210E4
:1017E30078917000121078E270001210783F710047
:1017F300121078A07100121078A77200121078B836
:101803007300121078577400121078447500121088
:1018130078DB7500121078727600121078A17600CA
:10182300121078137700121078C17700121078E73E
:1018330077001210780679001210782579001210BB
:10184300789479001210780D7A00121078337A00A8
:101853001210785F7A00121078AA7A001210782E8C
:101863007B00121078D57C00121078FE7C001210D9
:1018730078837D00121078DD7D0012107882FF01DD
:10188300121078CDFF01121078DAC6011210781405
:10189300C701121078E7C701121078BDC8011210F2
:1018A30078ECC90112107875CB01121078F3CB01D3
:1018B300121078B9CC01121078DACD011210784CDD
:1018C300CE01121078AECE0112107810CF01121093
:1018D300781ACF0112107858CF01121078C1CF01B6
:1018E30012107860D001121078DED00112107891B6
:1018F300D10112107803D20112107829D2011210EB
:101903007859D20112107886D2011210782CD301A3
:101913001210783CD3011210788FD3011210789BE8
:10192300D301121078A7D301121078B0D30112108B
:101933007813D40112107873D401121078C4D4012F
:10194300121078DFD4011210780FD50112107830FD
:10195300D5011210783CD501121078C3D6011210AC
:1019630078E1D6011210784AD7011210785DD701B9
:101973001210786ED70112107801D8011210780472
:10198300D901121078FAD9011210787DDA011210F8
:101993007886DA01121078E9DA0112107800DB0197
:1019A30012107842DB0112107887DB01121078B62F
:1019B300DB01121078EDDB011210780ADC01121042
:1019C300782EDC011210786FDC0112107862DD01D1
:1019D300121078A8DD01121078E3DD0112107842AD
:1019E300DE011210786ADE01121078A3DE011210F4
:1019F30078B1DE0112107812DF011210784FDF0187
:101A030012107891DF01121078C2DF01121078F6FC
:101A1300DF0112107801E0011210781FE0011210AB
:101A230078E8E001121078F2E00112107831E10158
:101A330012107847E101121078B1E101121078C554
:101A4300E101121078BDE201121078D0E201121008
:101A530078E5E20112107885E301121078E9E301D9
:101A6300121078B0E401121078BBE401121078DA96
:101A7300E501121078F6E5011210784EE601121016
:101A83007885E6011210789FE60112107813E701BA
:101A9300121078A4E701121078ECE7011210781104
:101AA300EA011210787BEA01121078E6EA011210BB
:101AB300782CED011210783CED011210783FED0106
:101AC3001210784BED011210785FED011210786758
:101AD300ED01121078ACED011210785AEE011210DC
:101AE30078CAEE011210782EEF01121078C7EF01B9
:101AF30012107861F0011210788FF0011210782E15
:101B0300F1011210783AF10112107869F101121003
:101B1300786CF101121078E3F101121078D3F2011D
:101B2300121078ABF30112107835F40112107856C5
:101B3300F50112107808F60112107841F60112101F
:101B43007872F6011210787BF601121078B7F6015D
:101B53001210789EF7011210781AF801121078AA61
:101B6300F80112107874F901121078F8F9011210C3
:101B7300782EFA0112107877FA01121078E8CC0364
:101B83001210780DCE0312107828CE0312107800AD
:101B930080031210781280031210788680031210CB
:101BA30078BC8003121078138103121078FA820331
:101BB300121078D884031210780388031210783D2A
:101BC3008803121078578803121078C688031210FE
:101BD3007802890312107832890312107875890309
:101BE3001210783EF40212107854F4021210786145
:101BF300F4021210787AF402121078A7F402121089
:101C030078B3F402121078CAF402121078EFF402D7
:101C130012107835F502121078E1F5021210788D62
:101C2300F602121078F6F60212107848F802121033
:101C330078E6FA0212107817FB02121078B1FB0251
:101C4300121078BFE003121078DDE0031210782839
:101C5300E10312107872E10312107815E2031210F7
:101C6300787DE70312107820DF0312107866E00313
:101C73001210786BA103121078E8A10312107811E7
:101C8300A2031210787587011210784AA20312106A
:101C930078B4A203121078E4A20312107885A40387
:101CA3001210784CA5031210789EA503121078D950
:101CB300A50312107816A60312107879A603121042
:101CC30078A4A60312107831A7031210788BA70308
:101CD300121078177E00121078307E00121078DC14
:101CE3007E001210787B7F00121078AA7F001210FA
:101CF3007898AD0312107812AE031210781DAE035C
:101D0300121078698C011210782992031210782C22
:101D13009203121078D892031210780393031210CF
:101D2300787A93031210789E9303121078BE93036C
:101D33001210780594031210783394031210785319
:101D430095031210788A9503121078AB950312103D
:101D530078009603121078D19603121078F996033F
:101D63001210782C9803121078CF9803121078D59C
:101D73009903121078FE9903121078319A03121006
:101D8300787E9A03121078C49A03121078349B0356
:101D93001210785C9B031210781E9C031210782794
:101DA3009C031210787D9C03121078A89C031210D8
:101DB30078069D03121078A59D03121078E49D0305
:101DC300121078389E031210789B9E03121078C36A
:101DD3009E031210783F9F031210788C9F031210FA
:101DE30078CB9F03121078FF9F0312107811A00382
:101DF30012107823A00312107842A0031210784225
:101E0300A1031210787CE503121078BAFF021210B6
:101E13007826DB031210788ADB03121078AEDB031B
:101E2300121078B4DC03121078E29F021210780BC0
:101E3300A10212107847A10212107805A302121012
:101E4300783FA302121078B5A502121078FCA50200
:101E5300121078A3A70212107842A802121078A4D5
:101E6300A80212107851A90212107891A902121037
:101E730078D1A90212107861AB02121078D3AC02A8
:101E83001210781FAF021210784DAF021210788330
:101E9300AF021210788CAF02121078F1AF02121059
:101EA3007873B002121078B5B302121078D7FF011D
:101EB300121078EDFF01121078FCBE031210781493
:101EC300BF03121078BCBF03121078FDBF031210BA
:101ED300781AC0031210783DC00312107884C0032F
:101EE300121078BDC003121078F1C0031210787F6E
:101EF300C20312107845E9031210787BE90312102C
:101F03007898E903121078DDE903121078E9E90300
:101F1300121078F3E903121078C5E6021210781450
:101F2300E70212107822E7021210782FE80212104B
:101F330078BDE80212107807E90212107858E90216
:101F4300121078B5E902121078C9E902121078A5C7
:101F5300EB021210782BEC0212107855EC021210DF
:101F63007846EE0212107861EE02121078A2EE02A9
:101F7300121078DEEE0212107837EF021210785545
:101F8300EF02121078B9EF021210784CF10212101E
:101F9300786EF102121078A3F102121078CEF102DA
:101FA300121078D9F10212107822F202121078C7B7
:101FB300F202121078ECF202121078F6F20212100A
:101FC30078F9F2021210786EF3021210788BF30292
:101FD300121078F2F30212107825F4021210782806
:101FE300F40212107830EB0312107848EB0312104E
:101FF30078A3C602121078F2C6021210783EC80205
:10200300121078C7C8021210782AC9021210786C0D
:10201300C902121078E3C9021210787ACA021210A8
:1020230078FCCA0212107838CB02121078FCCE0268
:10203300121078B2D002121078D8D0021210789F02
:10204300D102121078A2D1021210785ED2021210BD
:10205300782DD402121078A8D4021210783AB40260
:10206300121078F9B40212107869B5021210787858
:10207300B502121078FCB50212107865B602121080
:102083007867B70212107890B70212107841B8023D
:1020930012107884B802121078E1B802121078CBCB
:1020A300BB021210785DBC02121078C2BC0212107F
:1020B3007861BE0212107817BF02121078B6BF0201
:1020C30012107812C0021210787AC002121078949B
:1020D300C1021210784EC302121078EBC302121021
:1020E300785BC4021210785BC502121078F57F008A
:1020F300121078F87F0012107829C6031210785D49
:10210300C7031210788CC7031210783BC803121050
:1021130078A1C80312107812C903121078ACDD033A
:102123001210781DDF0312107874E80312107885FB
:10213300E8031210782BE90312107815FE0212102F
:102143007823FE0212107851EE03121078CAEB03C3
:10215300121078DAEB03121078F2EB031210785AAC
:10216300EC0312107861E303121078EAE303121010
:10217300785CE40312107875E403121078A0E4038A
:1021830012107805E50312107814E5031210785243
:10219300E50312107898C903121078A6C903121028
:1021A3007826CA03121078EDCA03121078A3CC0361
:1021B300121078AAA70312107829A803121078F92D
:1021C300A80312107854A90312107855AA03121009
:1021D30078DEAB031210783DAC0312107897AC0392
:1021E300121078A0AC03121078B0AC03121078E28E
:1021F300AC03121078F8AC031210787AAD03121006
:102203007884AD03121078BDFA0112107810FB0127
:1022130012107824FD011210785CFD0112107881F0
:10222300FD011210789AFD01121078B3FD0112100E
:1022330078B4FE0112107843FF01121078F5D6032B
:1022430012107838D70312107849D7031210787C0C
:10225300D703121078B2D703121078E8D7031210FD
:102263007861D8031210789ED803121078B3CF0385
:10227300121078DBCF0312107818D00312107827CE
:10228300D00312107846D003121078B0D003121086
:1022930078B9D0031210781AD1031210783ED10303
:1022A30012107801D2031210780ED2031210781F85
:1022B300D203121078B4ED03121078D1ED0312108B
:1022C3007860BB03121078C5BC03121078D2BC032C
:1022D300121078E8BC0312107805BD031210781CA5
:1022E300BD0312107831BD03121078B5BD0312106F
:1022F3007894BE03121078DDBE03121078EDBE038E
:1023030012107895EA03121078BAEA03121078E3F0
:10231300EA031210780BEB0312107810D903121092
:102323007837D90312107855D903121078C2D9031C
:10233300121078B4D403121078CDD403121078D9C4
:10234300D403121078EDD40312107811D5031210B0
:10235300781DD5031210782CD5031210783FD503BE
:1023630012107856D50312107890D503121078C244
:10237300D50312107811D6031210785DD60312100C
:102383007875D6031210787FD603121078A5D6037A
:10239300121078EAD603121078F1EC031210780DBC
:1023A300ED031210783DEE03121078D18903121059
:1023B30078FD8903121078198A031210782C8A0386
:1023C300121078428A03121078AC8A03121078DF55
:1023D3008A03121078498E03121078728F03121039
:1023E30078A28F031210780B9003121078089103D0
:1023F300121078309103121078459103121078551A
:102403009103121078969103121078EB9103121036
:1024130078FB91031210782AE20312107845E20345
:102423001210786EE20312107888E203121078AD6E
:10243300E203121078CCE203121078E5E2031210E3
:102443007814E3031210782FE30312107870ED036E
:1024530012107897C2031210789EC203121078AB41
:10246300C303121078DDC30312107803C4031210E0
:102473007836C40312107848C40312107883C40357
:10248300121078F3C40312107830C5031210787D4C
:10249300C503121078ABC503121078CBC503121015
:1024A300784DD20312107886D20312107889D303A1
:1024B300121078B1D4031210787DE603121078DB82
:1024C300E6031210781AE7031210785BE703121081
:1024D3007885B703121078AEB703121078F7B703F5
:1024E30012107813B80312107844B8031210785BF3
:1024F300B80312107868B80312107885B803121065
:102503007872B903121078A9B903121078B3B9031A
:10251300121078C0BA03121078CBBA03121078DD08
:10252300BA03121078E6BA03121078F0BA03121045
:102533007818B30312107805B70312107813B70392
:10254300121078F0ED03121078F6E9031210781FD9
:10255300EA031210781FEE0312107864EC031210D2
:10256300788DEC03121078C3D6021210789BDB022D
:10257300121078E586011210783486011210785A09
:1025830085011210780C8501121078E9840112106C
:1025930078AC84011210787184011210784D840193
:1025A300121078C08B01121078518B0112107832FF
:1025B3008401121078C18301121078BE8A011210AF
:1025C30078B48A01121078EF8201121078628201C6
:1025D300121078F68101121078D78101121078C594
:1025E3008101121078B79F02121078999F0212107E
:1025F30078AA9E021210780E9E021210789C9C02FA
:10260300121078199A02121078A899021210787E83
:102613009602121078569602121078F9950212104B
:1026230078E195021210782C9502121078CD94025D
:10263300121078229302121078C69202121078C3F5
:102643009202121078D09102121078A28A0112100D
:1026530078758A01121078438901121078B09102BB
:10266300121078009102121078828F0212107849AA
:102673008F021210781E89011210781A8F0212101D
:1026830078178F02121078098F02121078F58E02D4
:10269300121078E88E02121078CC8801121078A8F4
:1026A300880112107842AE03121078008E021210C5
:1026B300788C8D02121078528D02121078FA8C02E7
:1026C300121078C98C02121078F98902121078ED71
:1026D3008902121078608902121078AE88021210F3
:1026E300784D8602121078B6830212107880830226
:1026F300121078268202121078D9810212107812F1
:102703008102121078678002121078008002121082
:10271300783A800212107865880112107837A20384
:1027230000000080FBE473000000000000000000D4
:1027330000000000000000000000F800000000009E
:102743000000333000000000100C06100C060000DF
:102753000000000000000040C07840C07840000442
:102763003F04043F040400007088FC0830000000AC
:102773001820FF211E0000F008F000E01800000000
:10278300211C031E211E0000F00888700000001E9B
:102793002123241927211010160E00000000000029
:1027A30000000000000000000000E0180402000028
:1027B3000000071820400000020418E00000000099
:1027C30040201807000000404080F0804040000295
:1027D30002010F01020200000000F00000000001EE
:1027E30001011F0101010000000000000000008042
:1027F300B0700000000000000000000000000000B6
:1028030001010101010101000000000000000000BE
:102813003030000000000000000000806018040059
:102823006018060100000000E010080810E0000036
:102833000F102020100F00001010F80000000000FF
:1028430020203F2020000000700808088870000046
:1028530030282422213000003008888848300000C6
:1028630018202020110E000000C02010F8000000E6
:10287300070424243F240000F8088888080800007F
:1028830019212020110E0000E01088881800000094
:102893000F112020110E0000380808C83808000066
:1028A30000003F00000000007088080888700000E6
:1028B3001C222121221C0000E010080810E0000067
:1028C30000312222110F00000000C0C000000000F0
:1028D3000000303000000000000080000000000015
:1028E300008060000000000000804020100800000D
:1028F30001020408102000404040404040400004D2
:1029030004040404040400000810204080000000B4
:1029130020100804020100007048080808F00000B5
:1029230000003036010000C030C828E810E000077E
:1029330018272423140B000000C038E000000020F7
:102943003C23020227382008F8888888700000207A
:102953003F202020110E00C0300808080838000767
:102963001820202010080008F808080810E00020AC
:102973003F202020100F0008F88888E80810002066
:102983003F20202320180008F88888E8081000203A
:102993003F200003000000C030080808380000078B
:1029A300182020221E020008F808000008F808205A
:1029B3003F210101213F20000808F808080000001A
:1029C30020203F2020000000000808F8080800C06D
:1029D3008080807F00000008F888C0281808002045
:1029E3003F20012638200008F808000000000020DE
:1029F3003F20202020300008F8F800F8F8080020D5
:102A03003F003F003F200008F830C00008F80820CE
:102A13003F200007183F00E01008080810E0000FEF
:102A230010202020100F0008F808080808F00020E4
:102A33003F210101010000E01008080810E0000F29
:102A430018242438504F0008F8888888887000209C
:102A53003F2000030C30200070880808083800006D
:102A630038202121221C00180808F8080818000043
:102A730000203F2000000008F808000008F80800C4
:102A83001F202020201F000878880000C838080075
:102A93000007380E010000F80800F80008F80003EA
:102AA3003C0700073C03000818688080681808206A
:102AB300302C03032C30200838C800C83808000025
:102AC30000203F2000000010080808C83808002034
:102AD30038262120201800000000FE020202000018
:102AE30000007F40404000000C30C00000000000A8
:102AF3000000010638C00000020202FE00000000D0
:102B03004040407F00000000000402020204000075
:102B13000000000000000000000000000000008032
:102B2300808080808080800002020400000000001A
:102B33000000000000000000008080808000000092
:102B430019242222223F2008F80080800000000080
:102B53003F112020110E0000000080808000000043
:102B63000E112020201100000000808088F8000052
:102B73000E112020103F2000008080808000000084
:102B83001F222222221300008080F08888881800E8
:102B930020203F20200000000080808080800000F3
:102BA3006B94949493600008F80080808000002068
:102BB3003F210000203F2000809898000000000083
:102BC30020203F2020000000000080989800000093
:102BD300C08080807F000008F80000808080002093
:102BE3003F24022D302000000808F80000000000F8
:102BF30020203F2020000080808080808080002073
:102C03003F20003F20003F80800080808000002024
:102C13003F210000203F20000080808080000000D2
:102C23001F202020201F0080800080800000008063
:102C3300FFA12020110E0000000080808080000092
:102C43000E112020A0FF80808080008080800020E3
:102C5300203F212000010000008080808080000050
:102C630033242424241900008080E08080000000A5
:102C730000001F20200000808000000080800000F2
:102C83001F202020103F2080808000008080800053
:102C9300010E300806010080800080008080800FD4
:102CA300300C030C300F0000808000808080000017
:102CB30020312E0E312000808080000080808080B3
:102CC300818E701806010000808080808080000063
:102CD30021302C2221300000000000807C02020001
:102CE300000000003F404000000000FF0000000023
:102CF300000000FF0000000002027C8000000000D2
:102D030040403F00000000000601010202040400ED
:102D1300000000000000000001363601010001023E
:102D2300010001030100010401060605020000077A
:102D33000100340801000F090401010D0100FF0E19
:102D430008000017020000190100FF1A0100011B0F
:102D53000100FE1C0100081D0200001F01000120EC
:102D6300010001210200002301000F2402000026BC
:102D730001000127010008280200FF2A0100072B98
:102D83000102402C0100002D0100012E0100012F42
:102D93000100FF30010B1C310800003A0100083B21
:102DA30001000F2F0100000103710301030103015F
:102DB30003010301032203020301031003000300C1
:102DC3000300030003000300030003420300032482
:102DD300030603000300030403120325032303254F
:102DE3000323030403040300030003000344030059
:102DF300030003230300036503210035038103005C
:102E030003050300030003000303027102300160A2
:102E13000211027002010202020202800210026128
:102E2300023A00410063027302720262024302002B
:102E33000213023800000200020402120200020020
:102E4300020002000204020402370037003C02447D
:102E5300020002390000020002650200023502810D
:102E630002000205028202830200020101710101D4
:102E73000101011101010131010101010180011071
:102E83000161013B0014006301730172016201439C
:102E9300010001130106013D013500040112010087
:102EA3000100010001000104010401330133013C6D
:102EB30001440132013600000100016501000135C2
:102EC30000810100010501820183010001030471F6
:102ED30004020460041104700402040204010402E5
:102EE3000410046104000414046304730472046290
:102EF300044304000413040604000400040404123D
:102F030004000400040004000451046400000400ED
:102F130004000444040004000400040004650400E5
:102F230004350481046400050400048304000403DD
:102F33000071003001600011007000310220035065
:102F4300048000100061000000140063007300722D
:102F530000620043000000130006000000000004AC
:102F6300001200000000000000000004000400370D
:102F73000037003C02440000000000000000006530
:102F83000000003500810000000500000083000000
:102F93000036000100060000000F000000000000E2
:102FA3000000000000000003FFFF00000403FFFF18
:102FB3000000FFFF0FF4010005C40403200001001B
:102FC300130B000000000000000003010F01009933
:102FD300200200092003000F200400152005001B18
:102FE30020060027201100452014004B201500392E
:102FF30020FFFF0000014916067F160879160B9182
:103003001610B315024F16056D160755160C2B1621
:103013000D3D16FF0000C719F719CD19D319F11982
:10302300E519DF19FD19031A091A151AD919C11956
:10303300BB1900160F00000B150B020002220F3202
:10304300000006B71AC91ACF1A9119D51A8B199706
:1030530019171B351B3B1B1D1B291B231BCB18C51A
:103063001801190719FB18B31800034948424D18F2
:103073001725050200011916181616152303000C4F
:103083000E020B040B0A0708000F30301618192024
:10309300231A1C1E30303017181921301B1D1F3006
:1030A30000383C3E363B3B352B432C0B1BDB1AE1F4
:1030B3001AED1AE71AEB190F1A2F1B1B1A211A0202
:1030C3000402010101010902D718DD18D1180D19F5
:1030D3000005150D0910080400000000000000BEE3
:1030E300040AE318F5180E00FA063800040050002D
:1030F300280003090108040A0309000CFF1E1E052A
:10310300043208C082C083E99003CDF0E4900382C7
:10311300F01224A19003E1E4F0A3F09003CEF0A316
:10312300F012183512269F12150B1224A790034292
:10313300E4F0A3F09003F3E07002A3E060099003CE
:10314300F3126885122728903104E493FA79021266
:10315300251302589674F2120B53EAFEEBFF7480A8
:103163005FF9E47001E960619003CDE0F9121DB1EC
:103173008A088B09EA7001EB60467B0080010BEB48
:1031830075F003A424F8F8E5F0342FF988828983D5
:10319300E493FA74FF6A6021850882850983E06AF3
:1031A30070DCAA08AB0988828983A3E493C0E07426
:1031B3000193F583D082122728AA08AB09121DA513
:1031C300EEFA74806FFB02339874205FF9E47001A8
:1031D300E9601D12170F8A088B09EA7001EB600A78
:1031E30012163DAA08AB09121DA5EEFA742080D46D
:1031F300EE542070030232C9750C001254FC7001A6
:10320300EB700B7C027D007A207B001278597C00E6
:1032130079047A007B001216D98A088B09800D7411
:103223000188828983F0850A08850B09E508700205
:10323300E509606D7C007904AA08AB091216D98AE6
:103243000A8B0B750C01E50824041278AB24FFF0FC
:10325300A3E034FF127B117002A3E070C9E50824D8
:1032630009F8E5093400F9850882850983A3A3A336
:10327300A3A3A3A3A3A3A3E0640170A385088285EA
:103283000983A3A3A3A3A3A3E054047092740688A1
:10329300828983F07AB78508828509831234E380B3
:1032A300851216A97C0079017A007B001216D9EAEF
:1032B3007001EB7009E50C70057A201233A47420B9
:1032C3006EFAEF0231C8EE54106007121541741004
:1032D30080EEEE5440600712159B744080E2EE547A
:1032E30080600712145D748080D674015FF9E47006
:1032F30001E9601A9003F5E07002A3E0600990030E
:10330300F5126885122728EEFA74010231C7740892
:103313005FF9E47001E9602D121517901468E064F9
:1033230001701B901469E06015FC75F0E8A4CCAA49
:10333300F075F003A42AFD7A007B08127859EEFA9F
:1033430074080231C774105FF9E47001E9601290E8
:1033530003DFE06005E4F0121517EEFA7410023192
:10336300C774025FF9E47001E9600A12182FEEFADC
:1033730074020231C774045FF9E47001E960121248
:103383006C28126A7E79011244F8EEFA7404023151
:10339300C77A007B00800574031210DD7F06020EDE
:1033A3002C7B009003CDE0F9121EDD2274F7120B83
:1033B3005374E1121141EAFEEBFFEE7001EF60334B
:1033C300851882851983AC82AD831217397406126E
:1033D3001390E0601E7417121390E0FD7401121332
:1033E30090E0FCEEFAEFFB79001225EBE96004793B
:1033F300A4800279000259EB74F5120B53EAFEEB39
:10340300FF8E828F83A3A3A3A3A3A3E054406018DA
:1034130012729260067AFF7BFF806A8E828F83121C
:103423005DBEFAA3E0FB805390036DE0A2E1504838
:10343300126FBE241CF8EB1254E77508FE7509FFE2
:1034430078081210B0124094120EA479008C828D69
:1034530083126EB2A3A3A3E0F5088C828D83126C52
:1034630015A3A3E0FDAC088A828B8312656612154F
:103473001D74041210DD800312175D74FE6A70035D
:1034830074FF6B6043126881126DAF1217DBE98E14
:10349300828F8360061234DCE480051234DC74010D
:1034A300F07C0D7D168E828F8312656612250DE9E1
:1034B300F5087017EE7001EF60097901EEFAEFFB82
:1034C3001216B5A9080271217508CDAA088E828F3C
:1034D300831234E3E960DD80EAE0240D12601A22EE
:1034E300E0240C125A36F91216192274F6120B53F1
:1034F300E9FEEAFF7A0F7B00121D9FEA7001EB6081
:1035030019740C8A828B83F0EEA3A3F0EF8A828B6B
:1035130083A3F0126A6F79008028EEF91216DF8A0E
:10352300088B09A808A909E87001E96013740688E3
:10353300828983127B16E0F91215ADEEF91216BBE0
:10354300791002687CEAFCEBFD7A017B009003CDE5
:10355300E0F9121ED122C082C0837900EA241DF54E
:1035630082EB12409A12656690036DE0A2E18A82B3
:103573008B83E0500E120F8201010A8335009735C9
:10358300098011120F820103048335020783350A70
:103593008335973502589674EE120B53EAFEEBFF10
:1035A3008C088D09890E7412121390E0F510A3E0B4
:1035B300F511851082F583E4F0A3F01236CCEE24E6
:1035C3001DF8EF3400F9880C890D88821236E56006
:1035D3001F850A82850B831239A47014850A82859C
:1035E3000B83125B76851082851183126A7E8003BA
:1035F300750E00850C82850D83125DBE120E6A0165
:10360300096B361A36323640364B366B3675366BA7
:10361300368F36A836BB3678101210B0AC08AD0919
:10362300EEFAEFFB12152974021210DD0236C4AC58
:1036330008AD09EEFAEFFB12152F0236C7A90EEEFD
:10364300FAEFFB1217F38079127C9264027019E58A
:103653000E700A1236D97003A3E0697067EEFAEFB1
:10366300FBA90E1217AB8059750E0079011224B312
:1036730080521236D97003A3E06970EC127C926415
:103683000270E5EEFAEFFB12179380389003F7E030
:103693007002A3E0602EEEFAEFFB9003F712688549
:1036A300122728801F1236D97003A3E06970B9EE80
:1036B300FAEFFB1217FF800CEEFAEFFBA90E1218BC
:1036C3000BE9F50EA90E0254D8EE2409F8EF3400E5
:1036D300F9880A890B22850A82850B8312711AE005
:1036E3006822F583125DC2F91217BDE92274ED1247
:1036F3000B5374DE1211418A088B09EA2402F51078
:10370300EB126196F91216DF8A0A8B0BAE0AAF0B26
:10371300EE7001EF70030237D7E508240C126D8AAF
:10372300123902240612408C850882850983A385F9
:103733008208858309E064F16017E064CD6012E0DC
:10374300641A600DE064E96008E064E16003023834
:1037530061850E82850F83A3E05408F9E47001E9C3
:10376300607F7405850A82850B83F09003FBE0700C
:1037730002A3E060099003FB1268851227289003D7
:10378300FDE07002A3E0603390036DE0A2E1502BF3
:103793008E828F8312728CA3A3A3A3A3A3A3125914
:1037A300F51240A6EA7001EB601185088285098352
:1037B300E0F99003FD126885122728850A82850B9C
:1037C30083E0640270037406F0851082851183E040
:1037D300F91216BB1216A974221210DD7F0B020E0A
:1037E3002C79001216B5E9607590036DE0A2E140F3
:1037F3000302376E1276597002A3E0700302376E2C
:103803007403121390127640850882850983E0645D
:10381300E9701A12390A1210B4850882850983E007
:10382300F51278121210B4124BCE1210DD740C1272
:103833001390126566126881126DAF7900740E12CF
:103843001390125D98740C1213901240D6700302F9
:10385300376E850E82850F83125DA202376D850850
:1038630082850983E0C0E07402121390D0E0F01265
:103873007707EE240B127C95851882851983AA821B
:10388300AB83700512148D80031217B774021213E1
:1038930090E064E9701412390A1210B47512E978D1
:1038A300121210B4124BCE1210DD90036DE0A2E1A0
:1038B30040030237BE850A82850B83E064027027CA
:1038C300850E82850F83E05404601C12729270137C
:1038D30012688174FFF0A3F07405850A82850B8357
:1038E3000237CB740380F3850882850983E064E99A
:1038F30060030237BEEEFAEFFB1218110237BEEE79
:103903002409127862EE22126FC375120178122213
:1039130074F5120B538A088B09750A00EA240912FD
:103923005B69FEE9FF8E828F831239A47003750AE7
:10393300018E828F831264747003A3E06B7006E5BB
:103943000AD2E1F50AE5082402FEE5093400FFE5A1
:103953000A60138E828F83E07006E50AD2E5800445
:10396300E50AD2E6F50A1217DBE964017006E50AF7
:10397300D2E0F50A8E828F83E06017E508241DF5F7
:1039830082E50934001236E564016006E50AC2E007
:10399300F50AE50AA2E14004D2E7F50AA90A027191
:1039A3002112729D640222C082C08379018A828BB4
:1039B30083A3A3E0C394024001198A828B83A3A348
:1039C300A3A3E0C39402400279008A828B83A3A35A
:1039D300A3A3A3A3A3A3A3125D9874F86C700374A9
:1039E300FF6D601E74F96C700374FF6D601474FADC
:1039F3006C700374FF6D600A74FB6C700374FF6D6D
:103A0300700279008A828B83A3A3A3E0FC900370E6
:103A1300E06C60027900903101E493C39480501804
:103A2300E493C333C0E0EA2411F582EB127C98FAE5
:103A3300D0E0C39A5002790002589674E8120B53EF
:103A430074DC121141EAFEEBFF7403121390126B44
:103A5300817514007515007405121390AC82AD8343
:103A63008E828F83A3A3A3126D9B126566121739EF
:103A7300E9600F7405121390AA82AB83121637E91B
:103A8300700879011224B3024082EE241B125B708A
:103A93007412121390126A7E740B121390E0602357
:103AA300741C121390E0FD7406121390E0FC8E82D6
:103AB3008F83A3A312656679011225EBE96004796C
:103AC3000280C17405121390AA82AB83121631E9E6
:103AD300F508740B121390E0702990036AE06023D9
:103AE300742255086422601B74425508644270CFE7
:103AF3007422121390125DBEFA74066A600574078D
:103B03006A70BCE9A2E650127405121390AA82AB44
:103B13008312161FE97003023A85EE2412F516EF9D
:103B23003400F517EE242A123905242C124097127B
:103B330046B9E0687003A3E069701C750900780951
:103B43001210B478091210B4EE242E12409E1240C3
:103B5300B2124BDE1210DD740B121390E0700302ED
:103B63003BFC1240B21240A68A0A8B0BA80AA90B8F
:103B7300E87001E97003023CA0740612139012402E
:103B8300ADFAA3E03400FB740D2AF582E43BF58320
:103B9300E0FAE82404F50AE9127865E82403F582DB
:103BA300E9127C986A600DEAF0908197780C121301
:103BB3000C1240F7790474061213901240ADFCA363
:103BC300E034008C82F583A3AA82AB83121D938A0F
:103BD3000C8B0D8C0E8D0F850A82850B837810124A
:103BE300130C7810790C1212DC500302408290817E
:103BF300AF780C1211FE1240F7EE242412408CEE23
:103C03002430F50CEF126D8EEE242F1278629003A0
:103C13006DE0A2E15003023D39900382E0FA74049F
:103C23006A600874096A6003024082E508A2E540FD
:103C330003023CE61240DEC0E07401121390D0E0B0
:103C4300124C08C0E07402121390D0E0F074161204
:103C53001390E06401702074101213901240C2702C
:103C630003A3E0697011740E1213901239A4700744
:103C73007416121390E4F0850E82850F83120EA042
:103C83007404121390AC82AD837409121390AA8248
:103C9300AB8312149374041210DD0240829003C7A5
:103CA300E064016003023BFC7422121390125DBEB8
:103CB30064067009E508A2E65003023BFC74121285
:103CC3001390E064FF7004A3E064FF70030240827A
:103CD300EEFCEFFD7405121390AA82AB8312164318
:103CE300024082A2E6400302408274221213901221
:103CF30040CE701E741C121390E0640260030240F5
:103D0300827405121390AA82AB8379001217AB0257
:103D1300408274076A6003024082741C121390E0AD
:103D2300640460030240827405121390AA82AB8379
:103D330012179F0240827416121390E0601D8E8248
:103D43008F83A3A3124BFA14126368A3124BFAC016
:103D5300E07416121390D0E0F07006E508C2E7F5A0
:103D630008900382E0FA74046A600574096A70615A
:103D7300740E1213901264747003A3E06B60171235
:103D830017DBE96402600F740A121390E0540364B2
:103D93000160030240827407121390E0701B12400B
:103DA300DEC0E07401121390D0E0124C08C0E0743E
:103DB30002121390D0E0023C797422121390124045
:103DC300CE7003023CF774076A6003024082023D2F
:103DD3001D750900746155087003023EEDE508A2E4
:103DE300E05070851682851783125D98740512134F
:103DF30090AA82AB831215A1E97055121769E9F5F0
:103E0300097416121390E0700F741012139012407D
:103E1300C27003A3E069603BA909851682851783F5
:103E2300125D987405121390AA82AB831215A7E949
:103E33006013740E12139012719A121390126A7E09
:103E4300751404800EE508C2E5F5087509008003C2
:103E530053089FE508A2E5503C1240DEC0E0740120
:103E6300121390D0E0124C08C0E07402121390D0E9
:103E7300E0F0850E82850F83120EA0740412139056
:103E8300AC82AD837409121390AA82AB831214938C
:103E930074041210DDE508A2E64003023FBA74037E
:103EA30012139085820A85830B780A1210B0A90930
:103EB300851682851783125D987407121390AA8260
:103EC300AB8312162574021210DDE9F509700302A3
:103ED3003FBA7422121390125DBE64016003023F65
:103EE300BA74104514F514023FBA7407121390E024
:103EF3006401703B7422121390125DBE6405702F2F
:103F0300740312139085820885830978081210B010
:103F13007900851682851783125D987407121390B2
:103F2300AA82AB8312162574021210DD024082743A
:103F330016121390E070127422121390125DBE6475
:103F4300036003023CD30240821216AFE96003020E
:103F53004082740E12139012719A121390126A7E99
:103F630078091210B4741E121390AC82AD83740FCF
:103F7300121390126566740A121390E0F91215E396
:103F830074011210DDE9600F7514208E828F83A3F4
:103F9300A3125DBE543FF079007410121390125DAA
:103FA30098740E1213901240D6600674204514F5CF
:103FB30014121769E9F5097403121390E064FE7093
:103FC30004A3E064FF7003750900E508A2E740035A
:103FD300024082E50970030240828E828F83A3A38D
:103FE300A3A3E0FA7B00121E1D8A0A8B0BEA700161
:103FF300EB70030240828E828F83A3A3E0F50CA3B0
:10400300E0F50D750E00780C1210AC8E828F83A331
:10401300A3A3A3E0FC7D001251EA1210DD74071282
:104023001390E0851882851983F07401121390E4CC
:10403300F0A312625085820C85830D780C1210B0A8
:1040430078141210B0E509F50878081210B4851633
:1040530082851783120EA48E828F83A3A3A3A3E06A
:10406300F9740A121390125D98AA0AAB0B12172760
:1040730074071210DDE96007AA0AAB0B121E237442
:10408300241210DD7F10020E2CF50EEF3400F50F15
:1040930022EE240EF582EF1278D622F582EF126C0F
:1040A30050F922125A301218592212758E2A22857B
:1040B3000A82850B83125B8C8516828517832212F5
:1040C3005E96851682851783E06822125DC2FA74B4
:1040D300046A22125A30121523E922EE242E126C9E
:1040E3004D8518828519831240EE22F0850A828558
:1040F3000B83E022850A82850B83E50CF0A3E50D93
:10410300F0A3E50EF0A3E50FF02274F2120B53EACD
:10411300FEEBFF8C088D091236CC8882F58312657D
:1041230066901468E06011900373E06A7003A3E083
:104133006B7005121517805379001215BF8A828B95
:1041430083E5827002E583603AA3A3A3A3A3A3E05C
:104153005418602FE508241BF582E50912409A12D2
:104163000EA4E5082412F582E50912409A120EA462
:10417300EE241812409E1241911215EF740412108E
:10418300DD8008790012419112153B02339F850AA5
:1041930082850B83125B8CEE240B125A292274EE58
:1041A300120B5374EA1211418A0C8B0DEA2402F5A7
:1041B3000EEB12408F0A0AFB1225C18A088B09AE47
:1041C30008AF09750901850C82850D83A3E0F50805
:1041D300750A01AC0EAD0F851882851983AA82ABCF
:1041E300831224CB7408121390126B81740A121376
:1041F300907402F07413121390E4F0E50C240AF5A2
:104203000CE50D126D8E901D98E07010EE7001EFAD
:10421300700AE50870067509C3024377900382E0CC
:10422300640860067509C2024373850C82850D8399
:10423300E0A2E1500EA2E35005750A04800C750A52
:10424300038007A2E35003750A02EE7001EF606476
:104253008E828F83A3A3A3A3E0FA74046A60057418
:10426300036A700C7404650A601C7403650A6016A3
:1042730074026A600574016A70207402650A60063C
:104283007401650A700F8E828F83124EE2121390AF
:10429300126A7E801F74026A600574016A700A8E56
:1042A300828F8312503F122728AA0EAB0F1225A923
:1042B3007E007F007408121390E064FE7004A3E094
:1042C30064FF7038122717E97032E508601790030E
:1042D300BFE06402700F901D9F124EE2121390E82C
:1042E300F0A3E98016850C82850D83E05402F91250
:1042F300154D7408121390EAF0A3EBF0740812132F
:1043030090124417700374FF6B70057509C78060C2
:10431300E508F50B780B1210B4850C82850D83E04C
:10432300F9AC0EAD0F1214B174011210DDE9704037
:10433300A90AAC0EAD0F74081213901244F18A103F
:104343008B11AE10AF11EE7001EF601C74026508A3
:10435300700BEE2405127C9554FB4408F0740A128A
:104363001390E4F0F50980087408121390126B811E
:10437300E508700F851882851983AA82AB831224FE
:10438300EF8010FCA90A851882851983AA82AB8362
:10439300121799E9FAEE7001EF603EEE2405F8EF8B
:1043A3003400F9E508601288828983E0D2E6F0746C
:1043B3000265087004E0D2E5F0850C82850D83E088
:1043C300A2E6500888828983E0D2E7F08E828F8349
:1043D300A3A3A3A3A3A3E004F0E5097003EA602F5A
:1043E300FC7D007A017B101224ADEE7001EF6007B3
:1043F300AA0EAB0F1225A97408121390124417705A
:104403000374FF6B600990035A126885122728749E
:10441300160254D5125A3074FE6A2274F6120B53E4
:1044230074F71211418A088B09900382E0FA74032E
:104433006A600D74016A600874096A60030244EEDD
:104443008508828B83A3AE82AF83E060030244D3EB
:104453007C007D007A027B001224ADE50824021261
:1044630054EE127116126A7E79531224E379001204
:1044730044F8900382E06409600990038012656642
:1044830012185374011268B27404900382F0740119
:10449300121390AA82AB83794A1224DD740112139A
:1044A30090AC82AD837A787B031224CB79007401BC
:1044B300121390AC82AD839003761244F190036D96
:1044C300E0A2E35004D2F08002C2F012689A80188E
:1044D300FC7D007A037B101224AD8E828F83E0F97A
:1044E3001244F8E4900382F012168B026877125A92
:1044F3003012265722900380125A301214AB22C076
:1045030082C083900342E07002A3E0704190038273
:10451300E0120F820003012445053345064245514D
:104523004590034AE07002A3E0607690034A806BF3
:10453300900346E07002A3E06067900346805C90BE
:104543000348E07002A3E06058900348804D900355
:1045530042E07002A3E06009124BF7FC74016C7037
:104563002379009003CE800909EA1273ABEB124062
:104573009A1257C67001EB70EF9003CE1265661264
:104583001499801D74026C70051218238013900314
:10459300F9E07002A3E060099003F912688512271D
:1045A3002802589674F4120B5374FB1211418A08B3
:1045B3008B097A0F7B00121D9F8A0A8B0BAE0AAF01
:1045C3000BEE7001EF70030246B474028E828F8388
:1045D30012712779501224DD850882850983A3850A
:1045E3008208858309E0600302469D900380127868
:1045F3007A700374FF69602F74FE68700374FF6937
:104603006025851882851983E0687003A3E06960DB
:104613001674EA850882850983124DBC7A807B0370
:1046230079501224E380738518828519831246B961
:10463300126A7E7A737B0379531224DD900373121B
:104643006A787A767B03794B1224DD7A757B03795A
:10465300E11224DD900387E0C3940F502290037589
:10466300E0C0E07402121390D0E0F07404121390CF
:104673007401F07402121390AA82AB83122507759A
:104683000A00780A1210B4780A1210B4901E93E04C
:10469300F9125290124BDE1210DD850882850983D0
:1046A300124BBAF07403900382F0EEFAEFFB126A36
:1046B3006F740502640D125E969003802274F412E7
:1046C3000B5374EB121141EA125B63FAE9FB8A8222
:1046D3008B83780812130C78081212CC900383781A
:1046E300081212707F7F7E7F7C00750801750900B8
:1046F300750A00750B00EC7808121032900383786A
:104703000812125D9081977808121197602A7D0034
:104713009003CE801288828983A3A3E06C70010D7D
:104723001273AAE912409A1258347001E970E6ED47
:10473300C39F5004EDFFECFE0CECC3941B40AB8A0B
:10474300828B83780812130C908197780812119743
:10475300604590038378081213488A828B83780814
:1047630012130C8518828519837808121348740470
:104773001213907401F0900389E0C0E074051213E2
:1047830090D0E0F074071213901248DF805B12148C
:10479300CF900380126DAF9003CE1258347001E9AD
:1047A30060229003801276FAE06A7003A3E06B70D4
:1047B3000A88828983A3A3E06E60D31273AAE912E5
:1047C300409A80D6EE900375F0121673E9601AE4EE
:1047D300900382F090034CE07002A3E0600B79C475
:1047E30090034C126885122728741502640D74F027
:1047F300120B5374EB1211418A828B83A3A3A3A3DD
:10480300A3A3A3A3A3125834FAE9FB7C00750C01FC
:10481300750D00750E00750F00EC780C12103285C3
:104823000C08850D09850E0A850F0B900383780804
:1048330012125D90819778081211976025901D9E42
:10484300E0C0E08C08EA2508F582EB127C98FDD0E5
:10485300E0C39D500D780C1212CC900383780C1298
:1048630012700CECC3941B40A490038378081213BA
:104873000C908197780812119760398518828519F1
:1048830083780812134874041213907401F07407A8
:104893001213907401F0900389E0C0E074051213C1
:1048A30090D0E0F074071213901248DF740690035F
:1048B30082F08023E4900382F0FCFD7A047B1012E3
:1048C30024AD90034CE07002A3E0600B79C4900325
:1048D3004C1268851227287415026360E412712B49
:1048E3001224FB2274EC120B5374ED1211418A82D1
:1048F3008B83A3124BBFEA2408125B69FEE9FF8591
:104903001882851983AC82AD838E828F83124BE725
:10491300A3A3A3A312656612169D85188285198326
:10492300E070768E828F83E0C3940B406C8508829F
:10493300850983A3A3A3A3A3A3A3A3E0640270593C
:10494300900382E0FAE5082410F510E5093400F538
:1049530011E5082409126D8A74026A604174066ABB
:10496300603C900342E07002A3E06007124BF764DF
:1049730001605474086A600574046A701C7402123E
:104983001390E0F97407121390AC82AD83850C8207
:10499300850D831265661216A3741302750D9003B9
:1049A30042E07002A3E0701F750A00780A1210B487
:1049B300780A1210B4851082851183124BB11254F8
:1049C300F6124BDE1210DD9003CE1279009003CE67
:1049D300127505E508240DF50EE50912408F8031A7
:1049E3008E828F83E0F8A3124BB1E0687003A3E0DB
:1049F3006970128E828F83A3A3E0FA850E82850FDE
:104A030083E06A606B8E0A8F0BEE1273ABEF127842
:104A1300FDEE7001EF70C97A187B00121E1D8A1219
:104A23008B13AE12AF13EE7001EF700302499C7C3F
:104A330018127A55126B78EE240C12409774FFF01B
:104A4300E508240B1278AB124BA8127B10C4124B4F
:104A5300A8A3A3F09003CEE07002A3E07005900337
:104A6300CE800AE50A1273ABE50B12409A12770D5A
:104A73007401121390124BC9A3F074021213901213
:104A83004BC9F0850E82850F83124BBAA3124C08D3
:104A9300124B9F126373240DFAEF3400FB7402125E
:104AA3001390E06401600E7407121390AC82AD831F
:104AB3001224CB80097C087D0079FF121D8D7412AE
:104AC300121390E0C0E0EE2415124097D0E0124B91
:104AD300FFFC901E93E0C39C400302499C1278881C
:104AE300E50912409AA3E05480F9E47001E97009E2
:104AF30090139AE0700302499C7D00EE240CF8EFBA
:104B03003400F9EE240BFAEF3400FB9003BFE064AA
:104B130002701D8A828B83E0F50AC39C500D7405D5
:104B2300121390E0C39405401B801AE50A6C7015BC
:104B33007405121390E0C0E088828983E0FCD0E022
:104B4300C39C50010D7404121390E06020ED601DAE
:104B5300850882850983127133ECF0A3ED124BFFB4
:104B63008A828B83F07405121390125DB37406125C
:104B73001390E0600D74018E828F83A3A3A3A3A37C
:104B8300A3F07404121390E0700302499C74018E25
:104B9300828F83A3A3A3A3A3F002499CF8A3E0F904
:104BA3008E828F8322540F8E828F83A3A322E0F9F8
:104BB300850C82850D832212511AA322A3A3E0F54B
:104BC30008A3E0F5092212511A8021850C82850D74
:104BD30083124BE7125B888A828B83125A30121737
:104BE3006F740222E0F98A828B838002A3A3A3A3BA
:104BF300A3A3A32290034212602AE022F08510822D
:104C0300851183E022F0850C82850D83E02274F602
:104C1300120B5374C9121141900382E0640860625D
:104C2300900393E0F82487F582E4341EF583E0FAD9
:104C3300900364F0E8248DF582E4341EF583E0FBF1
:104C4300900362F07508FF7509FFEA78081212965F
:104C5300E508F4FCE509F4FD3395E0FE90038B12BF
:104C63004DB17508FF7509FFEBC39A7808121296C8
:104C7300E508F4FCE509F4FD3395E0FE90038F129B
:104C83004DB1E41268A879041224E3900393E07011
:104C930009741E12139074018006741E121390E49B
:104CA300F0740F851882851983F0901D9D1271276A
:104CB30079461224E37401121390E4F0901E74E019
:104CC300C0E07402121390D0E0F0900370E0C0E0F3
:104CD3007403121390D0E0F07404121390E4F07490
:104CE30005121390E4F07407121390E4F090039309
:104CF300E0FAC3940F74065006121390EA8005126B
:104D03001390740FF07C947D037408121390AA829D
:104D1300AB831224CB7C037D0079FF7410121390B4
:104D2300AA82AB83121D8D9003CCE0C0E0741312F2
:104D33001390D0E01269A812139012699712178783
:104D4300900387E0C0E0741C121390D0E0F090034E
:104D530088E0C0E0741D121390D0E0F0900375E07A
:104D6300C0E0741A121390D0E0F0900380125B76C7
:104D73007418121390126A7E7420121390E4F09048
:104D8300038AE0C0E0741F121390D0E0F074341271
:104D93001390E4F07429121390E4124DBC741412AE
:104DA3001390AA82AB831225017437026879ECF061
:104DB300A3EDF0A3EEF0A3F022F07A737B03795313
:104DC300124DC7221224E37A767B03794B1224E334
:104DD30022C082C0838A828B83A3E06007E49003AE
:104DE30082F0804A7408900382F0900393E0701F6E
:104DF30090034CE07002A3E0600B790090034C1227
:104E03006885122728900380125D987A05801A79A5
:104E1300001214A5900373125D987A067B00122486
:104E2300AD900376125D987A047B001224AD02588C
:104E33009674F4120B5374EA121141EA2402FEEB46
:104E43003400FF0A0AFB1225C18A088B09EA7001A4
:104E5300EB7003024EDD8A828B8312600C600F7449
:104E6300026A600A74036A600574046A706CEEFC7B
:104E7300EFFD851882851983126F45124EE21213D6
:104E830090126A7E740A1213907401F07413121351
:104E9300901271261224F5890AAC0A7D007A077BE9
:104EA300001224AD850882850983A3A3A3A3A3E0ED
:104EB300C2E0F07401850882850983A3A3A3A3A399
:104EC300A3A3A3A31278DB12088EE88508828509C1
:104ED30083A3A3A3A3A3A3A3A3F0741602640D1235
:104EE3005E9674082274F0120B5374F81211418AFF
:104EF3000C8B0D8C0A8D0B890E851882851983AC5A
:104F030082AD837583817582407408120FF2F50FA9
:104F1300AC0CAD0D851882851983AA82AB831275FB
:104F2300B77003750F019003CE8030AC0CAD0DEE5E
:104F3300240DFAEF3400127B03601A850882850979
:104F430083E0650E700F8E828F83E0650A7004A381
:104F5300E0650B6032EE241612409712588A7001F6
:104F6300EF6024EE24021254DDE50F70BE8E828FB3
:104F730083E0650A7004A3E0650B70D98508828518
:104F83000983E0650E70CEEEFAEFFB02635E74F701
:104F9300120B539003CEE0FAA3E0800CEA2416121E
:104FA30078FA121E23EEFAEFFBEA7001EB70ED9034
:104FB30003CEE4F0A3F00259F074F4120B538A0801
:104FC3008B09EA240BFEEB3400FFEA2413F582EB92
:104FD300127C9864037009EEFAEFFB1225C1800C72
:104FE300E0640270548E828F831278B7EA7001EB0B
:104FF3006047EA2406F8EB1236D1850882850983D7
:10500300A3E07007E488828983802D64F16005E062
:1050130064E1701A88828983E0640170118A828B4B
:105023008312503F122728EEFAEFFB1225A9850AB7
:1050330082850B83E0600214F0026410125A3090F0
:10504300035A1268892274F1120B538A088B09ECF4
:10505300FEEDFF890A8A828B8312753A8A828B83DB
:10506300125119F0EEF8EFF9A30EAF838A828B8306
:10507300A3A3E0C454F0FA88828983E04A1251233F
:1050830012511A12511EE0333354FCFA8E828F836D
:10509300E04A12511EA3E033333354F8FA8E828F61
:1050A30083E04AF008EFF9A30EAF838508828B8370
:1050B300A3A3A3A3A3A3E0A2E0E492E01313548069
:1050C300FA88828983E04AF0E5082407F50CEB129D
:1050D3006D8E750E00780C1210AC7C0812617F1275
:1050E30010DD127524E508240F126D8A780C121056
:1050F300AC7C0312617F1210DDE50AC3940F4011EB
:10510300E5082412F582E50912409A124BBAA3A3CB
:10511300F07F07020E2CA3E0024BA3125123A3221C
:10512300F08508828B83A3A3A32274F1120B53EAA5
:10513300FEEBFF890A8C088D098E828F83E08C82B7
:105143008D83126368AE82AF83E01264251251FC33
:10515300C41264251251F0E054038C828D831251E2
:10516300FAA2E2E492E08C828D831251F9131313B5
:10517300541F126425A31251F9A2E7E492E08C8232
:105183008D83A3A3A3A31251F08E0C8F0D750E0074
:10519300780C1210AC7C087D00E50824071251E45A
:1051A3001210DD1275248E0C8F0D780C1210AC7C4E
:1051B300037D00E508240F1251E41210DDE50824F5
:1051C30012F8E5093400F9E50AC3940F400A8E8208
:1051D3008F83A3A3A3E08001E488828983F0025133
:1051E30014FAE5093400FB121D81740322A3A312F0
:1051F300636C0EAF8322A3A3A3A3F00275D574F44B
:10520300120B5374F9121141EAFEEBFF900342E0D3
:105213007002A3E06010124BF764027009EEFAEF1C
:10522300FB12181D8062900380E06E7003A3E06F91
:10523300705674016960097A947B031275B77048DC
:105243007A007B021255007001EB703C9003837867
:105253000812130C85188285198378081213489055
:105263000389E0C0E07404121390D0E0F0740512D7
:1052730013907401F07406121390740212712712C2
:10528300144BE96098121451740702640D90038063
:10529300125B8C90037622E0F902589674F6120B97
:1052A300539003E0E0701F7C0079017A007B0012C9
:1052B30016D9EA7001EB600E8A828B83E07002A339
:1052C300E0600312161302687CC082C08312573158
:1052D300401079FF1216D3E9FA9030FEE493C39A93
:1052E300500479018002790002589674EE120B5330
:1052F3008A088B09890D750E00EA2408F50AEB125A
:105303005D8CE0F91216DF8A108B11AE10AF1175A8
:105313000C01EE7001EF60030253B4850882850926
:1053230083A3A3125DA91262581265661216C78A77
:105333000A8B0BAE0AAF0BEE7001EF70030254CE73
:105343008E828F83A3A3A3A3E4F0A3F0E508240B29
:105353001254EEE0C0E0EE240B124097D0E0F012BE
:1053630017E7EE240C126DA8E508240EF582E50973
:10537300125B73124094126A7E750E01EE2406F8D6
:10538300EF125740E0547FF0A3E054FC125686E03E
:105393005404600302543C901E71126249740778EE
:1053A300081212968A828B83E04508F0A3E0450930
:1053B300F0EE24061254E58C828D831265667480A8
:1053C3005AF50874035BF5097407780812132AE584
:1053D30008F510EE240412390524091254DDE50DF5
:1053E300606074028508828509831251FD240D12C1
:1053F3006016E0A2E2500F90036E125B76850A827C
:10540300850B83126A7EE510700302549B747F5AE6
:10541300FA74FC5BFB74FF2510F51074FF3400F580
:105423001174077810121296E5104AF8E5114BF93A
:105433008C828D83126A7E805FE04480F0A3E00259
:1054430053B3E5107005750C00804DEA54206015C8
:10545300121D998A10747F5510F8745F28850A828B
:10546300850B83801BEA5410600E121D998A1074F9
:105473000F5510F8740A80E4850A82850B83740142
:10548300F0A3E4F07404850882850983F01254FCC8
:105493007001EB70031268547401650E7030850A55
:1054A30082850B831254F6E0F9EEFAEFFB1216CD68
:1054B300E9601BEE240C1240971257C67001EB6093
:1054C30003121E23EEFAEFFB121E23750C00A90C28
:1054D30080031210DD7F0A020E2CF508EF3400F56D
:1054E3000922F8EF125B6BFCE9FD22FAE5093400AF
:1054F30002568D125B8C026C3D7A207B009003CDAB
:10550300E0F9121EE3EA2274F6120B5374F7121138
:10551300417E001216DFEA7001EB70030255D78A51
:10552300828B83A3A3A3A3A3A3A3A3A3E064066083
:10553300030255D78A828B83A3A3A3A3A3A3A3E0C8
:10554300FF8A828B83126024E0C0E07408121390F8
:10555300D0E0125686126885126EBF126A7E12164A
:10556300FD74085FF9E47001E960678518828519A5
:1055730083125D987A007B001216C1EA7001EB700A
:1055830051900380125B7A12251F7C007D007A0004
:105593007B0080288E828F83126C32E064FF70045C
:1055A300A3E064FF602C900380125D9812220DE942
:1055B300641A601E7C007D00EEFAEFFB1216C18AAE
:1055C300088B09AE08AF09EE7001EF70C7790012BE
:1055D30025257E01EEF902687774F7120B53EA7002
:1055E30001EB70059003E180068A828B83A3A312EB
:1055F30057C67001EB60288A828B83A3A3A3A3A35E
:10560300A3A3E05408F9E47001E960DDEC7001ED57
:105613006011125DBA6C7003A3E06D70CC80047AE4
:10562300007B000259F074F2120B53EAFEEBFF8980
:105633000A8C088D097A107B00121E1DEA7001EB9B
:10564300603CE48A828B83A3A3A3A3A3A3A3A31293
:105653005693E50A1259FB126B708A828B83A3A3BC
:10566300A3A3E4F012569312568412770DEA240C86
:10567300F582EB127B0A125685A3A3F0A3F0023343
:105683009FA3A312568A22F08001FB8A828B832276
:10569300A31259FFA3A32274F5120B53EAFEEBFFE7
:1056A300890A8C088D09EE7001EF60567401650A52
:1056B300701479011216D3E9FA903105E493C39A71
:1056C300500F791180657404650A703012573140A8
:1056D300F18E828F83A3A3A3A3A3A3A3A3A3E50A0A
:1056E300126381127D78E4F0A3F09003E1E070028D
:1056F300A3E09003E16024125B76800A7402650ADA
:1057030060CF79C18025E824020808E912574012C6
:1057130058347001E970EF8A828B8312770D12542B
:10572300FC7001EB70031268547900027121790453
:105733001216D3E9FA903102E493C39A22125B6BF7
:10574300FAE902568DC082C083E9FC79009003E137
:10575300801D8A828B83A3A3A3A3A3A3A3A3A3E0F4
:105763006C600574FF6C7001098A828B83A3A3129A
:1057730057C67001EB70DB02589674F7120B53EAAD
:105783007001EB70059003E180068A828B83A3A3EB
:105793001257C67001EB60248A828B83A3A3A3A351
:1057A300A3A3A3A3A3E06970E1EC60148A828B83B3
:1057B300E0240D1275CFA2E240D080047A007B0072
:1057C3000259F0125A30EA22C082C0839003E1806A
:1057D300068A828B83A3A31257C67001EB60128AD9
:1057E300828B83A3A3A3A3A3A3A3A3E06970E280F3
:1057F300047A007B00025896C082C0839003E18044
:105803000688828983A3A31258347001E9601B8838
:10581300828983E0FCA3E0F5838C82E06A7003A3B2
:10582300E06B70DDE8FAE9FB80047A007B00025844
:1058330096125E96E82274F1120B538A0A8B0B8C34
:105843000C8D0D750800750900EA7001EB6031904D
:1058530003E180068E828F83A3A312588A7001EF1F
:10586300601EAC0CAD0DEEFAEFFB850A82850B834F
:10587300122728E9640170DCEEF8EFF9880889093A
:10588300AA08AB09025114E0FEA3E0FFEE22740262
:105893001210DDD083D08202107579000210757466
:1058A300F7120B539003E1125B767C007D008007B7
:1058B300E8FCE9FD125B76E87001E9603AE824024E
:1058C300F582E912409AEA687002EB6970E21265A8
:1058D300669003E1127900E86E7002E96F70099037
:1058E30003E1EAF0A3EB800EEAF8EBF98C828D83F7
:1058F300A3A3E8F0A3E9F00259F074F7120B53EAFB
:10590300FEEBFFEE7001EF60161216F7125A07EA6C
:105913007001EB6003121E23EEFAEFFB121E23024B
:1059230059F074F7120B53125DBAFCA3E0FD900318
:10593300E1125B767508007E00803388828983A339
:10594300A3A3A3A3A3A3A3A3E0640570180E888253
:105953008983E0FFA3E0F5838F82E06C7003A3E00B
:105963006D7002050888828983A3A3125B76E870B1
:1059730001E970C7EA2404F8EB3400F99030F5E448
:1059830093FCE508C39C500B9030F6E493FCEEC304
:105993009C400B888289837401F0A3E4800A9003FE
:1059A3006E1259F5ECF0A3EDF074058A828B83A394
:1059B300A3A3A3A3A3A3A3A31259FBE0F0A3E044CF
:1059C3000812637A8A828B83E064FF7004A3E06425
:1059D300FF600E900380125D98122519E9641A7016
:1059E3000579011225258005741F1210DD7F010240
:1059F3000E2C125B8C0277021259FF22F08A828BE3
:105A030083024BF08E828F83E0241C125A36FAA352
:105A1300E0FB121E238E828F83125A30121E23EE56
:105A2300240C125A2922F582EF3400F583E0FAA3FD
:105A3300E0FB2212601EE022C082C083EAFCEBFD81
:105A4300EC7001ED70047905804CEC24FBF582EDDC
:105A530034FFF583E07002A3E07011EC24FFF8ED4E
:105A630034FFF988828983E064FF6005121DA580F5
:105A7300D59003CD125DB39030FAE493F97AE37BCA
:105A830003121DD5E96401700B7A007B201268585C
:105A930079008002790402589674F4120B53A2AF72
:105AA300E492E0F508C2AF9003E312588A7001EF65
:105AB300603DEE24FBF582EF34FFF583E07002A333
:105AC300E07A007B209003CD600512685B8005E0DF
:105AD300F9121DE1750A00750B00780A1210B0EE79
:105AE300FCEFFD7AE37B03121DCF74021210DDE598
:105AF30008A2E092AFEEFAEFFB02641074F7120B08
:105B03005374E1121141EA2413F582EB127C98C01D
:105B1300E07411121390D0E0125E8D740912139089
:105B2300125E86125B63FCE9FD8C828D83125B76C9
